:100000000C94FD0B0C942E0C0C942E0C0C942E0CBA
:100010000C942E0C0C942E0C0C942E0C0C942E0C78
:100020000C942E0C0C942E0C0C942E0C0C942E0C68
:100030000C942E0C0C942E0C0C942E0C0C942E0C58
:100040000C942E0C0C94231B0C942E0C0C942E0C44
:100050000C942E0C0C942E0C0C94AD220C94BC2BF6
:100060000C942E0C0C9439140C942E0C0C942E0C15
:100070000C942E0C0C942E0C0C942E0C0C942E0C18
:100080000C942E0C0C942E0C0C942E0C0C942E0C08
:100090000C942E0C0C942E0C0C942E0C0C942E0CF8
:1000A0000C942E0C0C942E0C0C942E0C0C942E0CE8
:1000B0000C942E0C0C942E0C0C942E0C0C942E0CD8
:1000C0000C942E0C0C942E0C0C942E0C0C942E0CC8
:1000D0000C942E0C0C942E0C0C942E0C0C942E0CB8
:1000E0000C942E0C11231F233E234C2367236A23D9
:1000F0006D2370237323762379237C238623392968
:100100003C292B292F2935297329402944294A299B
:100110004E29522958295C296029732966296A29A0
:100120006E29D82ADD2AE22AEC2AF62A6F2B002B28
:10013000082B102B1A2B242B2E2B3D2B472B6F2BF0
:10014000512B5B2B652B084AD73B3BCE016E84BC01
:10015000BFFDC12F3D6C74319ABD56833DDA3D0021
:10016000C77F11BED9E4BB4C3E916BAAAABE00006A
:1001700000803F05A84CCDB2D44EB93836A9020C48
:1001800050B9918688083CA6AAAA2ABE0000008021
:100190003F004E414E494E495459494E46CDCCCC74
:1001A0003D0AD7233C17B7D13877CC2B329595E64B
:1001B000241FB14F0A000020410000C84200401C2B
:1001C0004620BCBE4CCA1B0E5AAEC59D74434F4D53
:1001D0004D554E49434154494F4E00445259525592
:1001E0004E004552524F525300494E464F00454330
:1001F000484F0020746F6F206C6F6E6720657874B5
:10020000727573696F6E2070726576656E74656461
:100210000A0020636F6C6420657874727573696F6F
:100220006E2070726576656E7465640A0047322FC1
:1002300047332062616420706172616D657465721C
:10024000730A00536C6565702E2E2E004E6F206D64
:100250006F76652E002569730025696D2025697309
:10026000002569682025696D20256973002569646A
:10027000202569682025696D202569730025697925
:1002800020256964202569682025696D202569730A
:10029000005072696E742074696D653A2000507266
:1002A0006F7465637465642050696E0A0048656107
:1002B00074696E672E2E2E00436C6F6E652072651A
:1002C0006164792E00EE01E901E201DB01CD016FED
:1002D00066660044454255473A004B494C4C4544FC
:1002E0002E20004D3131332053006F6B0048656183
:1002F00074696E6720646F6E652E003F0A00205798
:100300003A0048656174696E672E2E2E00436C6F4B
:100310006E652072656164792E0042656420646FA9
:100320006E652E003F0A0020573A0042656420485F
:10033000656174696E672E004649524D57415245BA
:100340005F4E414D453A4D61726C696E20312E31E0
:100350002E302D5243382028476974687562292051
:10036000534F555243455F434F44455F55524C3AB6
:1003700068747470733A2F2F6769746875622E639E
:100380006F6D2F4D61726C696E4669726D77617227
:10039000652F4D61726C696E2050524F544F434F20
:1003A0004C5F56455253494F4E3A312E30204D4105
:1003B0004348494E455F545950453A436C6F6E650A
:1003C0002045585452554445525F434F554E543A78
:1003D0003120555549443A63656465326132662D72
:1003E000343161322D343734382D396231322D6356
:1003F00035356336326633363766660A007A5F6DA6
:10040000696E3A2000795F6D696E3A2000785F6D01
:10041000696E3A20005265706F7274696E6720656C
:100420006E6473746F70207374617475730A005313
:10043000657474696E672054726176656C204163DF
:1004400063656C65726174696F6E3A200053657400
:1004500074696E67205265747261637420416363CE
:10046000656C65726174696F6E3A200053657474CF
:10047000696E67205072696E7420416363656C65B4
:10048000726174696F6E3A200053657474696E67A7
:10049000205072696E7420616E64205472617665BA
:1004A0006C20416363656C65726174696F6E3A209C
:1004B00000205A00205900580020204D61783A2031
:1004C00000205A00205900580020204D696E3A2023
:1004D000004F6E20004F666600536F667420656E95
:1004E0006473746F70733A200020643A0020693A94
:1004F0000020703A0043290A0061626C656420287C
:100500006D696E2074656D702000436F6C642065AA
:100510007874727564657320617265200023646568
:1005200066696E65202044454641554C545F4B64D6
:10053000200023646566696E652020444546415568
:100540004C545F4B69200023646566696E6520200A
:1005500044454641554C545F4B702000504944205F
:100560004175746F74756E652066696E6973686530
:1005700064212050757420746865206C6173742048
:100580004B702C204B6920616E64204B6420636F9C
:100590006E7374616E74732066726F6D2062656C29
:1005A0006F7720696E746F20436F6E66696775722E
:1005B0006174696F6E2E680A005049442041757459
:1005C0006F74756E65206661696C6564212074695D
:1005D0006D656F75740A00504944204175746F74DD
:1005E000756E65206661696C6564212054656D7067
:1005F0006572617475726520746F6F2068696768D1
:100600000A00204B643A2000204B693A2000204B1E
:10061000703A20000A20436C61737369632050496B
:1006200044200A002054753A2000204B753A2000DF
:10063000206D61783A2000206D696E3A20002064B8
:100640003A200020626961733A20004F6666736544
:100650007473206170706C696564004572723A2031
:10066000546F6F206661722100546F6F2066617253
:100670002066726F6D207265666572656E636520B7
:10068000706F696E740A0000000000000000000036
:10069000000000454550524F4D2064697361626C03
:1006A00065640A004572726F723A0041637469763C
:1006B000652045787472756465723A2000556E6BDA
:1006C0006E6F776E20636F6D6D616E643A202200ED
:1006D000456E6473746F7073202563202563202535
:1006E0006320256300205A3A0020593A0020583AE6
:1006F00000656E6473746F7073206869743A2000CB
:100700006563686F3A00656E7175657565696E67DA
:100710002022004E6F204C696E65204E756D62651B
:1007200072207769746820636865636B73756D2CDC
:10073000204C617374204C696E653A20004B494C23
:100740004C45442E200053544F505045442E200019
:100750005072696E7465722073746F707065642076
:1007600064756520746F206572726F72732E2046F7
:10077000697820746865206572726F7220616E649A
:1007800020757365204D39393920746F2072657377
:10079000746172742E202854656D70657261747571
:1007A00072652069732072657365742E20536574B9
:1007B0002069742061667465722072657374617259
:1007C00074696E67290A004E6F20436865636B7316
:1007D000756D2077697468206C696E65206E756D23
:1007E0006265722C204C617374204C696E653A20EE
:1007F00000636865636B73756D206D69736D6174FB
:1008000063682C204C617374204C696E653A20003B
:100810004C696E65204E756D626572206973206E3D
:100820006F74204C617374204C696E65204E756D39
:100830006265722B312C204C617374204C696E659B
:100840003A20004D3131300020496E76616C696488
:10085000206578747275646572200000004843005A
:100860000048430000484300000000000000000072
:100870000000002042403A0020403A00202F002093
:10088000423A00202F0020543A00205A3A002059C2
:100890003A0020436F756E7420583A200020453A84
:1008A00000205A3A0020593A00583A0052657365C0
:1008B0006E643A20006F6B00627573793A20706144
:1008C0007573656420666F7220696E7075740A00B6
:1008D000627573793A2070617573656420666F7212
:1008E00020757365720A00627573793A2070726FB1
:1008F00063657373696E670A004B494C4C45442E1F
:100900002000506C656173652072657365740050DA
:1009100072696E7465722068616C7465642E206BF8
:10092000696C6C28292063616C6C6564210A002D58
:100930002D2D2D2D2D007C4D61726C696E7C002D4E
:100940002D2D2D2D2D00636C6F6E652E65617274DB
:100950006800636C6F6E652E6561727468000020BC
:1009600020506C616E6E6572427566666572427982
:100970007465733A20002046726565204D656D6F81
:1009800072793A2000436F6D70696C65643A204D4E
:10099000617920203320323031370A00207C204119
:1009A0007574686F723A2028454152544820436C50
:1009B0006F6E6520433161290A00323031362D31A6
:1009C000322D30362031323A303000204C61737491
:1009D00020557064617465643A2000312E312E30E8
:1009E0002D5243380A004D61726C696E0020536FBE
:1009F0006674776172652052657365740A002057CA
:100A000061746368646F672052657365740A0020BF
:100A100042726F776E206F75742052657365740A29
:100A2000002045787465726E616C20526573657440
:100A30000A00506F77657255700A007374617274A2
:100A40000A0024F4D43050C38E20C2A24017828BF7
:100A50007011127A910D816CD90AA861E108C7580A
:100A60006607615143061E4B5D05C145A7041A4147
:100A70001104093D9803713931034036DB026533B7
:100A80009102D4305402802E1D02632CEE01752A8F
:100A9000C501B028A001102781018F2564012B24F6
:100AA0004B01E0223401AC211F018D200D01801F7C
:100AB000FC00841EED00971DDF00B81CD200E61B71
:100AC000C600201BBC00641AB200B219A8000A19A3
:100AD000A0006A189900D117910040178B00B51635
:100AE000840031167E00B31579003A157300C714DF
:100AF0006F0058146A00EE13660088136300251314
:100B00005E00C7125B006C12570015125400C11131
:100B1000510070114F0021114B00D61049008D106B
:100B200047004610440002104200C00F4000800FF2
:100B30003E00420F3C00060F3B00CB0E3800930EE8
:100B400037005C0E3500270E3400F30D3200C10D66
:100B50003100900D3000600D2E00320D2D00050D7E
:100B60002C00D90C2B00AE0C2900850C29005C0C44
:100B70002700350C27000E0C2600E80B2400C40BC0
:100B80002400A00B23007D0B23005A0B2100390BFE
:100B90002100180B2000F80A1F00D90A1E00BB0A0A
:100BA0001E009D0A1D00800A1D00630A1C00470AE2
:100BB0001B002C0A1B00110A1A00F7091A00DD0994
:100BC0001900C4091900AB091900920917007B0923
:100BD0001800630917004C09160036091600200991
:100BE00016000A091500F5081500E0081400CC08E5
:100BF0001400B8081400A4081400900813007D081D
:100C000012006B081300580812004608120034083E
:100C10001100230811001208110001081100F0074B
:100C20001000E0071000D0071000C0071000B00748
:100C30000F00A107100091070E0083070F00740733
:100C40000F0065070E0057070E0049070E003B070F
:100C50000D002E070E0020070D0013070D000607DC
:100C60000D00F9060C00ED060D00E0060C00D406A0
:100C70000C00C8060C00BC060C00B0060C00A40654
:100C80000B0099060C008D060B0082060B00770600
:100C90000B006C060B0061060A0057060B004C06A1
:100CA0000A0042060A0038060A002E060A00240638
:100CB0000A001A060A001006090007060A00FD05C8
:100CC0000900F4050900EB050900E2050900D90552
:100CD0000900D0050900C7050900BE050900B505D2
:100CE0000800AD050800A50509009C05080094054D
:100CF00008008C050800840508007C0508007405C0
:100D000008006C050700650508005D05070056052D
:100D100008004E0507004705070040050800380594
:100D20000700310507002A050700230507001C05F9
:100D30000600160507000F05070008050600020556
:100D40000700FB040600F5040700EE040600E804B3
:100D50000600E2040700DB040600D5040600CF0409
:100D60000600C9040600C3040600BD040600B7045B
:100D70000600B1040500AC040600A6040600A004A9
:100D800005009B04060095040500900406008A04F3
:100D9000050085040500800406007A04050075043A
:100DA0000500700405006B0405006604050061047D
:100DB00005005C04050057040500520405004D04BD
:100DC000050048040500430405003E0404003A04FD
:100DD000050035040500300404002C040500270438
:100DE0000400230405001E0404001A040400160471
:100DF0000500110404000D040400090405000404A6
:100E0000040000040400FC030400F8030400F403DD
:100E10000400F0030400EC030400E8030400E4030E
:100E20000400E0030400DC030400D8030400D4033E
:100E30000400D0030400CC030400C8030300C5036E
:100E4000030024F404D9201BC40C5C0E9804C409CC
:100E50005F0265077101F405F900FB04B300480463
:100E60008700C10369005803550003034500BE0213
:100E70003A008402310053022A00290225000402AC
:100E80002000E4011C00C8011900AF0117009801FF
:100E90001400840113007101100061011000510160
:100EA0000E0043010D0036010B002B010B00200149
:100EB0000B00150109000C01090003010800FB00EB
:100EC0000800F3000800EB000700E4000600DE0065
:100ED0000600D8000600D2000600CC000500C700BE
:100EE0000500C2000500BD000400B9000400B50003
:100EF0000400B1000400AD000400A9000400A50036
:100F00000300A20003009F0004009B000300980060
:100F100003009500020093000300900003008D0081
:100F200002008B000300880002008600020084009B
:100F30000300810002007F0002007D0002007B00B0
:100F400002007900020077000100760002007400C0
:100F5000020072000100710002006F0002006D00CB
:100F600001006C0002006A000100690002006700D5
:100F700001006600010065000100640002006200DB
:100F8000010061000100600001005F0002005D00DF
:100F900001005C0001005B0001005A0001005900E3
:100FA00001005800010057000100560001005500E3
:100FB00001005400010053000000530001005200E2
:100FC000010051000100500001004F0001004E00DF
:100FD00000004E0001004D0001004C0001004B00DC
:100FE00000004B0001004A000100490001004800D8
:100FF00000004800010047000100460000004600D4
:1010000001004500000045000100440001004300CC
:1010100000004300010042000000420001004100C6
:10102000000041000100400001003F0000003F00BF
:1010300001003E0000003E0001003D0000003D00B8
:1010400001003C0000003C0000003C0001003B00AF
:1010500000003B0001003A0000003A0001003900A6
:10106000000039000100380000003800000038009E
:101070000100370000003700010036000000360094
:10108000000036000100350000003500000035008A
:10109000010034000000340000003400010033007F
:1010A0000000330000003300010032000000320075
:1010B000000032000100310000003100000031006A
:1010C00001003000000030000000300001002F005F
:1010D00000002F0000002F0000002F0001002E0054
:1010E00000002E0000002E0001002D0000002D0049
:1010F00000002D0000002D0001002C0000002C003D
:1011000000002C0000002C0001002B0000002B0030
:1011100000002B0000002B0001002A0000002A0024
:1011200000002A0000002A00010029000000290018
:10113000000029000000290000002900010028000B
:1011400000002800000028000000280000002800FF
:1011500001002700000027000000270000002700F2
:1011600000002700010026000000260000002600E5
:1011700000002600000026000100250000002500D8
:1011800000002500000025000000250000002500CB
:1011900001002400000024000000240000002400BE
:1011A00000002400010023000000230000002300B1
:1011B00000002300000023000000230000002300A3
:1011C0000100220000002200000022000000220096
:1011D0000000220000002200010021000000210088
:1011E000000021000000210000002100000021007B
:1011F000000021000100200000002000000020006D
:10120000000020000000200000002000000020005E
:101210000000200001001F0000001F0000001F0050
:1012200000001F0000001F0000001F0000001F0042
:1012300001001E0000001E0000001E0000001E0035
:1012400000006265640A002C2073797374656D2058
:1012500073746F7070656421204865617465725F96
:1012600049443A200048656174696E672066616987
:101270006C65640048656174696E67206661696CBD
:1012800065640048656174696E67206661696C65B4
:10129000640048656174696E67206661696C6564A5
:1012A000004B494C4C45442E2000202D20496E76A1
:1012B000616C6964206578747275646572206E75FE
:1012C0006D62657220210A00544845524D414C2000
:1012D00052554E4157415900546865726D616C20FA
:1012E00052756E61776179004572723A204D4158AE
:1012F00054454D5020424544004572723A204D41BC
:101300005854454D50004D415854454D502074722D
:1013100069676765726564004572723A204D494E8F
:1013200054454D5020424544004572723A204D4983
:101330004E54454D50004D494E54454D5020747209
:10134000696767657265640000002100240027005A
:101350002A002D00300033000101000004010701C4
:101360000A0100002200250028002B002E00310079
:10137000340002010000050108010B0100002000FB
:101380002300260029002C002F003200000100005D
:1013900003010601090105050505070508080808F8
:1013A000020202020A0A08080404040401010101FD
:1013B00001010101030303030303030304070707F8
:1013C0000C0C0C0C0C0C0C0C02020202060606069D
:1013D000060606060B0B0B0B0B0B0B0B010210206A
:1013E000200808102040102040800201020108045B
:1013F00002010102040810204080804020100804EF
:101400000201800402018040201008040201080447
:10141000020101020408102040800102040810208B
:10142000408000000A0B02090C0D0E08070304019E
:1014300000000000000000000000000000000000AC
:101440000000000000000000000000000000121179
:10145000100000000000000000000000000000007C
:1014600000000000000000005761726E696E673A6C
:1014700020486F6D696E672042756D7020446976F3
:1014800069736F72203C20310A000000A040000008
:10149000A040000000400000484300004843000016
:1014A0004843FFFFFF48617264636F6465642044D2
:1014B000656661756C742053657474696E6773201A
:1014C0004C6F616465640A0020204D323030204446
:1014D000300A0020204D323030204400204469730F
:1014E00061626C65640A0046696C616D656E7420AA
:1014F00073657474696E67733A0020440020490074
:1015000020204D3330312050005049442073657401
:1015100074696E67733A0A00205A0020590020202F
:101520004D323036205800486F6D65206F66667307
:10153000657420286D6D290A00204500205A00207E
:10154000590020580020420020540020204D323005
:1015500035205300416476616E6365642076617264
:101560006961626C65733A20533D4D696E20666512
:1015700065647261746520286D6D2F73292C205469
:101580003D4D696E2074726176656C206665656498
:101590007261746520286D6D2F73292C20423D6D7A
:1015A000696E696D756D207365676D656E74207405
:1015B000696D6520286D73292C20583D6D6178690F
:1015C0006D756D205859206A65726B20286D6D2FDE
:1015D00073292C20205A3D6D6178696D756D205AF4
:1015E000206A65726B20286D6D2F73292C20204591
:1015F0003D6D6178696D756D2045206A65726B205F
:10160000286D6D2F73290A002054002052002020DD
:101610004D323034205000416363656C65726174F3
:10162000696F6E733A20503D7072696E74696E67AF
:101630002C20523D7265747261637420616E642067
:10164000543D74726176656C0A00204500205A0092
:1016500020590020204D3230312058004D617869EA
:101660006D756D20416363656C65726174696F6E41
:1016700020286D6D2F7332293A0A00204500205A28
:101680000020590020204D3230332058004D617821
:10169000696D756D20666565647261746573202877
:1016A0006D6D2F73293A0A00204500205A002059F9
:1016B0000020204D3932205800537465707320701B
:1016C000657220756E69743A0A0020746F6F206C21
:1016D0006F6E6720657874727573696F6E207072B3
:1016E0006576656E7465640A0020636F6C642065BE
:1016F0007874727573696F6E2070726576656E743A
:1017000065640A0070012C0190012701B0012201DB
:10171000C0011D01F00118011002130130020E0179
:101720006002090190020401C002FF000003FA00F8
:101730004003F5008003F000D003EB002004E60036
:101740007004E100E004DC004005D700C005D200D1
:101750004006CD00D006C8008007C3003008BE0098
:10176000F008B900C009B400B00AAF00B00BAA007D
:10177000D00CA500000EA000500F9B00C0109600DA
:101780005012910000148C00C0158700B017820021
:10179000B0197D00D01B7800001E730040206E0041
:1017A00090226900F024640040275F0090295A00CD
:1017B000E02B5500102E500020304B001032460018
:1017C000E033410090353C0010373700703832006C
:1017D000A0392D00B03A2800A03B2300603C1E0039
:1017E000103D1900903D1400103E0F00703E0A009D
:1017F000C03E0500003F00006F6211241FBECFEF06
:10180000D1E2DEBFCDBF00E00CBF13E0A0E0B2E04C
:10181000E6E9FCED00E00BBF02C007900D92AE3F81
:10182000B107D9F72DE0AEEFB3E001C01D92A234AD
:10183000B207E1F71BE0CDEFDBE000E006C0219747
:101840000109802FFE010E940D6ECC3FD10780E080
:101850000807A9F70E9401460C94496E0C940000F9
:101860008FB7F8949091820720918107291759F03A
:10187000E92FF0E0EF5FF84F208130E09F5F9F7726
:101880009093820702C02FEF3FEF8FBFC9010895E9
:101890000F931F93CF93DF93FC0120812B3301F132
:1018A000109186061430E0F4062FBC0190918F064B
:1018B000C92FD0E0F0E69F9FC001112488519B4FB3
:1018C0000E94336EFE01E957F84F00832196C370E2
:1018D000DD27C0938F061F5F1093860681E001C04D
:1018E00080E0DF91CF911F910F9108950F931F9387
:1018F000CF93DF93EC010E94B02B0E811F812885CE
:101900003985011511052105310559F52C8522234D
:10191000A9F13A8521502C8721E0230F2A874D8594
:10192000241301C01A86FE0124E0329FE00DF11D50
:10193000112406851785208931890A831B832C830E
:101940003D83DC01CB01800F911FA11DB11D8E8352
:101950009F83A887B9878C819D81892B79F0449AD0
:101960000DC0DC01CB01801B910BA20BB30BB7FDAB
:1019700005C044981E821F8218861986DF91CF9178
:101980001F910F91089580E1E2E0F4E0AAECB4E049
:1019900001900D928A95E1F70895CF92EF92FF9210
:1019A0000F931F93C090DD047B018C012EE034E087
:1019B0004AE054E066E074E082E094E00E940F3573
:1019C0001F910F91FF90EF90CF900895CF92EF92DB
:1019D000FF920F931F93E0900002F090010200919C
:1019E000020210910302C090DD0426ED34E042EDC6
:1019F00054E06EEC74E08AEC94E00E940F351F9185
:101A00000F91FF90EF90CF900895682F880F770B7C
:101A10008091E5049091E6040E941F6E9C019093D2
:101A200085048093840481E0232B09F480E00895E9
:101A300080918404909185044AE050E060E070E079
:101A400001960E94316497FD1EC08091840490919C
:101A500085044AE050E060E070E001960E94316445
:101A60006F3F71058105910509F07CF48091840434
:101A7000909185044AE050E060E070E001960E9499
:101A80003164862F089580E008958FEF0895E091E6
:101A90008404F0918504818121E030E0803239F4C2
:101AA0002F5F3F4FDF01A20FB31F8C91F7CF8D3215
:101AB00011F08B3231F42F5F3F4FDF01A20FB31FC4
:101AC0008C918E3219F4E20FF31F818180538A309A
:101AD00030F4AEDF91E0811103C090E001C091E0ED
:101AE000892F089580918404909185044AE050E004
:101AF00060E070E001960E945965CB0108958091E5
:101B00008404909185044AE050E060E070E0019622
:101B10000E943164CB0108950F931F93CF93DF93FD
:101B2000C0918404D091850465E470E0CE010E94E8
:101B30001F6E8C01CE0101960115110571F0F8019F
:101B4000108260E070E00E94CB6225E4F8012083FF
:101B5000DF91CF911F910F91089560E070E0DF91C8
:101B6000CF911F910F910C94CB62BF92CF92DF92D5
:101B7000EF92FF920F931F93CF93DF9382E0E82EB3
:101B800084E0F82E0AEC14E09EEDC92E94E0D92EE4
:101B9000C3EBD2E0BC2E84E0B80E899136DF8823F7
:101BA000D1F0BADFF6012081211104C02091E204B6
:101BB000222331F0F801208131814281538103C019
:101BC00020E030E0A9010E94066BF7016083718379
:101BD000828393830AC0F80180819181A281B381BD
:101BE000F70180839183A283B383F4E0EF0EF11CAD
:101BF0000C5F1F4F8FEFC81AD80ABC12CECF86E4F5
:101C000004DF8823B9F088DF20E030E0A9010E94DA
:101C10002C6D18167CF480DF20E030E040E752E4C1
:101C20000E94E26B609300027093010280930202B3
:101C300090930302DF91CF911F910F91FF90EF904E
:101C4000DF90CF90BF90089526ED34E042ED54E050
:101C50006EEC74E08AEC94E00C94144588E893E10F
:101C60009093240C8093230C80916F008D7F809340
:101C70006F0090910A0D80910B0D981719F00E943A
:101C80006D44F7CF10924B0C10924A0C80916F006C
:101C9000826080936F000E94E01A80E090E00E94D2
:101CA000D5286093F5067093F6068093F706909317
:101CB000F80681E090E00E94D5286093F9067093C1
:101CC000FA068093FB069093FC0682E090E00E9467
:101CD000D5286093FD067093FE068093FF069093CF
:101CE00000078CE0E5EFF6E0AAECB4E001900D927D
:101CF0008A95E1F7A9CFAF92BF92CF92DF92EF9290
:101D0000FF920F931F93CF93DF9300D01F92CDB715
:101D1000DEB779015C01AA0CBB1CAA0CBB1CC50177
:101D200086539B4F6C01FC01108211821282138238
:101D300049835A836B837C8387DF49815A816B8116
:101D40007C81F6014083518362837383C090DD04FC
:101D500020E030E0A901B801C7010E9405678111A8
:101D600008C0F501E35AFC4F3081218192818381C3
:101D700004C0302F212F9E2D8F2DE32EF22E092F00
:101D8000182F26ED34E042ED54E06EEC74E08AEC5E
:101D900094E00E940F350E94E01A109284060F9082
:101DA0000F900F900F90DF91CF911F910F91FF90A7
:101DB000EF90DF90CF90BF90AF900895FC016591B8
:101DC0007591859194910895CF92DF92EF92FF9251
:101DD0000F931F93CF93DF93EC01CC0FDD1FCC0F3C
:101DE000DD1FFE01EE54FB4F20E030E0A9016081D1
:101DF0007181828193810E94066BFE01EA55FB4F3F
:101E000020813181428153810E94066B6B017C01EC
:101E1000CE018959974FD2DF8E0102541B4FA70183
:101E200096010E94066BF80160837183828393831D
:101E3000CE01855A974FC2DFC85DDD4FA7019601DD
:101E40000E94066B688379838A839B83DF91CF919D
:101E50001F910F91FF90EF90DF90CF9008950E9417
:101E6000B02B6093FE037093FF0380930004909364
:101E7000010408959091C00095FFFCCF8093C600A7
:101E800008950F931F93CF93DF931F921F92CDB7A7
:101E9000DEB7FC0184918F010F5F1F4F811102C0DB
:101EA0008B0107C069837A83E5DFF80169817A8154
:101EB000F1CFF80181918F01882311F0DBDFF9CF99
:101EC0000F900F90DF91CF911F910F9108958F92F6
:101ED0009F92AF92BF92EF92FF921F93CF93DF93A7
:101EE000CDB7DEB7A0970FB6F894DEBF0FBECDBF5B
:101EF000611571058105910579F110E0842E912C11
:101F0000A12CB12CEE24E394F12CEC0EFD1EE10E7D
:101F1000F11C17FDFA94A50194010E94CA6AF70109
:101F20006083B901CA011F5F6115710581059105C3
:101F300049F7115010F1E1E0F0E0EC0FFD1FE10F67
:101F4000F11D17FDFA9580818A3010F097E301C0EA
:101F500090E3890F8FDFEDCF80E3A0960FB6F89462
:101F6000DEBF0FBECDBFDF91CF911F91FF90EF90ED
:101F7000BF90AF909F908F907DCFA0960FB6F894B2
:101F8000DEBF0FBECDBFDF91CF911F91FF90EF90CD
:101F9000BF90AF909F908F900895CF92DF92EF9275
:101FA000FF92CF93DF936A017B01FC018491EF01E3
:101FB0002196882319F05EDFFE01F8CF4AE0C701C1
:101FC000B601DF91CF91FF90EF90DF90CF907FCF60
:101FD000CF92DF92EF92FF926B017C0197FF0AC0D4
:101FE0008DE248DFF094E094D094C094C11CD11CE1
:101FF000E11CF11C4AE0C701B601FF90EF90DF90B1
:10200000CF9065CFCF93DF938FB7F89490918207ED
:10201000909381078FBFECEAF8E08491EF0121965D
:10202000882319F027DFFE01F8CF80918307909174
:102030008407A0918507B0918607BC01CD016F5F31
:102040007F4F8F4F9F4FC4DF8AE014DFDF91CF9126
:102050000C94C11AEF92FF920F931F93CF93DF93CB
:102060001F92CDB7DEB7082F162FE4EAF6E0849171
:102070007F012FEFE21AF20A882329F09983FADE12
:10208000F7019981F4CFE02FF92F84917F019FEF21
:10209000E91AF90A882319F0EDDEF701F6CF60910D
:1020A000830770918407809185079091860790DF60
:1020B0008AE0E0DE1111A6DF1092F3061092F2061C
:1020C0000F90DF91CF911F910F91FF90EF900895A6
:1020D0004F925F926F927F92BF92CF92DF92EF9278
:1020E000FF920F931F93CF93DF93CDB7DEB76E9719
:1020F0000FB6F894DEBF0FBECDBF60919006709111
:1021000091066115710561F14DE150E08E010F5F9F
:102110001F4FC8010E94AD661E8EF8017F01E01AB4
:10212000F10AB190BB2099F12AE0B212F7CF2FC08B
:10213000B80186E097E0A5DE82E29CDE8AE09ADEC6
:10214000BB2009F43AC0EFEFEE1AFE0A8091900628
:1021500090919106E80EF91EF0929106E092900699
:102160008091900690919106892B09F04CC1809145
:102170008606843008F047C12FB7F8948091810714
:10218000909182072FBF891B8F77E1F43CC1F80142
:10219000EE0DFF1D108260E0C8017ADB882301F399
:1021A000E0E0F7E084916F019FEFC91AD90A882314
:1021B00009F4BECF5FDEF601F5CF109291061092C2
:1021C0009006CECF4DDB2091F2063091F3068A3097
:1021D00019F08D3009F0E7C01092F4062115310591
:1021E00009F4C5CFF901EE56F94F10821092F306AB
:1021F0001092F20622E936E07901F90180812F5F21
:102200003F4F8032C9F387018E3411F0E12CF12C5D
:102210006AE270E0C8010E941F6E6C01E114F104D3
:1022200009F474C063E478E0C8010E94BC66BB2472
:10223000B394892B11F4B12C09C06EE470E0C8018D
:1022400004960E941F6E009709F07C014AE050E05E
:1022500060E070E0C70101960E943164609323043E
:102260007093240480932504909326044090830760
:10227000509084076090850770908607FFEF4F1A93
:102280005F0A6F0A7F0A641575058605970531F0A8
:10229000B11004C061E080E198E03DC0C114D104F8
:1022A00001F180E0F12CF801E80FF11D90819A32E4
:1022B00019F08F5FF926F7CF4AE050E060E070E058
:1022C000C60101960E943164CF2CD12CE12CF12C57
:1022D0006C157D058E059F0541F061E081EF97E06B
:1022E0001AC061E087EC97E016C0809123049091BA
:1022F0002404A0912504B091260480938307909331
:102300008407A0938507B093860707C0892B29F01F
:1023100060E083E197E09EDE76C080913402811117
:1023200022C067E470E0C8010E941F6E0097D9F0D8
:102330004AE050E060E070E001960E943164643051
:10234000710588F4E0E5F7E084917F012FEFE21A50
:10235000F20A882319F08EDDF701F6CF60E086E4FB
:1023600097E00E948C2C6BED73E0C8010E942A6EEE
:10237000892B11F41092350260EE73E0C8010E94BF
:102380002A6E892B19F48DE397E0B9D565EE73E0D9
:10239000C8010E942A6E892B09F460DC61E082E9A1
:1023A00096E076DAE4CE2F3531050CF0E0CE8C35B0
:1023B000A9F42FB7F89480918107909182072FBFDD
:1023C000891B8F7709F4D3CE4BDA9091F4069111E3
:1023D000CECE2091F2063091F30609C08B3319F46A
:1023E00091E09093F4069091F4069111C0CEA9016A
:1023F0004F5F5F4F5093F3064093F206F901EE569C
:10240000F94F8083B4CE6E960FB6F894DEBF0FBE40
:10241000CDBFDF91CF911F910F91FF90EF90DF9093
:10242000CF90BF907F906F905F904F9008950F93E3
:102430001F93CF93DF938B01FC018491EF012196D1
:10244000882319F017DDFE01F8CFB801110F880BB2
:10245000990BDF91CF911F910F91BACDEF92FF921F
:102460001F93CF93DF937C0184E5CFDA182F882365
:1024700011F1DEDA8823D1F0E0E0F7E08491EF019A
:102480002196882319F0F6DCFE01F8CF8DE4F2DC0A
:10249000B701FF0C880B990B9BDDCADA682F70E03F
:1024A00088E498E0C4DF8AE0E5DC09C0C1DA809303
:1024B000A50410E004C08091DD048093A504812F61
:1024C000DF91CF911F91FF90EF9008958F929F928F
:1024D000AF92BF92CF92DF92EF92FF92CF936B01B8
:1024E0007C01B42E20E030E0A9010E94056787FF3F
:1024F00006C08DE2BFDCF7FAF094F7F8F094C0E084
:1025000060E070E080E09FE3CB1541F02DEC3CEC07
:102510004CEC5DE30E946A67CF5FF6CF9B01AC0194
:10252000C701B6010E94066B6B017C010E944F6CD3
:102530004B015C014AE0CBDCCC2379F1C501B4014D
:102540000E9409679B01AC01C701B6010E94056B9F
:102550006B017C018EE28EDC20E030E040E251E451
:10256000C701B6010E946A674B015C010E944A6C78
:102570006B01770FEE08FF08C701B60129DDC7011F
:10258000B6010E940B679B01AC01C501B4010E941A
:10259000056B6B017C01C150F9F6CF91FF90EF9074
:1025A000DF90CF90BF90AF909F908F9008954F9203
:1025B0005F926F927F928F929F92AF92BF92CF92D3
:1025C000DF92EF92FF92CF93DF93E9EAF8E08491F4
:1025D000EF012196882319F04DDCFE01F8CF6091C0
:1025E000CA047091CB048091CC049091CD0442E058
:1025F0006DDFE5EAF8E08491EF012196882319F078
:1026000039DCFE01F8CF6091CE047091CF04809147
:10261000D0049091D10442E059DFE1EAF8E08491DE
:10262000EF012196882319F025DCFE01F8CF609197
:10263000D2047091D3048091D4049091D50442E0E7
:1026400045DFEDE9F8E08491EF012196882319F048
:1026500011DCFE01F8CF6091D6047091D70480910F
:10266000D8049091D90442E031DF8FB7F8944090BC
:10267000120450901304609014047090150480901C
:10268000160490901704A0901804B0901904C090FC
:102690001A04D0901B04E0901C04F0901D048FBF1E
:1026A000E2E9F8E08491EF012196882319F0E2DB5A
:1026B000FE01F8CFC301B2018BDCEEE8F8E08491B3
:1026C000EF012196882319F0D5DBFE01F8CFC50173
:1026D000B4017EDCEAE8F8E08491EF0121968823DA
:1026E00019F0C8DBFE01F8CFC701B60171DC8AE042
:1026F000DF91CF91FF90EF90DF90CF90BF90AF90A0
:102700009F908F907F906F905F904F90B3CBCF93BF
:10271000DF93E6E8F8E08491EF012196882319F031
:10272000A9DBFE01F8CF6091CA0C7091CB0C8091AF
:10273000CC0C9091CD0C41E0C9DEE3E8F8E0849147
:10274000EF012196882319F095DBFE01F8CF609107
:10275000C80C7091C90C072E000C880B990B0E94B5
:102760000B6741E0B3DEEFE7F8E08491EF012196DB
:10277000882319F07FDBFE01F8CF60912704709168
:1027800028048091290490912A0441E09FDEECE71F
:10279000F8E08491EF012196882319F06BDBFE01AC
:1027A000F8CF60912B0470912C04072E000C880B3D
:1027B000990B0E940B6741E089DEE8E7F8E084911D
:1027C000EF012196882319F055DBFE01F8CFE09147
:1027D000A504F0E0EC55FB4F608170E080E090E0F4
:1027E000F7DBE3E7F8E08491EF012196882319F005
:1027F00041DBFE01F8CF6091520C70E080E090E088
:10280000DF91CF91E5CBCF92DF92EF92FF92CF9302
:10281000DF936A017B01FC018491EF0121968823FB
:1028200019F028DBFE01F8CF42E0C701B601DF91C5
:10283000CF91FF90EF90DF90CF9048CECF92DF9274
:10284000EF92FF92CF93DF936A017B01FC018491A9
:10285000EF012196882319F00DDBFE01F8CF42E04D
:10286000C701B601DF91CF91FF90EF90DF90CF903D
:102870002DCE1F920F920FB60F9211240BB60F920E
:102880002F933F938F939F93EF93FF932091C600D5
:102890009FB7F894E091810781E08E0F8F77309198
:1028A0008207831731F0F0E0EF5FF84F20838093C9
:1028B00081079FBFFF91EF919F918F913F912F9142
:1028C0000F900BBE0F900FBE0F901F901895EF92B8
:1028D000FF920F931F93CF93DF93CDB7DEB7A097EF
:1028E0000FB6F894DEBF0FBECDBF82E08093C0006C
:1028F0001092C50087E08093C4008091C100806180
:102900008093C1008091C10088608093C100809154
:10291000C10080688093C100EBE3FAE084918F01ED
:102920000F5F1F4F882319F0A5DAF801F7CFE0E019
:10293000F7E084918F010F5F1F4F882319F09ADA17
:10294000F801F7CF14B710FF0CC0E2E3FAE084916E
:102950007F012FEFE21AF20A882319F08BDAF701D0
:10296000F6CF11FF0CC0E1E2FAE084917F013FEF66
:10297000E31AF30A882319F07DDAF701F6CF12FF84
:102980000CC0EFE0FAE084917F019FEFE91AF90AA9
:10299000882319F06FDAF701F6CF13FF0CC0EEEFC2
:1029A000F9E084917F012FEFE21AF20A882319F0EF
:1029B00061DAF701F6CF15FF0BC0EDEEF9E0849177
:1029C0008F010F5F1F4F882319F054DAF801F7CFFA
:1029D00014BEE6EEF9E084918F010F5F1F4F88234C
:1029E00019F048DAF801F7CF80E244DAEBEDF9E0CC
:1029F00084918F010F5F1F4F882319F03BDAF80194
:102A0000F7CF8AE037DAE0E0F7E084918F010F5FDB
:102A10001F4F882319F02EDAF801F7CFEBECF9E01D
:102A200084918F010F5F1F4F882319F023DAF8017B
:102A3000F7CFEAEBF9E084918F010F5F1F4F8823F6
:102A400019F018DAF801F7CFECE9F9E084918F0179
:102A50000F5F1F4F882319F00DDAF801F7CFE5E873
:102A6000F9E084918F010F5F1F4F882319F002DA7C
:102A7000F801F7CFE0E0F7E084918F010F5F1F4F7F
:102A8000882319F0F7D9F801F7CF80913C0D909188
:102A90003D0D8E010F5F1F4F009721F4C801825436
:102AA0009D4004C09801281B390BC9019A83898372
:102AB00069817A8186E799E0BADC60E974E08FE5A4
:102AC00099E0B5DC8AE0D6D981E0809387078093CE
:102AD00088078093890780938A070E94B73280E035
:102AE0000E94C82F8CE0E2EBF4E0AAECB4E0019085
:102AF0000D928A95E1F7A8D8249A8091010180620D
:102B0000809301018091010180648093010187ED30
:102B100080937A0010927E0010927D0080917D005B
:102B2000806280937D0080917D00806480937D0031
:102B300080E888BD80916E00846080936E006AEFAB
:102B400070E080E090E00E94782B85E090E0909328
:102B50004D0C80934C0C80913F02909140020E945A
:102B6000D84120E030E040EA50E40E94056787FF4A
:102B70000AC080913F02909140024097909340029A
:102B800080933F02E8CF87ED90E090933C028093E2
:102B90003B028091500C9091510C0E94D84120E052
:102BA00030E047E553E40E942C6D181654F48091F0
:102BB000500C9091510C40969093510C8093500C76
:102BC000E8CF80913D0290913E020E94482520E08E
:102BD00030E040EA50E40E94056787FF0AC0809118
:102BE0003D0290913E02409790933E0280933D02B9
:102BF000E8CF80914E0C90914F0C0E94482520E028
:102C000030E04CE852E40E942C6D181654F4809188
:102C10004E0C90914F0C409690934F0C80934E0C1D
:102C2000E8CF98E288E10FB6F894A8958093600009
:102C30000FBE90936000819A879A80910A0182600A
:102C400080930A010E9A3B9A579A5F9A829A8A9ABF
:102C5000809107018160809307019FB7F89480916C
:102C600008018160809308019FBF0A9A129A3F9AD7
:102C7000479A6D98759A809104018D7F8093040125
:102C80009FB7F894809105018260809305019FBFF2
:102C900053985B9A809A88985F9A10922F04869A2C
:102CA0008E988A9A1092300480910A0188608093ED
:102CB0000A019FB7F89480910B01877F80930B01E5
:102CC0009FBF9FB7F89480910801816080930801AD
:102CD0009FBF109231040C9A1498129A399A419815
:102CE000809181008F7E8093810080918100886037
:102CF00080938100809180008D7F809380008091FF
:102D000080008E7F80938000809180008F738093FD
:102D10008000809180008F7C809380008091810072
:102D2000887F82608093810080E090E490938900A6
:102D300080938800109285001092840080916F002B
:102D4000826080936F0081E080930E02789441D47A
:102D50000E94C12188E0E7E0F3E0DE01599601908E
:102D60000D928A95E1F788E0EFE0F3E0DE015196FD
:102D700001900D928A95E1F788E0E7E1F3E0DE014A
:102D8000199601900D928A95E1F788E0EFE1F3E062
:102D9000D80101900D928A95E1F7BE01675E7F4FE1
:102DA00080E00E94D542BE016F5E7F4F81E00E94AD
:102DB000D542BE01675F7F4F82E00E94D542B801D5
:102DC00083E00E94D5428EEC9CE00E94852CEEE5CB
:102DD000F9E09F012E5539408491882311F03196F6
:102DE000F8CF88E090E0821B930B97FD01968C0151
:102DF0001595079560E0802F0E94904280E00E9428
:102E0000B3438FE399E00E94932181E00E94B34392
:102E100061E0802F0E94904286E399E00E94932116
:102E20008EE599E00E94932162E0802F0E949042FB
:102E300082E00E94B3438FE299E00E94932183E0F5
:102E40000E94B34363E080E00E94904211E1115080
:102E500031F060E28EEC9CE00E947E2CF8CFE2E53F
:102E6000F9E09F01225539408491882311F0319671
:102E7000F8CF80E190E0821B930B97FD019695952A
:102E8000879563E00E94904286E499E00E94932136
:102E900000E010E062E370E080E090E00E94782BB8
:102EA0000E9409260F5F1F4F0732110599F762E351
:102EB00070E080E090E00E94782B0E94A3210E94A5
:102EC000C121A0960FB6F894DEBF0FBECDBFDF9133
:102ED000CF911F910F91FF90EF9008955F9AEFE2CD
:102EE000F4E010828A9A11829FB7F894A8E0B1E0CA
:102EF0008C9181608C939FBF1282129A08958C01ED
:102F0000E4EAF6E08491EF012196882321F00E9403
:102F10003A0FFE01F7CFEFE0F9E08491EF0121963F
:102F2000882321F00E943A0FFE01F7CF0E94C121B1
:102F300061E0C8010E948C2C60E080E00E94904219
:102F40000E94A54262E080E00E94904282E099E007
:102F50000E94932164EF71E080E090E00E94782B62
:102F6000F8940E941B22BADFA895FECF4F925F9281
:102F70006F927F928F929F92AF92BF92CF92DF9289
:102F8000EF92FF920F931F93CF93DF930E94A12C98
:102F90000E94B02B6B017C0180910902882309F407
:102FA00065C08091E3049091E404009709F45EC049
:102FB00040918B0750918C0760918D0770918E071F
:102FC00097018601041B150B260B370B37FD61C0DB
:102FD0008330910509F134F401970CF447C0E0E027
:102FE000F7E006C0049709F041C0E0E0F7E02AC02E
:102FF0008491EF012196882321F00E943A0FFE016F
:10300000F7CFE7EEF8E08491EF012196882371F184
:103010000E943A0FFE01F7CFE0E0F7E08491EF0164
:103020002196882321F00E943A0FFE01F7CFE0EDB0
:10303000F8E08491EF0121968823C1F00E943A0FB5
:10304000FE01F7CF8491EF012196882321F00E94A1
:103050003A0FFE01F7CFE8EBF8E08491EF012196FB
:10306000882321F00E943A0FFE01F7CF2091090238
:1030700030E0A8EEB3E00E94F66AC60ED71EE81E46
:10308000F91EC0928B07D0928C07E0928D07F092C8
:103090008E0780918606843008F41AD80E94B02BDF
:1030A000C0903204D0903304E0903404F0903504A2
:1030B000C114D104E104F104B9F00091FE031091B0
:1030C000FF0320910004309101040C0D1D1D2E1DE5
:1030D0003F1D6B017C01C01AD10AE20AF30AF7FC1A
:1030E00003C089EF98E00BDFC0900A02D0900B027A
:1030F000E0900C02F0900D02C114D104E104F1043F
:10310000D9F00091FE031091FF032091000430914B
:1031100001040C0D1D1D2E1D3F1DDC01CB01801B6C
:10312000910BA20BB30BB7FD07C090910A0D8091D4
:103130000B0D981709F436C160912D0490910A0D7A
:1031400080910B0D981791F0E0910B0D09E4E09F31
:10315000F0011124E652F84F608180910B0D90919F
:103160000A0D891719F08F5F8F70F9CF70E089E031
:103170000E94B12A80912204882309F4FDC00091A5
:10318000050210910602D0910702C09108026091D9
:10319000C80C7091C90C072E000C880B990B0E946B
:1031A0000B6720E030E040E050E40E94066B98019D
:1031B0004D2F5C2F0E94056787FDDEC0F0900B0D40
:1031C000912CA12CB12CE12C89E4882E80910A0D40
:1031D000F81609F45CC08F2D90E0889EF001899E5E
:1031E000F00D1124ED56F84F4281538164817581B1
:1031F000452B462B472B81F446815781608571858D
:10320000452B462B472B41F44285538564857585B4
:10321000452B462B472BB1F1889E9001899E300D9E
:103220001124C9018D56984F6C01FC016685778584
:10323000808991890E940B672B013C01F60162890C
:103240007389848995890E9409679B01AC01C30138
:10325000B2010E94E26BF60123A134A145A156A15F
:103260000E946A673B016C019B01AC01692D7A2DBC
:103270008B2D9E2D0E94056787FF04C0962CA72CDE
:10328000BC2CED2C81E08F0D8F70F82E9FCF2091FC
:10329000AF023091B0024091B1025091B202692D5B
:1032A0007A2D8B2D9E2D0E946A679B01AC01B8017F
:1032B0008D2F9C2F0E94066B6B017C0198014D2F76
:1032C0005C2F0E94056787FD14C00091AB0210912E
:1032D000AC02D091AD02C091AE0298014D2F5C2F8F
:1032E000B601C7010E942C6D18161CF08601DE2D58
:1032F000CF2DC0908F07D0909007E0909107F0906D
:10330000920798014D2F5C2FC701B6010E942C6DCA
:103310001816E4F420E037ED43EA5CE3B8018D2FA2
:103320009C2F0E946A674B015C0128E431EE4AE75A
:103330005FE3C701B6010E946A679B01AC01C5014A
:10334000B4010E94066B8B01D82FC92FC801AD2F85
:10335000BC2F80938F0790939007A0939107B09311
:103360009207B8018D2F9C2F0E944A6C7093C90C54
:103370006093C80C0E9488410E9409268CE09DE061
:10338000DF91CF911F910F91FF90EF90DF90CF9041
:10339000BF90AF909F908F907F906F905F904F9075
:1033A0000C94760C5F9A10922F048A9A1092300433
:1033B0009FB7F894809108018160809308019FBFB6
:1033C00010923104129AB8CECF92DF92EF92FF9210
:1033D000C0900F02D0901002E0901102F090120203
:1033E00080915704882351F120E030E0A901C70102
:1033F000B6010E940567882309F12BED3FE049E4FF
:1034000050E4C701B6010E946A6720E030E040E066
:103410005FE30E946A67A70196010E946A6720E045
:1034200030E040E05FE30E946A679B01AC0160E02E
:1034300070E080E89FE30E94E26B04C060E070E00F
:1034400080E89FE360937502709376028093770221
:1034500090937802FF90EF90DF90CF900895CF92F5
:10346000DF92EF92FF92CF93DF93EC01C090BE0406
:10347000D090BF04E090C004F090C104A701960171
:10348000688179818A819B810E94056787FF04C0DA
:10349000C882D982EA82FB82C090C204D090C30461
:1034A000E090C404F090C504A70196016C817D8171
:1034B0008E819F810E94056787FF04C0CC82DD82D8
:1034C000EE82FF82C090C604D090C704E090C8048A
:1034D000F090C904A7019601688579858A859B8546
:1034E0000E94056787FF04C0C886D986EA86FB86E6
:1034F000C0902802D0902902E0902A02F0902B027E
:10350000A7019601688179818A819B810E942C6D37
:10351000181624F4C882D982EA82FB82C0902C0259
:10352000D0902D02E0902E02F0902F02A70196017C
:103530006C817D818E819F810E942C6D181624F4F0
:10354000CC82DD82EE82FF82C0903002D0903102C8
:10355000E0903202F0903302A701960168857985E8
:103560008A859B850E942C6D181624F4C886D986FE
:10357000EA86FB86DF91CF91FF90EF90DF90CF90AE
:103580000895CF93DF930E942F0FE0918506F0E01E
:10359000E957F84F8081882381F0E5EBF8E08491CA
:1035A000EF012196882321F00E943A0FFE01F7CF08
:1035B0008AE0DF91CF910C943A0FDF91CF9108957B
:1035C00090910A0D80910B0D981711F0CFDCF8CF78
:1035D00008958091450C80FF03C089988FEF02C049
:1035E000899A81E0809336028091450C81FF03C067
:1035F0008F9A8FEF02C08F9881E08093370280917D
:10360000450C9FB782FF09C0F89480910B018D7F14
:1036100080930B019FBF8FEF08C0F89480910B013E
:10362000826080930B019FBF81E08093380280917C
:10363000450C83FF03C016988FEF02C0169A81E0F5
:103640008093390208951F920F920FB60F921124A2
:103650000BB60F928F929F92AF92BF92CF92DF9252
:10366000EF92FF920F931F932F933F934F935F938C
:103670006F937F938F939F93AF93BF93EF93FF933A
:10368000CF93DF9300D01F92CDB7DEB780916E004D
:103690008B7F80936E0080916F008D7F80936F0091
:1036A00078948091230C9091240C009771F00197ED
:1036B0009093240C8093230C10924B0C10924A0C84
:1036C0000E946D4488EC90E09BC1E0914A0CF0911F
:1036D0004B0C309709F099C190910A0D80910B0D18
:1036E000981759F0E0910B0D29E4E29FF0011124A5
:1036F000ED56F84F808188608083F0934B0CE09307
:103700004A0C309709F47AC152A18091450C41814D
:1037100058130AC0242F30E080913A02082E000C82
:10372000990B2817390729F05093450C40933A021A
:1037300050DF1092410C1092420C1092430C1092E8
:10374000440CE0914A0CF0914B0C27A930AD213488
:103750004CE9340728F421325EE4350748F002C012
:1037600020E43CE9369527953695279584E007C0F7
:10377000213167E2360730F03695279582E0809355
:10378000400C08C081E08093400C2032310510F4D9
:1037900020E230E0490180E2881A9108811498E023
:1037A0009906F0F0E92DFF27EE0FFF1FEE0FFF1F28
:1037B000CF018E5B914FFC01329645915491B82D0B
:1037C000AA27B59F9001B49F210D3A1F06942A1F86
:1037D0003A1F1124FC0185919491821B930B20C008
:1037E000C401969587958C7F8E5B954FFC01259142
:1037F0003491FC01329665917491A401477055276C
:10380000649FC001659F900D749F900D112443E04B
:10381000969587954A95E1F7F901E81BF90BCF01D9
:103820008436910588F40AEEA02E03E0B02ED5016F
:103830008D915D01882319F00E943A0FF8CFC401E1
:103840000E947C4184E690E090933F0C80933E0C74
:103850008091400C80933D0CE0914A0CF0914B0C10
:1038600023AD34AD30933C0C20933B0C2134BCE9A8
:103870003B0728F42132EEE43E0748F002C020E482
:103880003CE9369527953695279584E007C0213188
:10389000F7E23F0730F03695279582E08093400CA1
:1038A00008C081E08093400C2032310510F420E202
:1038B00030E0490140E2841A9108811458E09506ED
:1038C000F0F0E92DFF27EE0FFF1FEE0FFF1FCF01D6
:1038D0008E5B914FFC01329645915491682DAA2739
:1038E000659F9001649F210D3A1F06942A1F3A1F7D
:1038F0001124FC0185919491821B930B20C0C4017B
:10390000969587958C7F8E5B954FFC012591349120
:10391000FC01329665917491A40147705527649F0C
:10392000C001659F900D749F900D112473E09695D2
:1039300087957A95E1F7D901A81BB90BCD0184369B
:10394000910588F45AEEA52E53E0B52EF50181912C
:103950005F01882319F00E943A0FF8CFC4010E943A
:103960007C4184E690E0AC0160E070E04093370C6D
:103970005093380C6093390C70933A0C90938900F3
:1039800080938800E0914A0CF0914B0C82899389D6
:10399000A489B589B695A79597958795B095A09573
:1039A000909581959F4FAF4FBF4F8093330C90936D
:1039B000340CA093350CB093360C80932F0C90935D
:1039C000300CA093310CB093320C80932B0C90935D
:1039D0002C0CA0932D0CB0932E0C8093270C90935D
:1039E000280CA093290CB0932A0C1092460C10922C
:1039F000470C1092480C1092490C07C080ED97E0DC
:103A0000909389008093880061C480910E0288237E
:103A100009F490C0B090450CB0FE25C09CB18091D7
:103A2000260C95FBCC24C0F88E7FC82AC092260CA9
:103A30008091250C8170C822B1F0E0914A0CF09180
:103A40004B0C82819381A481B581181619061A0640
:103A50001B064CF48091840681608093840680E08C
:103A600090E00E94B228CB2CB1FE30C0209103011F
:103A70008091260C90E021FBEE24E0F8F12CF194EB
:103A8000E194F108E826F926F2E0EF22FF24E82687
:103A9000F926E092260C8091250C8270E822B1F084
:103AA000E0914A0CF0914B0C86819781A085B185FD
:103AB000181619061A061B064CF4809184068260BB
:103AC0008093840681E090E00E94B228C2FE2EC05E
:103AD00029B18091260C90E023FB002700F910E02B
:103AE0001195019511090827192704701127082736
:103AF00019270093260C8091250C84700823B1F0BF
:103B0000E0914A0CF0914B0C82859385A485B58594
:103B1000181619061A061B064CF480918406846058
:103B20008093840682E090E00E94B2288091260C67
:103B30008093250C20E08091400C90E0422F022ED3
:103B4000000C550B481759070CF0ACC1E0914A0C1A
:103B5000F0914B0C4091270C5091280C6091290C4E
:103B600070912A0C82819381A481B581840F951F65
:103B7000A61FB71F8093270C9093280CA093290CA5
:103B8000B0932A0C181619061A061B060CF4889A0C
:103B9000E0914A0CF0914B0C40912B0C50912C0C65
:103BA00060912D0C70912E0C86819781A085B18536
:103BB000840F951FA61FB71F80932B0C90932C0C7E
:103BC000A0932D0CB0932E0C181619061A061B067E
:103BD0000CF48E9AE0914A0CF0914B0C40912F0C12
:103BE0005091300C6091310C7091320C828593852C
:103BF000A485B585840F951FA61FB71F80932F0C32
:103C00009093300CA093310CB093320C1816190617
:103C10001A061B0644F49FB7F89480910B01886044
:103C200080930B019FBFE0914A0CF0914B0C4091A7
:103C3000330C5091340C6091350C7091360C8685A4
:103C40009785A089B189840F951FA61FB71F809300
:103C5000330C9093340CA093350CB093360C18169B
:103C600019061A061B060CF4149A8091270C9091E1
:103C7000280CA091290CB0912A0C181619061A06C6
:103C80001B0684F5E0914A0CF0914B0C4289538954
:103C900064897589841B950BA60BB70B8093270C41
:103CA0009093280CA093290CB0932A0C8091360293
:103CB0004091120450911304609114047091150402
:103CC000082E000C990BAA0BBB0B840F951FA61F87
:103CD000B71F8093120490931304A0931404B0931D
:103CE0001504889880912B0C90912C0CA0912D0C90
:103CF000B0912E0C181619061A061B0684F5E091D1
:103D00004A0CF0914B0C4289538964897589841B54
:103D1000950BA60BB70B80932B0C90932C0CA093B8
:103D20002D0CB0932E0C80913702409116045091C7
:103D300017046091180470911904082E000C990B57
:103D4000AA0BBB0B840F951FA61FB71F80931604E9
:103D500090931704A0931804B09319048E9880913F
:103D60002F0C9091300CA091310CB091320C1816A0
:103D700019061A061B06BCF5E0914A0CF0914B0C93
:103D80004289538964897589841B950BA60BB70BEF
:103D900080932F0C9093300CA093310CB093320C85
:103DA0008091380240911A0450911B0460911C04C8
:103DB00070911D04082E000C990BAA0BBB0B840FED
:103DC000951FA61FB71F80931A0490931B04A093FE
:103DD0001C04B0931D049FB7F89480910B01877F5A
:103DE00080930B019FBF8091330C9091340CA09174
:103DF000350CB091360C181619061A061B0684F5F8
:103E0000E0914A0CF0914B0C428953896489758981
:103E1000841B950BA60BB70B8093330C9093340C3B
:103E2000A093350CB093360C8091390240911E045A
:103E300050911F046091200470912104082E000C01
:103E4000990BAA0BBB0B840F951FA61FB71F80935E
:103E50001E0490931F04A0932004B093210414988F
:103E60008091460C9091470CA091480CB091490C60
:103E70000196A11DB11D8093460C9093470CA09311
:103E8000480CB093490CE0914A0CF0914B0C4289DC
:103E900053896489758984179507A607B70720F4A5
:103EA0002F5F49CEB12C02C0BB24B3944091460C85
:103EB0005091470C6091480C7091490CE0904A0C6D
:103EC000F0904B0CF70186899789A08DB18D8417EE
:103ED0009507A607B70708F4DCC04091370C50914E
:103EE000380C6091390C70913A0C068D178D20A119
:103EF00031A1AA27419FB12D529FC001629F900D11
:103F0000619F800D911D429FB00D811D9A1F519F91
:103F1000B00D811D9A1F609FB00D811D9A1F509F8B
:103F2000B10D8A1F9A1FB6958A1F9A1F349F800D64
:103F3000911D359F900D112423AD34AD820F931F39
:103F400090933C0C80933B0C47A950AD61AD72AD92
:103F5000A0E0B0E0481759076A077B0720F45093A8
:103F60003C0C40933B0C80913B0C90913C0C813479
:103F7000BCE99B0728F48132EEE49E0748F002C0BA
:103F800080E49CE9969587959695879524E007C0EF
:103F90008131F7E29F0730F09695879522E02093D4
:103FA000400C08C021E02093400C8032910510F4B1
:103FB00080E290E08C0100521109011528E01207FF
:103FC000D8F0E12FFF27EE0FFF1FEE0FFF1FCF01ED
:103FD0008E5B914FFC01329645915491AA27059F23
:103FE0009001049F210D3A1F06942A1F3A1F1124A5
:103FF000FC01859194911CC09801369527952C7FE2
:104000002E5B354FF90185919491F90132966591B6
:104010007491A80147705527649F9001659F300DEA
:10402000749F300D1124B3E036952795BA95E1F7CA
:10403000821B930B8436910588F4FAEEEF2EF3E0A1
:10404000FF2ED7018D917D01882319F00E943A0F30
:10405000F8CFC8010E947C4184E690E090938900EB
:10406000809388004091370C5091380C6091390C46
:1040700070913A0C8A019B01080F191F211D311DF7
:104080000093370C1093380C2093390C30933A0C72
:1040900000C14091460C5091470C6091480C7091C2
:1040A000490CF701828D938DA48DB58D84179507EA
:1040B000A607B70708F0E1C02091410C3091420CEF
:1040C0004091430C5091440C29833A834B835C8389
:1040D000468D578D60A171A109811A812B813C8188
:1040E000AA27059FB12D169F6001269FD00C259F02
:1040F000C00CD11C069FB00DC11CDA1E159FB00D5F
:10410000C11CDA1E249FB00DC11CDA1E149FB10D14
:10411000CA1EDA1EB695CA1EDA1E709FC00CD11CCC
:10412000719FD00C112480913B0C90913C0CFF9618
:10413000C816D90680F48C199D094081518162818D
:1041400073816C01E12CF12CC416D506E606F70646
:1041500020F4CA0102C08081918181341CE9910759
:1041600028F481322EE4920748F002C080E49CE9F2
:10417000969587959695879524E007C0813137E21B
:10418000930730F09695879522E02093400C08C065
:1041900021E02093400C8032910510F480E290E001
:1041A0008C0100521109011548E01407E8F0E12FD5
:1041B000FF27EE0FFF1FEE0FFF1FCF018E5B914F0A
:1041C000FC01329645915491AA27059F9001049FC6
:1041D000210D3A1F06942A1F3A1F1124FC018591D4
:1041E0009491821B930B20C0C801969587958C7F74
:1041F0008E5B954FFC0125913491FC0132966591BF
:104200007491A80147705527649FC001659F900D68
:10421000749F900D112443E0969587954A95E1F798
:10422000D901A81BB90BCD018436910588F48AEE1B
:10423000E82E83E0F82EF70181917F01882319F0A1
:104240000E943A0FF8CFC8010E947C4184E690E0BA
:10425000909389008093880029813A814B815C8109
:10426000280F391F411D511D2093410C3093420CE2
:104270004093430C5093440C0CC080913E0C9091A1
:104280003F0C909389008093880080913D0C80932F
:10429000400C209188003091890080918400909199
:1042A000850040962817390748F480918400909142
:1042B000850040969093890080938800BB2031F060
:1042C00010924B0C10924A0C0E946D4480916E002B
:1042D000846080936E0080916F00826080936F0095
:1042E0000F900F900F900F90DF91CF91FF91EF9172
:1042F000BF91AF919F918F917F916F915F914F91FE
:104300003F912F911F910F91FF90EF90DF90CF90F1
:10431000BF90AF909F908F900F900BBE0F900FBEED
:104320000F901F901895CF93DF93EC01FE016491DD
:10433000662331F08EEC9CE00E947E2C2196F6CF15
:10434000DF91CF9108956CE672E080E00E94D54243
:1043500064E672E081E00E94D5426CE572E082E0A2
:104360000E94D54264E572E086E00E94D5426CE48A
:1043700072E087E00E94D54264E472E083E00C942E
:10438000D54262E08EEC9CE00E940343DCDF8EECC1
:104390009CE00C94852CCF92DF92EF92FF92C0901C
:1043A0002704D0902804E0902904F0902A048091FA
:1043B0002B0490912C04BC01990F880B990B0E943F
:1043C0000B6720E030E040EC50E40E94056B9B015D
:1043D000AC01C701B6010E94056787FF1FC020E03E
:1043E00030E040E050E4C701B6010E94066B0E9435
:1043F0004A6C7093820C6093810C0E94B02BDC019C
:10440000CB01805A9541AF4FBF4F80937D0C909365
:104410007E0CA0937F0CB093800C08C010927D0C92
:1044200010927E0C10927F0C1092800CFF90EF90F7
:10443000DF90CF9008951092C90C1092C80C0E9482
:10444000884110922C0410922B04A5DF0E94774221
:104450001092C90C1092C80C0E9488411092A404BA
:104460002C9810922C0410922B041092520C9FB78F
:10447000F894E2E0F1E080818F7D80839FBF089512
:10448000CF92DF92EF92FF920F931F93CF93DF9320
:104490001F921F92CDB7DEB77C018A018091340252
:1044A000882309F443C0E4EAF6E084916F019FEFAA
:1044B000C91AD90A882341F069837A830E943A0F86
:1044C000F60169817A81F1CFFB0184916F019FEF41
:1044D000C91AD90A882321F00E943A0FF601F5CFB4
:1044E000E7E4F2E184916F019FEFC91AD90A8823AA
:1044F00021F00E943A0FF601F5CFF7FC0AC0B70190
:10450000FF0C880B990B0E94E80F8AE00E943A0F7B
:104510000DC0E2E4F2E184917F019FEFE91AF90A0C
:10452000882321F00E943A0FF701F5CF8091530CB8
:10453000811108C01092340281E08093530CC801AD
:104540000E947F170F900F90DF91CF911F910F91D5
:10455000FF90EF90DF90CF906ECF1F920F920FB62B
:104560000F9211240BB60F922F933F934F935F93AB
:104570006F937F938F939F93AF93BF93CF93DF936B
:10458000EF93FF9380916E008B7F80936E00789401
:104590008091430281111CC08091A4048093A50CDA
:1045A000882311F02C9A01C02C988091520C809392
:1045B000A40C9FB7882329F0F894809102018062AF
:1045C00004C0F894809102018F7D809302019FBF07
:1045D0009091A50C80914302981708F42C98909123
:1045E000A40C80914302981740F49FB7F8948091EF
:1045F00002018F7D809302019FBF809143028F5FF4
:104600008F7780934302E0914102F0914202ED30B6
:10461000F10508F07FC08827EE58FF4F8F4F0C94AC
:104620000D6E88E080937B0085E480937C00809110
:104630007A00806480937A0081E090E01AC0209133
:104640007800309179008091940C9091950CA09114
:10465000960CB091970C820F931FA11DB11D8093F2
:10466000940C9093950CA093960CB093970C82E0C9
:1046700090E090934202809341024CC088E0809386
:104680007B0086E480937C0080917A008064809334
:104690007A0083E090E0EDCF2091780030917900AE
:1046A0008091900C9091910CA091920CB091930CF0
:1046B000820F931FA11DB11D8093900C9093910CBC
:1046C000A093920CB093930C84E090E0D2CF85E05D
:1046D00090E0CFCF86E090E0CCCF87E090E0C9CFEC
:1046E00088E090E0C6CF89E090E0C3CF8AE090E018
:1046F000C0CF8BE090E0BDCF1092420210924102F9
:1047000080918F0C8F5F80938F0C04C010924202B7
:104710001092410280918F0C803108F4B5C0109244
:104720008F0C8091A304811113C08091940C9091FF
:10473000950C90938E0C80938D0C8091900C9091A1
:10474000910C90938C0C80938B0C81E08093A3044C
:1047500080E1E4E9FCE0DF011D928A95E9F710921F
:10476000900C1092910C1092920C1092930CC0919C
:104770008D0CD0918E0CD195C195D1098091500CA2
:104780009091510C9195819591098C179D07C4F4D6
:104790006091C80C7091C90C072E000C880B990B06
:1047A0000E940B6720E030E0A9010E942C6D1816D2
:1047B0003CF449EF52E166E073E180E090E060DEB6
:1047C00080913F0290914002919581959109C8177F
:1047D000D907C4F46091C80C7091C90C072E000C65
:1047E000880B990B0E940B6720E030E0A9010E9422
:1047F0002C6D18163CF449E253E166E373E180E066
:1048000090E03EDEC0918B0CD0918C0C80914E0CD0
:1048100090914F0C8C179D07C4F060912B04709100
:104820002C04072E000C880B990B0E940B6720E0CC
:1048300030E0A9010E942C6D18163CF448EE52E1BC
:1048400066E073E18FEF9FEF1BDE80913D02909158
:104850003E02C817D907C4F060912B0470912C0454
:10486000072E000C880B990B0E940B6720E030E0AC
:10487000A9010E942C6D18163CF448E153E166E34F
:1048800073E18FEF9FEFFCDD80916E008460809379
:104890006E00FF91EF91DF91CF91BF91AF919F910A
:1048A0008F917F916F915F914F913F912F910F90D9
:1048B0000BBE0F900FBE0F901F9018952F923F9236
:1048C0004F925F926F927F928F929F92AF92BF9220
:1048D000CF92DF92EF92FF920F931F93CF93DF93CC
:1048E00000D000D0CDB7DEB71C017A8369832B835B
:1048F0003C834D835E8327013801D7FC02C0C6018B
:1049000002C081E090E07C01EE0CFF1CEE0CFF1C6D
:1049100087010D57134FA3019201F8016081718146
:10492000828193810E9405678823A9F0F801408263
:1049300051826282738201E010E020E030E0A90140
:10494000C301B2010E942C6D181614F000E010E0B3
:10495000F10111830083F101808191818230910501
:10496000D9F08330910509F45CC0019709F077C054
:10497000F701ED57F34F20813181428153816B81E3
:104980007C818D819E810E94056787FD68C082E0E1
:1049900090E0F1019183808387010D57134FB4019B
:1049A000990C880B990B0E940B679B01AC01F801D5
:1049B00060817181828193810E94056B9B01AC01B2
:1049C0006B817C818D819E810E942C6D87FD15C03D
:1049D000C7D66B017C0128EE33E0D5010E94156E2D
:1049E000DC01CB018C0D9D1DAE1DBF1DE981FA813F
:1049F00080839183A283B38332C0B2D6E981FA81E6
:104A00000081118122813381DC01CB01801B910B5C
:104A1000A20BB30BB7FD23C083E090E0F1019183BB
:104A2000808348EC52E168ED72E1C60126960FB62C
:104A3000F894DEBF0FBECDBFDF91CF911F910F91D4
:104A4000FF90EF90DF90CF90BF90AF909F908F90AE
:104A50007F906F905F904F903F902F9011CD269652
:104A60000FB6F894DEBF0FBECDBFDF91CF911F917F
:104A70000F91FF90EF90DF90CF90BF90AF909F90FD
:104A80008F907F906F905F904F903F902F90089500
:104A90002F923F924F925F926F927F928F929F924E
:104AA000AF92BF92CF92DF92EF92FF920F931F933C
:104AB000CF93DF93EC0148E057E181E090E0FA0109
:104AC00025913491C217D3070CF05DC09C01215091
:104AD0003109220F331F220F331FD901AA5FB84EAD
:104AE000FD01659174912C5F384EF901A590B49049
:104AF000FC01EE0FFF1FEE0FFF1FEA5FF84EE5907F
:104B0000F490FD01C590D490FA0105911491F9013A
:104B100025903490072E000C880B990B0E940B6790
:104B20002B013C01CA19DB09BE01DD0F880B990B73
:104B30000E940B674B015C01B7016C197D09072EC0
:104B4000000C880B990B0E940B679B01AC01C501FF
:104B5000B4010E946A676B017C01B8016219730994
:104B6000072E000C880B990B0E940B679B01AC0170
:104B7000C701B6010E94E26B9B01AC01C301B20107
:104B80000E94066B11C001964C5F5F4F8D339105FB
:104B900009F095CFE6EFF7E165917491072E000CCF
:104BA000880B990B0E940B67DF91CF911F910F919A
:104BB000FF90EF90DF90CF90BF90AF909F908F903D
:104BC0007F906F905F904F903F902F9008958091CD
:104BD0008D0C90918E0C0E94D8416093CA0C7093FA
:104BE000CB0C8093CC0C9093CD0C80918B0C90913E
:104BF0008C0C4EDF60932704709328048093290463
:104C000090932A04A8958FB7F8941092A3048FBFAD
:104C100008952F923F924F925F926F927F928F9260
:104C20009F92AF92BF92CF92DF92EF92FF920F933B
:104C30001F93CF93DF93CDB7DEB72C970FB6F894C1
:104C4000DEBF0FBECDBF8091A304882309F471C2DB
:104C5000BEDF86D569837A838B839C836091C80C81
:104C60007091C90C072E000C880B990B0E940B67E2
:104C70002091CA0C3091CB0C4091CC0C5091CD0CB2
:104C800004E0802E912CE8E2AE2EB12CC12CD12C68
:104C90007B018C0167E77CE08BE79CE00FDE609096
:104CA000C80C7090C90C2090CA0C3090CB0C40906E
:104CB000CC0C5090CD0CB301072C000C880B990B39
:104CC0000E940B67A20191010E94056B4B015C01E0
:104CD0006093690C70936A0C80936B0C90936C0CCE
:104CE00020ED3CEC4CE45DE360911C0270911D02F0
:104CF00080911E0290911F020E946A676B017C01E5
:104D00002091650C3091660C4091670C5091680CB5
:104D1000C201B1010E94056B9B01AC01C701B60144
:104D20000E946A676B017C0123E333E343E75FE39F
:104D30006091610C7091620C8091630C9091640C95
:104D40000E946A679B01AC01C701B6010E94066B15
:104D500069877A878B879C876093610C7093620C5C
:104D60008093630C9093640C2092650C3092660CD7
:104D70004092670C5092680C20E030E040E251E431
:104D8000C501B4010E942C6D181624F481E08093B3
:104D9000600C8DC020E030E040E251ECC501B40170
:104DA0000E94056787FD02C0672821F481E0809397
:104DB000600CA3C08091600C882351F010925C0CB1
:104DC00010925D0C10925E0C10925F0C1092600CB1
:104DD0002091240230912502409126025091270211
:104DE000C501B4010E946A676B017C016093580C95
:104DF0007093590C80935A0C90935B0C20915C0C2F
:104E000030915D0C40915E0C50915F0CC501B40176
:104E10000E94066B6D837E838F83988760935C0C02
:104E200070935D0C80935E0C90935F0C2091200238
:104E30003091210240912202509123020E946A6720
:104E40009B01AC016093540C7093550C8093560CED
:104E50009093570CC701B6010E94066B29853A85CD
:104E60004B855C850E94056B6B017C0120E030E086
:104E70004FE753E40E942C6D20E030E0A9011816A2
:104E8000ECF4C501B4010E942C6D181684F4A50140
:104E900094016D817E818F8198850E94056B60935E
:104EA0005C0C70935D0C80935E0C90935F0CC12C36
:104EB000D12C1FE7E12E13E4F12E22C0C701B60169
:104EC0000E94056787FF1CC020E030E0A901C501F2
:104ED000B4010E94056787FF10C0A50194016D8190
:104EE0007E818F8198850E94056B60935C0C709326
:104EF0005D0C80935E0C90935F0CC12CD12C7601DD
:104F000060914C0C70914D0C072E000C880B990B86
:104F10000E940B679B01AC01C201B1010E942C6D84
:104F20001816CCF460913B0270913C02072E000CE5
:104F3000880B990B0E940B679B01AC01C201B10168
:104F40000E94056787FF07C0C701B6010E944A6C2F
:104F50007595679501C060E06093A4048091C20CD0
:104F60009091C30CA091C40CB091C50C0097A10501
:104F7000B10531F129813A814B815C81281B390BC4
:104F80004A0B5B0B57FD1CC06091C60C7091C70C9F
:104F9000072E000C880B990B0E940B679B01AC013C
:104FA000C201B1010E94056787FF08C043E852E1D2
:104FB00062E972E180E090E063DA02C00E94884119
:104FC00080917D0C90917E0CA0917F0CB091800C13
:104FD0000097A105B10559F129813A814B815C8186
:104FE000281B390B4A0B5B0B57FD21C06091810CCC
:104FF0007091820C072E000C880B990B0E940B6796
:105000009B01AC01609127047091280480912904D0
:1050100090912A040E94056787FF08C045E652E187
:1050200064E772E18FEF9FEF2BDA01C0B4D9809172
:10503000730C9091740CA091750CB091760C298131
:105040003A814B815C81281B390B4A0B5B0B57FD66
:1050500070C089819A81AB81BC8188579C4EAF4FCB
:10506000BF4F8093730C9093740CA093750CB09306
:10507000760C60912B0470912C04072E000C880B89
:10508000990B0E940B6720912704309128044091CE
:10509000290450912A04E2E08E2E912CF4E1AF2EE7
:1050A000B12CCC24CA94DC2C7B018C016DE67CE015
:1050B00081E79CE003DCC0902704D0902804E090B6
:1050C0002904F0902A0420E030E040EA50E4C701CF
:1050D000B6010E942C6D181614F520E030E04CE863
:1050E00052E4C701B6010E94056787FF18C06091AE
:1050F0002B0470912C04072E000C880B990B0E9436
:105100000B679B01AC01C701B6010E94056787FDD3
:1051100002C080E001C08FE78093520C0AC0109259
:10512000520C9FB7F894809102018F7D8093020109
:105130009FBF2C960FB6F894DEBF0FBECDBFDF9198
:10514000CF911F910F91FF90EF90DF90CF90BF9084
:10515000AF909F908F907F906F905F904F903F9017
:105160002F900895880F991F880F991FFC01EE5EFC
:10517000FB4F4081518162817381FC01E858F94FF6
:105180004083518362837383E0914A0CF0914B0C0E
:1051900082899389A489B5898093460C9093470CA2
:1051A000A093480CB093490C0895CF93DF932FB789
:1051B000F894EC01CC0FDD1FCC0FDD1FFE01EE5E7D
:1051C000FB4F60817181828193812FBF0E940B67A9
:1051D000C859D94F288139814A815B810E946A6709
:1051E000DF91CF910895CF92DF92EF92FF920F93CC
:1051F0001F93CF93DF936C017A018B01C0E0D0E065
:10520000CE15DF0589F0D8016D918D01D601ED91A4
:10521000FC910190F081E02DC6011995892B11F4C4
:105220007E0102C02196ECCFC701DF91CF911F9183
:105230000F91FF90EF90DF90CF90089590E0FC01E8
:105240003197E231F10508F04EC08827E158FF4F51
:105250008F4F0C940D6E809180008F7703C08091EA
:1052600080008F7D80938000089580918000877FEB
:10527000F9CF84B58F7702C084B58F7D84BD089542
:105280008091B0008F7703C08091B0008F7D8093B4
:10529000B0000895809190008F7707C080919000B2
:1052A0008F7D03C080919000877F80939000089548
:1052B0008091A0008F7707C08091A0008F7D03C0F0
:1052C0008091A000877F8093A000089580912001A5
:1052D0008F7707C0809120018F7D03C080912001CE
:1052E000877F8093200108953FB7F8948091B80C90
:1052F0009091B90CA091BA0CB091BB0C26B5A89BAB
:1053000005C02F3F19F00196A11DB11D3FBFBA2F57
:10531000A92F982F8827820F911DA11DB11DBC01B7
:10532000CD0142E0660F771F881F991F4A95D1F77C
:105330000895FC011092AD0C808191812AE030E04B
:10534000B9010E94DE6D805D8093AC0C80819181FB
:105350008A309105ECF0B9010E94DE6DCB01B901F4
:105360000E94DE6D805D8093AB0C808191818436DC
:1053700091058CF064E670E00E94DE6DCB01B9010E
:105380000E94DE6D805D8093AA0C8AEA9CE00895FD
:105390008CEA9CE008958BEA9CE00895FC01208152
:1053A000318137FD0FC0243631058CF0C90164E628
:1053B00070E00E94DE6DCB016AE070E00E94DE6D5D
:1053C000805D06C03195219531098DE201C080E2F2
:1053D0008093AA0C2A30310564F0EAE0F0E0C901BC
:1053E000BF010E94DE6DCB01BF010E94DE6D805DBA
:1053F00001C080E28093AB0CC9016AE070E00E94BA
:10540000DE6D805D8093AC0C1092AD0C8AEA9CE05E
:1054100008950E941B6ECF93DF93282F30E0F9018F
:10542000EE5DFB4E8491F901E452FC4ED491F901FA
:10543000EA56FC4EC491CC2389F08111FFDEEC2F9B
:10544000F0E0EE0FFF1FE458FC4EA591B491EC91F3
:10545000ED2381E090E021F480E002C080E090E064
:10546000DF91CF9108951F93CF93DF93282F30E0E2
:10547000F901EE5DFB4E8491F901E452FC4ED491AA
:10548000F901EA56FC4EC491CC23C1F0162F8111CC
:10549000D5DEEC2FF0E0EE0FFF1FEE59FC4EA5918C
:1054A000B4918FB7F894111105C09C91ED2FE09540
:1054B000E92302C0EC91ED2BEC938FBFDF91CF91EC
:1054C0001F910895CF93DF93EC0160E08E81CBDFD5
:1054D00061E08E81C8DF60E08E81C5DF8BE891E0FE
:1054E0000197F1F7DF91CF910895CF93DF9390E08B
:1054F000FC01E452FC4E2491FC01EA56FC4E8491DE
:10550000882361F190E0880F991FFC01E85BFC4E55
:10551000C591D491FC01EE59FC4EA591B491611155
:1055200009C09FB7F8948881209582238883EC91E5
:105530002E230BC0623061F49FB7F8943881822F1C
:10554000809583238883EC912E2B2C939FBF06C0DC
:105550008FB7F894E8812E2B28838FBFDF91CF91EE
:1055600008951F93CF93DF93182FEB0161E0BDDF08
:10557000209711F460E004C0CF3FD10531F461E021
:10558000812FDF91CF911F916ECFE12FF0E0EE5D83
:10559000FB4EE4914E2F50E0FA013197E231F105D4
:1055A00008F09DC08827EF56FF4F8F4F0C940D6E6B
:1055B00084B5806884BDC7BD97C084B5806284BD52
:1055C000C8BD92C080918000806880938000D09395
:1055D0008900C093880088C0809180008062809399
:1055E0008000D0938B00C0938A007EC080918000A1
:1055F000886080938000D0938D00C0938C0074C02D
:105600008091B00080688093B000C093B3006CC0FC
:105610008091B00080628093B000C093B40064C0F9
:1056200080919000806880939000D0939900C093FF
:1056300098005AC080919000806280939000D0932F
:105640009B00C0939A0050C0809190008860809326
:105650009000D0939D00C0939C0046C08091A00014
:1056600080688093A0008091A0008F7B8093A00031
:10567000D093A900C093A80037C08091A000806299
:105680008093A000D093AB00C093AA002DC080915E
:10569000A00088608093A000D093AD00C093AC00C0
:1056A00023C080912001806880932001D09329013C
:1056B000C093280119C0809120018062809320014D
:1056C000D0932B01C0932A010FC0809120018860E4
:1056D00080932001D0932D01C0932C0105C0C038C8
:1056E000D1050CF04CCF46CFDF91CF911F9108959B
:1056F0008F929F92AF92BF92CF92DF92EF92FF92E2
:105700006B017C01F1DD4B015C01C114D104E104AA
:10571000F104E9F0E9DDDC01CB0188199909AA0956
:10572000BB09883E9340A105B10578F321E0C21A78
:10573000D108E108F10888EE880E83E0981EA11CCC
:10574000B11CC114D104E104F10421F7DECFFF90B4
:10575000EF90DF90CF90BF90AF909F908F90089583
:105760002FB7F8946091B40C7091B50C8091B60C81
:105770009091B70C2FBF08951F920F920FB60F9202
:1057800011242F933F938F939F93AF93BF93809157
:10579000B40C9091B50CA091B60CB091B70C3091AF
:1057A000B30C23E0230F2D3720F40196A11DB11D6A
:1057B00005C026E8230F0296A11DB11D2093B30C4E
:1057C0008093B40C9093B50CA093B60CB093B70C27
:1057D0008091B80C9091B90CA091BA0CB091BB0C0F
:1057E0000196A11DB11D8093B80C9093B90CA093A4
:1057F000BA0CB093BB0CBF91AF919F918F913F9129
:105800002F910F900FBE0F901F901895CF92DF929F
:10581000EF92FF920F931F93CF93DF937C016C0164
:1058200087E0C80ED11CC0E0D0E0062F10E0B80120
:105830000C2E02C0759567950A94E2F76170F60127
:1058400081916F0110DE2196C430D10581F7C70127
:10585000DF91CF911F910F91FF90EF90DF90CF904C
:1058600031CECF92DF92EF92FF920F931F93CF939F
:10587000DF93EC01F62E642F8C81F5DD8D818F3F57
:1058800011F060E0F0DD8F850F2D10E084FF23C064
:105890006E0187E0C80ED11CE12CF12CB8010E2C52
:1058A00002C0759567950A94E2F76170F6018191DF
:1058B0006F01D9DDFFEFEF1AFF0A88E0E816F10467
:1058C00069F7CE01DF91CF911F910F91FF90EF907B
:1058D000DF90CF90F7CDB80184E0759567958A95F4
:1058E000E1F7CE0193DF6F2DCE01DF91CF911F91B4
:1058F0000F91FF90EF90DF90CF9088CF41E0B1DF24
:1059000081E090E0089540E0ACCF61E0FCDF8BE304
:105910009FE10197F1F708959C018091C10C6817F0
:1059200078F0962FB9019093C10C40E350E08AE7DC
:1059300092E00E94AD660E94B64283E080937902B5
:105940000895CF92DF92EF92FF920F931F93CF9320
:10595000DF931F921F92CDB7DEB702DF0091A60C36
:105960001091A70C2091A80C3091A90C6B017C011F
:10597000C01AD10AE20AF30AF7FCB5C0DC01CB0178
:105980008C599F4FAF4FBF4F8093A60C9093A70C9D
:10599000A093A80CB093A90C80917402882321F0E5
:1059A00081508093740206C089E08093740281E084
:1059B0008093790280917902882309F483C0823030
:1059C00050F0843028F0843031F41092790203C012
:1059D00081E08093790260E080E00E94904220E0C4
:1059E00030E040E05FE36091CA0C7091CB0C809195
:1059F000CC0C9091CD0C0E94066B0E944A6C7A836D
:105A00006983CE010196CADC0E94A1438FE20E9405
:105A1000B3436091C80C7091C90C072E000C880B21
:105A2000990B0E940B6720E030E040E05FE30E94AA
:105A3000066B0E944A6C7A836983CE01019679DCF9
:105A40000E94A14360E088E00E94904280E00E94B2
:105A5000B34320E030E040E05FE3609127047091C1
:105A600028048091290490912A040E94066B0E94C8
:105A70004A6C7A836983CE01019690DC0E94A1432F
:105A80008FE20E94B34360912B0470912C04072E87
:105A9000000C880B990B0E940B6720E030E040E07F
:105AA0005FE30E94066B0E944A6C7A836983CE0191
:105AB00001963FDC0E94A14361E080E00E94904299
:105AC0000E94A54280917902823051F0833029F002
:105AD000813049F41092790206C08EEC9CE015DF0B
