:100000000C94C10B0C94F20B0C94F20B0C94F20BAD
:100010000C94F20B0C94F20B0C94F20B0C94F20B6C
:100020000C94F20B0C94F20B0C94F20B0C94F20B5C
:100030000C94F20B0C94F20B0C94F20B0C94F20B4C
:100040000C94F20B0C941F480C94F20B0C94F20BD2
:100050000C94F20B0C94F20B0C943A520C94C05981
:100060000C94F20B0C945E300C94F20B0C94F20B8B
:100070000C94F20B0C94F20B0C94F20B0C94F20B0C
:100080000C94F20B0C94F20B0C94F20B0C94F20BFC
:100090000C94F20B0C94F20B0C94F20B0C94F20BEC
:1000A0000C94F20B0C94F20B0C94F20B0C94F20BDC
:1000B0000C94F20B0C94F20B0C94F20B0C94F20BCC
:1000C0000C94F20B0C94F20B0C94F20B0C94F20BBC
:1000D0000C94F20B0C94F20B0C94F20B0C94F20BAC
:1000E0000C94F20B2C572F571E5722572857665740
:1000F000335737573D57415745574B574F5753572E
:10010000665759575D57615756585B5860586A583B
:100110007458ED587E5886588E589858A258AC5846
:10012000BB58C558ED58CF58D958E358084AD73B63
:100130003BCE016E84BCBFFDC12F3D6C74319ABDB6
:1001400056833DDA3D00C77F11BED9E4BB4C3E91DA
:100150006BAAAABE000000803F05A84CCDB2D44EC9
:10016000B93836A9020C50B9918688083CA6AAAACB
:100170002ABE000000803F000C9441570C94865822
:100180000C9428570C945B580C946A580C94A25801
:100190000C9491600C9445570C9437570C94665707
:1001A0000C94BB580C947E580C9461570C942F57A8
:1001B0000C945D570C94E3580C94D9580C94ED585A
:1001C0000C944F570C941E570C9460580C94225763
:1001D0000C94CF580C942C570C94AC580C94C558D4
:1001E0000C943D570C9498580C9453570C948E587B
:1001F0000C9433570C9456580C9474580C945957CB
:100200000C944B57434F4D4D554E49434154494F24
:100210004E0044525952554E004552524F525300CF
:10022000494E464F004543484F0047322F47332041
:1002300062616420706172616D65746572730A0039
:10024000205A3A200020593A200042656420583A4A
:1002500020002569730025696D20256973002569D3
:10026000682025696D20256973002569642025694A
:10027000682025696D202569730025697920256925
:1002800064202569682025696D20256973005072F6
:10029000696E742074696D653A200050726F7465E0
:1002A000637465642050696E0A00250220021902F9
:1002B000120204026F66660044454255473A004BFD
:1002C000494C4C45442E20004D3131332053006FB2
:1002D0006B003F0A0020573A003F0A0020573A00BF
:1002E0004649524D574152455F4E414D453A4D6149
:1002F000726C696E20312E312E3120284769746866
:1003000075622920534F555243455F434F44455F23
:1003100055524C3A68747470733A2F2F6769746839
:1003200075622E636F6D2F4D61726C696E466972D6
:100330006D776172652F4D61726C696E2050524FFE
:10034000544F434F4C5F56455253494F4E3A312E0E
:1003500030204D414348494E455F545950453A334A
:1003600044205072696E7465722045585452554449
:1003700045525F434F554E543A3120555549443A02
:1003800063656465326132662D343161322D3437F4
:1003900034382D396231322D633535633632663368
:1003A000363766660A007A5F6D696E3A2000795FBB
:1003B0006D696E3A2000785F6D696E3A2000526573
:1003C000706F7274696E6720656E6473746F7020ED
:1003D0007374617475730A0053657474696E672071
:1003E00054726176656C20416363656C65726174FB
:1003F000696F6E3A200053657474696E67205265A8
:10040000747261637420416363656C6572617469C1
:100410006F6E3A200053657474696E67205072697C
:100420006E7420416363656C65726174696F6E3AC6
:10043000200053657474696E67205072696E742071
:10044000616E642054726176656C20416363656CF3
:1004500065726174696F6E3A2000205A002059005D
:10046000580020204D61783A2000205A0020590081
:10047000580020204D696E3A20004F6E20004F66D4
:100480006600536F667420656E6473746F70733AA0
:10049000200020643A0020693A0020703A0023646A
:1004A0006566696E65202044454641554C545F4B56
:1004B00064200023646566696E65202044454641DA
:1004C000554C545F4B69200023646566696E652056
:1004D0002044454641554C545F4B702000504944E0
:1004E000204175746F74756E652066696E697368F6
:1004F0006564212050757420746865206C61737484
:10050000204B702C204B6920616E64204B6420636B
:100510006F6E7374616E74732066726F6D206265A6
:100520006C6F7720696E746F20436F6E66696775B4
:10053000726174696F6E2E680A00504944204175DB
:10054000746F74756E65206661696C6564212074D2
:10055000696D656F75740A00504944204175746F68
:1005600074756E65206661696C6564212054656DE3
:10057000706572617475726520746F6F2068696749
:10058000680A00204B643A2000204B693A20002082
:100590004B703A20000A20436C61737369632050EA
:1005A0004944200A002054753A2000204B753A2017
:1005B00000206D61783A2000206D696E3A2000209D
:1005C000643A200020626961733A2000546F6F2002
:1005D0006661722066726F6D207265666572656E07
:1005E000636520706F696E740A00454550524F4D27
:1005F0002064697361626C65640A003A20007A5F66
:100600006D696E3A20202D3230207A5F6D61783A24
:1006100020203230005A204F666673657420004EE9
:100620006F2063617365206C696768740A004163B9
:10063000746976652045787472756465723A200035
:10064000556E6B6E6F776E20636F6D6D616E643A81
:10065000202200656E7175657565696E67202200E0
:100660004E6F204C696E65204E756D626572207705
:1006700069746820636865636B73756D2C204C61C9
:100680007374204C696E653A20004B494C4C4544CC
:100690002E20005072696E7465722073746F7070D2
:1006A00065642064756520746F206572726F727363
:1006B0002E2046697820746865206572726F7220FA
:1006C000616E6420757365204D39393920746F204F
:1006D000726573746172742E202854656D70657232
:1006E00061747572652069732072657365742E205C
:1006F0005365742069742061667465722072657335
:1007000074617274696E67290A004E6F20436865D0
:10071000636B73756D2077697468206C696E6520F2
:100720006E756D6265722C204C617374204C696E1D
:10073000653A2000636865636B73756D206D69733E
:100740006D617463682C204C617374204C696E6514
:100750003A20004C696E65204E756D6265722069A5
:1007600073206E6F74204C617374204C696E652029
:100770004E756D6265722B312C204C617374204C68
:10078000696E653A20004D3131300020496E766146
:100790006C6964206578747275646572200000006D
:1007A00048430000484300004843000000000000A8
:1007B0000000000000002042403A0020403A0020A3
:1007C0002F0020423A00202F0020543A00205A3AAD
:1007D0000020593A0020436F756E7420583A00206B
:1007E000453A00205A3A0020593A00583A00000091
:1007F000000000000000000000005761726E696E8A
:10080000673A20486F6D696E672042756D702044AD
:10081000697669736F72203C20310A000000A040A5
:100820000000A04000000040000048430000484392
:1008300000004843FFFFFF48617264636F646564B2
:100840002044656661756C742053657474696E67C5
:1008500073204C6F616465640A0020204D38353187
:10086000205A005A2D50726F6265204F666673657C
:100870007420286D6D293A0A002044002049002088
:10088000204D33303120500050494420736574743A
:10089000696E67733A0A00205A0020590020204DE3
:1008A000323036205800486F6D65206F666673657C
:1008B000743A0A00204500205A00205900205800B0
:1008C00020420020540020204D323035205300417A
:1008D0006476616E6365643A20533C6D696E5F6651
:1008E000656564726174653E20543C6D696E5F7429
:1008F000726176656C5F66656564726174653E20E1
:10090000423C6D696E5F7365676D656E745F746997
:100910006D655F6D733E20583C6D61785F78795FDF
:100920006A65726B3E205A3C6D61785F7A5F6A65DA
:10093000726B3E20453C6D61785F655F6A65726BE6
:100940003E0A0020540020520020204D3230342036
:100950005000416363656C65726174696F6E202835
:10096000756E6974732F7332293A20503C70726926
:100970006E745F616363656C3E20523C7265747295
:100980006163745F616363656C3E20543C747261A3
:1009900076656C5F616363656C3E0A0020450020EC
:1009A0005A0020590020204D3230312058004D612E
:1009B00078696D756D20416363656C6572617469FA
:1009C0006F6E2028756E6974732F7332293A0A008E
:1009D000204500205A0020590020204D323033207D
:1009E00058004D6178696D756D206665656472614A
:1009F0007465732028756E6974732F73293A0A0021
:100A0000204500205A0020590020204D393220581E
:100A10000053746570732070657220756E69743A46
:100A20000A0020204D3230302044300A0020204D72
:100A30003230302044002044697361626C65640A7E
:100A40000046696C616D656E742073657474696EBF
:100A500067733A002020473231203B20556E69747D
:100A60007320696E206D6D0A0A0024F4D43050C3DF
:100A70008E20C2A24017828B7011127A910D816C68
:100A8000D90AA861E108C7586607615143061E4BA1
:100A90005D05C145A7041A411104093D9803713948
:100AA00031034036DB0265339102D4305402802E8C
:100AB0001D02632CEE01752AC501B028A001102784
:100AC00081018F2564012B244B01E0223401AC21EC
:100AD0001F018D200D01801FFC00841EED00971D5D
:100AE000DF00B81CD200E61BC600201BBC00641A45
:100AF000B200B219A8000A19A0006A189900D1170B
:100B0000910040178B00B516840031167E00B31596
:100B100079003A157300C7146F0058146A00EE1379
:100B200066008813630025135E00C7125B006C1219
:100B3000570015125400C111510070114F002111BE
:100B40004B00D61049008D1047004610440002109B
:100B50004200C00F4000800F3E00420F3C00060FD5
:100B60003B00CB0E3800930E37005C0E3500270E8D
:100B70003400F30D3200C10D3100900D3000600DD6
:100B80002E00320D2D00050D2C00D90C2B00AE0CC3
:100B90002900850C29005C0C2700350C27000E0C61
:100BA0002600E80B2400C40B2400A00B23007D0BBF
:100BB00023005A0B2100390B2100180B2000F80AE2
:100BC0001F00D90A1E00BB0A1E009D0A1D00800AD4
:100BD0001D00630A1C00470A1B002C0A1B00110A97
:100BE0001A00F7091A00DD091900C4091900AB0938
:100BF0001900920917007B091800630917004C09B6
:100C0000160036091600200916000A091500F50815
:100C10001500E0081400CC081400B8081400A4085B
:100C20001400900813007D0812006B081300580888
:100C3000120046081200340811002308110012089F
:100C4000110001081100F0071000E0071000D007A4
:100C50001000C0071000B0070F00A1071000910797
:100C60000E0083070F0074070F0065070E0057077B
:100C70000E0049070E003B070D002E070E0020074F
:100C80000D0013070D0006070D00F9060C00ED0618
:100C90000D00E0060C00D4060C00C8060C00BC06D3
:100CA0000C00B0060C00A4060B0099060C008D0683
:100CB0000B0082060B0077060B006C060B0061062A
:100CC0000A0057060B004C060A0042060A003806C6
:100CD0000A002E060A0024060A001A060A00100658
:100CE000090007060A00FD050900F4050900EB05E7
:100CF0000900E2050900D9050900D0050900C7056A
:100D00000900BE050900B5050800AD050800A505E8
:100D100009009C050800940508008C05080084055E
:100D200008007C050800740508006C0507006505CF
:100D300008005D050700560508004E050700470539
:100D400007004005080038050700310507002A059F
:100D50000700230507001C050600160507000F0500
:100D600007000805060002050700FB040600F5045D
:100D70000700EE040600E8040600E2040700DB04B6
:100D80000600D5040600CF040600C9040600C3040B
:100D90000600BD040600B7040600B1040500AC045B
:100DA0000600A6040600A00405009B0406009504A6
:100DB0000500900406008A040500850405008004EF
:100DC00006007A04050075040500700405006B0434
:100DD000050066040500610405005C040500570475
:100DE0000500520405004D040500480405004304B5
:100DF00005003E0404003A040500350405003004F3
:100E000004002C04050027040400230405001E042C
:100E100004001A04040016040500110404000D0463
:100E20000400090405000404040000040400FC0399
:100E30000400F8030400F4030400F0030400EC03CE
:100E40000400E8030400E4030400E0030400DC03FE
:100E50000400D8030400D4030400D0030400CC032E
:100E60000400C8030300C503030024F404D9201BB5
:100E7000C40C5C0E9804C4095F0265077101F40597
:100E8000F900FB04B30048048700C103690058035C
:100E9000550003034500BE023A00840231005302AC
:100EA0002A002902250004022000E4011C00C801D8
:100EB0001900AF011700980114008401130071019B
:100EC00010006101100051010E0043010D003601B8
:100ED0000B002B010B0020010B00150109000C0178
:100EE000090003010800FB000800F3000800EB0004
:100EF0000700E4000600DE000600D8000600D2006D
:100F00000600CC000500C7000500C2000500BD00BA
:100F10000400B9000400B5000400B1000400AD00F5
:100F20000400A9000400A5000300A20003009F0024
:100F300004009B000300980003009500020093004A
:100F40000300900003008D0002008B000300880066
:100F500002008600020084000300810002007F007E
:100F600002007D0002007B00020079000200770091
:100F7000010076000200740002007200010071009E
:100F800002006F0002006D0001006C0002006A00A8
:100F900001006900020067000100660001006500B1
:100FA00001006400020062000100610001006000B5
:100FB00001005F0002005D0001005C0001005B00B9
:100FC00001005A00010059000100580001005700BB
:100FD00001005600010055000100540001005300BB
:100FE00000005300010052000100510001005000B8
:100FF00001004F0001004E0000004E0001004D00B6
:1010000001004C0001004B0000004B0001004A00B1
:1010100001004900010048000000480001004700AD
:1010200001004600000046000100450000004500A8
:1010300001004400010043000000430001004200A1
:10104000000042000100410000004100010040009A
:1010500001003F0000003F0001003E0000003E0094
:1010600001003D0000003D0001003C0000003C008C
:1010700000003C0001003B0000003B0001003A0082
:1010800000003A000100390000003900010038007A
:101090000000380000003800010037000000370071
:1010A0000100360000003600000036000100350067
:1010B000000035000000350001003400000034005D
:1010C0000000340001003300000033000000330052
:1010D0000100320000003200000032000100310047
:1010E000000031000000310001003000000030003D
:1010F0000000300001002F0000002F0000002F0032
:1011000000002F0001002E0000002E0000002E0025
:1011100001002D0000002D0000002D0000002D001A
:1011200001002C0000002C0000002C0000002C000E
:1011300001002B0000002B0000002B0000002B0002
:1011400001002A0000002A0000002A0000002A00F6
:1011500001002900000029000000290000002900EA
:1011600000002900010028000000280000002800DD
:1011700000002800000028000100270000002700D0
:1011800000002700000027000000270001002600C3
:1011900000002600000026000000260000002600B7
:1011A00001002500000025000000250000002500AA
:1011B000000025000000250001002400000024009C
:1011C000000024000000240000002400010023008F
:1011D0000000230000002300000023000000230083
:1011E0000000230000002300010022000000220074
:1011F0000000220000002200000022000000220067
:101200000100210000002100000021000000210059
:10121000000021000000210000002100010020004A
:10122000000020000000200000002000000020003E
:1012300000002000000020000000200001001F002E
:1012400000001F0000001F0000001F0000001F0022
:1012500000001F0000001F0001001E0000001E0013
:1012600000001E0000001E0000006265640A002CE1
:101270002073797374656D2073746F707065642169
:10128000204865617465725F49443A200048656191
:1012900074696E67206661696C6564004865617495
:1012A000696E67206661696C656400486561746990
:1012B0006E67206661696C65640048656174696E7B
:1012C00067206661696C65640070012C01900127DC
:1012D00001B0012201C0011D01F00118011002132B
:1012E0000130020E016002090190020401C002FFF8
:1012F000000003FA004003F5008003F000D003EB88
:10130000002004E6007004E100E004DC004005D7A2
:1013100000C005D2004006CD00D006C8008007C33B
:10132000003008BE00F008B900C009B400B00AAF30
:1013300000B00BAA00D00CA500000EA000500F9B1F
:1013400000C01096005012910000148C00C0158748
:1013500000B0178200B0197D00D01B7800001E730A
:101360000040206E0090226900F024640040275F56
:101370000090295A00E02B5500102E500020304BD1
:101380000010324600E033410090353C0010373702
:101390000070383200A0392D00B03A2800A03B235D
:1013A00000603C1E00103D1900903D1400103E0FDF
:1013B00000703E0A00C03E0500003F0000403FFBB9
:1013C000FF803FF6FFC03FF1FF544845524D414C6E
:1013D0002052554E4157415900546865726D616CF9
:1013E0002052756E61776179004572723A204D49DD
:1013F0004E54454D5020424544004572723A204DAE
:10140000494E54454D50004D494E54454D50207461
:101410007269676765726564004572723A204D4172
:101420005854454D5020424544004572723A204D73
:10143000415854454D50004D415854454D5020742D
:101440007269676765726564004B494C4C45442E70
:101450002000202D20496E76616C696420657874C7
:101460007275646572206E756D62657220210A0066
:101470004572726F723A002020506C616E6E657218
:1014800042756666657242797465733A200020463B
:10149000726565204D656D6F72793A2000436F6DFE
:1014A00070696C65643A204D6179203237203230A2
:1014B00031370A00207C20417574686F723A2043EE
:1014C0006C6F6E652062792045415254480A0032A3
:1014D0003031372D30352D31322031323A30300035
:1014E000204C61737420557064617465643A200007
:1014F000312E312E310A004D61726C696E0020531D
:101500006F6674776172652052657365740A002096
:101510005761746368646F672052657365740A006D
:101520002042726F776E206F7574205265736574F8
:101530000A002045787465726E616C20526573658F
:10154000740A00506F77657255700A007374617287
:10155000740A00205A3A0020593A0020583A00658F
:101560006E6473746F7073206869743A20006563E9
:10157000686F3A0000002100240027002A002D0097
:101580003000330001010000040107010A010000DE
:101590002200250028002B002E003100340002011B
:1015A0000000050108010B010000200023002600B7
:1015B00029002C002F003200000100000301060169
:1015C00009010505050507050808080802020202C9
:1015D0000A0A0808040404040101010101010101CF
:1015E0000303030303030303040707070C0C0C0C9A
:1015F0000C0C0C0C02020202060606060606060683
:101600000B0B0B0B0B0B0B0B01021020200808100F
:101610002040102040800201020108040201010262
:10162000040810204080804020100804020180043B
:101630000201804020100804020108040201010296
:10164000040810204080010204081020408000009F
:101650000A0B02090C0D0E0807030401000000002C
:10166000000000000000000000000000000000007A
:101670000000000000000000000012111000000037
:10168000000000000000000000000000000000005A
:1016900000000000526573656E643A20006F6B00B5
:1016A000627573793A2070617573656420666F7234
:1016B00020696E7075740A00627573793A207061E2
:1016C0007573656420666F7220757365720A0062B7
:1016D0007573793A2070726F63657373696E670A08
:1016E000004B494C4C45442E20004B494C4C206348
:1016F000617573656420627920746F6F206D756306
:101700006820696E6163746976652074696D65200F
:101710002D2063757272656E7420636F6D6D616EDE
:10172000643A20005072696E7465722068616C744E
:1017300065642E206B696C6C28292063616C6C6574
:1017400064210A004E414E494E495459494E46CDF6
:10175000CCCC3D0AD7233C17B7D13877CC2B329568
:1017600095E6241FB14F0A000020410000C8420046
:10177000401C4620BCBE4CCA1B0E5AAEC59D740010
:10178000916011241FBECFEFD1E2DEBFCDBF00E0DC
:101790000CBF13E0A0E0B2E0E4E4F9ED00E00BBF21
:1017A00002C007900D92A037B107D9F72CE0A0E74F
:1017B000B3E001C01D92AE3BB207E1F71BE0C1EC04
:1017C000DBE000E006C021970109802FFE010E94A6
:1017D0000361C03CD10780E00807A9F70E94355D8E
:1017E0000C94A06C0C9400002F923F924F925F9249
:1017F0006F927F928F929F92AF92BF92CF92DF9221
:10180000EF92FF920F931F93CF93DF93CDB7DEB785
:10181000C257D1090FB6F894DEBF0FBECDBF80917D
:10182000D30B20E6829FC00111248F579C4F9093C9
:10183000A70C8093A60C8091E40580FF1BC0EEE608
:10184000F5E184918F010F5F1F4F882321F00E94E3
:10185000DD2BF801F6CF0091A60C1091A70CD80152
:101860008D918D01882319F00E94DD2BF8CF8AE03D
:101870000E94DD2BE091A60CF091A70C80818032B4
:1018800031F43196F093A70CE093A60CF3CF8E348D
:1018900069F01091A60C0091A70C6AE270E0812F0C
:1018A000902F0E942064009721F52AC0818190ED3D
:1018B000980F9A3010F08D3261F73296F093A70CA2
:1018C000E093A60CE091A60CF091A70C80818053C8
:1018D0008A3010F43196F2CFE091A60CF091A70C6B
:1018E00080818032B1F63196F093A70CE093A60C7C
:1018F000F3CFFC0131968291803231F08A3221F0AF
:10190000A12FB02F9D9102C01082F5CFFD018081E3
:1019100011968032D9F380538A3020F0EEE6F5E15B
:101920000C940122E12CF12C2AE02E9DB0012F9D78
:10193000700D11247B01B0E3EB1AF1088191E80EE0
:10194000F11C87FDFA94808180538A3070F3DF01A7
:1019500031968C918032D9F3B0938003A0937F03AA
:1019600021E030E03093A50C2093A40C9D3409F4C1
:10197000CBC7943511F40C944421973411F00C9496
:101980005C21E4E0EE16F10409F469C540F48091AD
:10199000330222E0E216F10408F080C01EC03AE5EE
:1019A000E316F10409F4FFC660F45CE1E516F10406
:1019B00009F49BC58EE1E816F10409F433C60C94D2
:1019C000F8219BE5E916F10409F4F1C6ACE5EA1645
:1019D000F10409F4F1C60C94F821882311F40C9455
:1019E000F8210E944A2A80910402882321F086E887
:1019F00095E00E94A3370E94B22B2091860530917A
:101A0000870540918805509189056091A20B7091DE
:101A1000A30B8091A40B9091A50B0E948668811165
:101A20001DC020918A0530918B0540918C05509105
:101A30008D056091A60B7091A70B8091A80B9091DA
:101A4000A90B0E948668811109C060910002709103
:101A5000010280910202909103021AC06091050276
:101A600070910602072E000C880B990B0E948D685E
:101A70002091000230910102409102025091030234
:101A80000E94EC682AE037ED43E25CE30E94EC68D8
:101A90000E9480290E9476290C94F821882311F451
:101AA0000C94F82111E0B2E0EB16F10409F010E01B
:101AB0000E944A2A82E50E949929882309F42AC1B2
:101AC0000E94212A6B017C014090A20B5090A30B35
:101AD0006090A40B7090A50B2091A60B3091A70BE2
:101AE0004091A80B5091A90B2E8F3F8F48A359A36B
:101AF0008091860590918705A0918805B091890510
:101B00008AA39BA3ACA3BDA320918A0530918B052A
:101B100040918C0550918D052AA73BA74CA75DA746
:101B200020E030E0A901C701B6010E948668882341
:101B300009F47BC4A30192016AA17BA18CA19DA1A0
:101B40000E94866881110DC02E8D3F8D48A159A13C
:101B50006AA57BA58CA59DA50E948668882309F4AB
:101B600064C420E030E0A901C701B6010E94866884
:101B7000881F8827881F181309C080E090E0A0E81C
:101B8000BFE38EAB9FABA8AFB9AF08C020E030E099
:101B900040E85FEB2EAB3FAB48AF59AFA3019201DA
:101BA0006AA17BA18CA19DA10E9412616EA77FA753
:101BB00088AB99AB2E8D3F8D48A159A16AA57BA515
:101BC0008CA59DA50E9412616AAB7BAB8CAB9DABD3
:101BD0002EA53FA548A959A9CA01B9010E94EC68E0
:101BE0004B015C012AA93BA94CA95DA9CA01B90115
:101BF0000E94EC689B01AC01C501B4010E94136115
:101C00000E94C1636EA37FA388A799A720E030E05C
:101C100040E05FE30E94EC684B015C01A701960184
:101C2000C701B6010E94EC686B017C01A50194011B
:101C3000C501B4010E94EC689B01AC01C701B6016B
:101C40000E9412610E94C1639B01AC016EA97FA931
:101C500088AD99AD0E94EC684B015C012AA13BA1C3
:101C60004CA15DA1C301B2010E94136120E030E0EC
:101C700040E05FE30E94EC686B017C016AA97BA9EC
:101C80008CA99DA990582EA13FA148A559A50E94B5
:101C90000D629B01AC01C501B4010E94EC689B017F
:101CA000AC01C701B6010E941361A30192010E9419
:101CB00012616B017C012AA53BA54CA55DA56E8D2B
:101CC0007F8D88A199A10E94136120E030E040E05F
:101CD0005FE30E94EC682B013C012EA13FA148A5C7
:101CE00059A56EA57FA588A999A90E940D629B019F
:101CF000AC01C501B4010E94EC689B01AC01C301B9
:101D0000B2010E9413612E8D3F8D48A159A10E94FE
:101D1000126114C089E40E949929882329F00E9445
:101D2000212A6B017C0103C0C12CD12C76018AE4ED
:101D30000E9499298823D9F00E94212A6AA77BA7AB
:101D40008CA79DA720E030E0A901C701B6010E9441
:101D5000866881111AC020E030E0A9016AA57BA540
:101D60008CA59DA50E94866881110FC05EC320E0EE
:101D700030E0A901C701B6010E948668882309F4F2
:101D800054C31AA61BA61CA61DA6D701C601B0588F
:101D90008E8F9F8FA8A3B9A32AA53BA54CA55DA5AF
:101DA00050582AA33BA34CA35DA39C01AD01BC01E9
:101DB000CD010E94EC684B015C012AA13BA14CA122
:101DC0005DA1CA01B9010E94EC689B01AC01C5018B
:101DD000B4010E9413610E94C1632A966CAF7DAF6B
:101DE0008EAF9FAF2A978091A20B9091A30BA091E9
:101DF000A40BB091A50B8EA39FA3A8A7B9A7A70179
:101E00009601BC01CD010E9413616EAB7FAB88AF20
:101E100099AF2091A60B3091A70B4091A80B509140
:101E2000A90B2EA73FA748AB59AB2AA53BA54CA5AC
:101E30005DA56EA57FA588A999A90E9413616AAFC7
:101E40007BAF8CAF9DAF8091860590918705A09167
:101E50008805B091890522968CAF9DAFAEAFBFAF1C
:101E600022972EA93FA948AD59ADBC01CD010E94D2
:101E700012616B017C0120918A0530918B054091A4
:101E80008C0550918D0526962CAF3DAF4EAF5FAFC0
:101E900026972AAD3BAD4CAD5DAD26966CAD7DADC4
:101EA0008EAD9FAD26970E9412614B015C0180911F
:101EB000AA0B9091AB0BA091AC0BB091AD0B6296BD
:101EC0008CAF9DAFAEAFBFAF62979C01AD0160918B
:101ED0008E0570918F0580919005909191050E94DB
:101EE00012616AAB7BAB8CAB9DAB209192053091BC
:101EF000930540919405509195052E962CAF3DAFDA
:101F00004EAF5FAF2E978091AE0B9091AF0BA0912B
:101F1000B00BB091B10B66968CAF9DAFAEAFBFAFBB
:101F20006697A70196016E8D7F8D88A199A10E9469
:101F3000EC682B013C01A50194016AA17BA18CA155
:101F40009DA10E94EC689B01AC01C301B2010E94FB
:101F500013612B013C01A50194016E8D7F8D88A139
:101F600099A10E94EC684B015C01A70196016AA14E
:101F70007BA18CA19DA10E94EC689B01AC01C501D5
:101F8000B4010E941261A30192010E9492616B014F
:101F90007C0120E030E0A9010E94866887FF0AC02A
:101FA0002BED3FE049EC50E4C701B6010E941361FC
:101FB0006B017C01112351F02BED3FE049EC50E423
:101FC000C701B6010E9412616B017C0120E030E084
:101FD000A901C701B6010E948668811126C0229618
:101FE0002CAD3DAD4EAD5FAD22976EA17FA188A512
:101FF00099A50E948668811118C026962CAD3DAD2A
:102000004EAD5FAD26976EA57FA588A999A90E94C0
:10201000866881110AC02BED3FE049EC50E4C7010E
:10202000B6010E9413616B017C012A962CAD3DAD77
:102030004EAD5FAD2A97C701B6010E94EC689B01C7
:10204000AC010E94EC684B015C012AA93BA94CA998
:102050005DA9CA01B9010E94EC689B01AC01C501F0
:10206000B4010E9413610E94C1634B015C012FE621
:1020700032E143E85AE30E94866887FDD2C1C50178
:10208000B4010E94B5620E9486627FA76EA7DB0141
:10209000AB2B21F4E1E0F0E0FFA7EEA72EA53FA5D2
:1020A000B90180E090E00E948B684B015C019B01CC
:1020B000AC01C701B6010E940D626EA37FA388A781
:1020C00099A7A50194016AA97BA98CA99DA90E9441
:1020D0000D622A966CAF7DAF8EAF9FAF2A97669642
:1020E0002CAD3DAD4EAD5FAD66972E966CAD7DAD22
:1020F0008EAD9FAD2E970E941261A50194010E94A2
:102100000D622E966CAF7DAF8EAF9FAF2E972EA136
:102110003FA148A559A5CA01B9010E94EC6820E079
:1021200030E040E05FE30E94EC689B01AC0160E0BE
:1021300070E080E89FE30E9412616AAB7BAB8CABDE
:102140009DAB62968CAD9DADAEADBFAD62978987FC
:102150009A87AB87BC8766962CAD3DAD4EAD5FAD23
:1021600066972D873E874F87588B60910502709147
:102170000602072E000C880B990B0E948D68209197
:1021800000023091010240910202509103020E942C
:10219000EC682AE037ED43E25CE30E94EC682296AB
:1021A0006CAF7DAF8EAF9FAF22970E9430599B01DD
:1021B000AC0128533F4F4F4F5F4F26962CAF3DAF9A
:1021C0004EAF5FAF26974E8C5F8C68A079A022241B
:1021D0002394312CD12C8EA59FA52816390609F4FD
:1021E0000CC10E9464550E943059DC01CB01269637
:1021F0002CAD3DAD4EAD5FAD2697821B930BA40B6E
:10220000B50BB7FD10C00E9430599B01AC0128539B
:102210003F4F4F4F5F4F26962CAF3DAF4EAF5FAF56
:1022200026970E944C5AD39438E13D15ECF12AA927
:102230003BA94CA95DA96AA17BA18CA19DA10E948B
:10224000EC684B015C012EA13FA148A559A5B20144
:10225000C3010E94EC68A50194010E9413617B01F7
:102260008C012AA93BA94CA95DA9B201C3010E9416
:10227000EC684B015C012EA13FA148A559A56AA1BC
:102280007BA18CA19DA10E94EC689B01AC01C501C2
:10229000B4010E9412612B013C01C701D8018AA33D
:1022A0009BA3ACA3BDA34EC0B10180E090E00E940F
:1022B0008B682EA13FA148A559A50E94EC684B014F
:1022C0005C010E9408626B017C01C501B4010E949F
:1022D000B3634B015C01A70196016E8D7F8D88A1D0
:1022E00099A10E94EC682B013C01A50194016AA50B
:1022F0007BA58CA59DA50E94EC689B01AC01C30148
:10230000B2010E9413612B013C01A50194016E8D65
:102310007F8D88A199A10E94EC684B015C01A70107
:1023200096016AA57BA58CA59DA50E94EC689B01E2
:10233000AC01C501B4010E9412616AA37BA38CA306
:102340009DA3D12C9201A3016EA97FA988AD99AD5F
:102350000E94136169837A838B839C832AA13BA1AA
:102360004CA15DA16AAD7BAD8CAD9DAD0E941361AA
:102370006D837E838F8398872A962CAD3DAD4EADBD
:102380005FAD2A9769857A858B859C850E9413614C
:1023900069877A878B879C872E962CAD3DAD4EAD95
:1023A0005FAD2E976D857E858F8598890E9413611C
:1023B0006D877E878F87988B80910402882321F018
:1023C000CE0101960E94A337C09079032296ECAC0F
:1023D000FDAC0EAD1FAD22979E01235F3F4FAE01B6
:1023E000475F5F4FBE016B5F7F4FCE0101960E943A
:1023F000CC3B4FEF241A340AEECEC09079032296DC
:10240000ECACFDAC0EAD1FAD229722E935E04EE8F5
:1024100055E06AE875E086E895E00E94CC3B0E94B2
:1024200076290E94B22B0C94F821E0E7F4E1849124
:102430008F010F5F1F4F882321F00E94DD2BF801D1
:10244000F6CFEAE2F2E084918F010F5F1F4F8823FD
:1024500011F40C94F8210E94DD2BF801F4CF80E5F3
:102460000E949929882371F08091760390917703D7
:102470004AE050E060E070E001960E94D5666B0192
:102480007C0103C0C12CD12C760183E50E949929DF
:10249000882361F00E94212A20E030E04AE754E4DA
:1024A0000E94EC680E9486626B017C010E940757C3
:1024B0000E94B22B8091A80C9091A90CA091AA0C1B
:1024C000B091AB0CC80ED91EEA1EFB1E0E943059FB
:1024D000DC01CB018C199D09AE09BF09B7FD02C013
:1024E0000C94F8210E944C5AF1CF0E9407570E9489
:1024F000BD2B81E080934A0288E50E949929E82E4D
:1025000089E50E949929082F8AE50E949929F82EC9
:10251000E11005C0011105C011E0182705C0011127
:1025200002C010E001C0182F80E1E2EAFBE0A6E85B
:10253000B5E001900D928A95E1F7111105C0E11007
:1025400003C0002309F444C020E030E040EA50E436
:102550006091730570917405809175059091760571
:102560000E94136160938E0570938F058093900590
:10257000909391052091AA0B3091AB0B4091AC0B3D
:102580005091AD0B0E94736318167CF419821A8265
:102590001B821C829E012F5F3F4F4EE855E066EA8A
:1025A0007BE082EA9BE00E94D927111105C0E1106F
:1025B00003C0011107C00CC080E090E00E943538D4
:1025C0001123B9F381E090E00E943538111102C067
:1025D000FF2021F082E090E00E9435380E94BE2A60
:1025E0008091A20580934A028091720390917303B7
:1025F000A0917403B091750380930002909301023F
:10260000A0930202B0930302809170039091710332
:1026100090930602809305020E94B22B0E949F2F86
:102620000C94F82188E50E949929882319F00E94CA
:10263000212A0EC020E030E048EA51E46091A20B6C
:102640007091A30B8091A40B9091A50B0E94136134
:102650006B017C0189E50E949929882319F00E9469
:10266000212A0EC020E030E040E251E46091A60B48
:102670007091A70B8091A80B9091A90B0E941361F8
:102680004B015C01209173053091740540917505F3
:10269000509176052E8F3F8F48A359A320916B054B
:1026A00030916C0540916D0550916E05C701B601E2
:1026B0000E94126120916F05309170054091710563
:1026C000509172052AA33BA34CA35DA320E030E008
:1026D00048EA51E40E9412612B013C0127E137EBEB
:1026E00041ED58EB0E94736387FF02C00C94F82100
:1026F00027E030E048E453E4C301B2010E94866859
:10270000181614F40C94F8212AA13BA14CA15DA148
:10271000C501B4010E94126120E030E040E251E4C2
:102720000E9412612B013C0127E137EB41ED58EB90
:102730000E94736387FF02C00C94F82127E030E009
:1027400048E453E4C301B2010E948668181614F4E9
:102750000C94F82120E030E0A9016E8D7F8D88A1D6
:1027600099A10E9413612E8D3F8D48A159A10E940D
:1027700012612B013C0127E137EB41ED58EB0E9440
:10278000736387FF02C00C94F82127E030E048E42F
:1027900053E4C301B2010E948668181614F40C9425
:1027A000F8210C945E2110927E030C94F82181E0B4
:1027B00080937E030C94F92185E40E949929B82E18
:1027C000811102C00E94075756E5852E52E0952ED2
:1027D00062EAC62E6BE0D62E77E7E72E75E0F72E7D
:1027E00000E010E0A12CD4018D914D010E949929A7
:1027F0008823F1F1F6012081318142815381E296F3
:102800002FAFE297E3963FAFE397E0964FAFE097A5
:10281000E1965FAFE1970E94212AD6016D937D93E7
:102820008D939C931397E2962FADE297E3963FAD7D
:10283000E397E0964FADE097E1965FADE197033007
:102840001105B1F00E9412619B01AC01F70160819A
:102850007181828193810E941361D7016D937D9371
:102860008D939C931397C8010E945E2BAA24A39476
:102870000F5F1F4FB4E0CB0ED11CE4E0EE0EF11C55
:102880000430110509F0AFCFAA2019F00E94BE2A2A
:1028900037C0BB20A9F1C090AE0BD090AF0BE09039
:1028A000B00BF090B10B20911106309112064091BF
:1028B000130650911406C701B6010E94EC680E94ED
:1028C00080636093F50B7093F60B8093F70B9093F6
:1028D000F80BC701B6010E947F622FB7F89460938E
:1028E000250B7093260B8093270B9093280B2FBFFB
:1028F0001092E50B1092E60B1092E70B1092E80B8A
:102900000E949F2F0C94F821F8E7EF16F10409F4C8
:10291000D6C508F09FC03CE5E316F10409F4CEC427
:1029200008F053C05CE4E516F10409F487C208F529
:102930009FE1E916F10409F467C160F4B1E1EB1617
:10294000F10409F454C1E2E1EE16F10409F464C49F
:102950000C94F821FAE2EF16F10409F427C22BE4F3
:10296000E216F10411F00C94F8210E9455590C94D0
:10297000F82132E5E316F10409F445C4C0F45DE43E
:10298000E516F10409F474C281E5E816F10411F0CA
:102990000C94F8210E94A6510E9407570E940A5ADF
:1029A0001092E3051092E20500E010E015C494E5F2
:1029B000E916F10409F430C408F429C4B5E5EB16AE
:1029C000F10409F460C40C94F821EEE6EE16F1046B
:1029D00009F47AC2D0F42AE6E216F10409F4C7C376
:1029E00060F448E6E416F10409F446C259E6E51637
:1029F000F10409F46EC30C94F8218CE6E816F10496
:102A000009F420C308F4D6C381C3A1E7EA16F10490
:102A100009F41CC378F4EFE6EE16F10409F470C271
:102A2000F0E7EF16F10411F00C94F8218FEB92E02F
:102A30000E941B5A23E7E216F10409F4CEC408F4FD
:102A4000C6C447E7E416F10411F00C94F821EEEB4C
:102A5000F3E0D1C45DE2E51651E0F50611F40C9403
:102A60001E1D08F05AC09CECE916F10409F4BAC521
:102A700018F5BEEBEB16F10409F464C360F4F9E752
:102A8000EF16F10409F421C52CE8E216F10409F46B
:102A900009C30C94F82139ECE316F10409F462C57A
:102AA0004BECE416F10409F47FC558ECE516F1048B
:102AB00011F00C94F8210EC583EDE816F10409F429
:102AC000D3C6D0F4ADECEA16F10409F4F5C5BEECBA
:102AD000EB16F10411F00C94F82136E5A32E32E048
:102AE000B32E42EAC42E4BE0D42E56E9E52E5BE02D
:102AF000F52E00E010E060C6EDEDEE16F10409F4ED
:102B000058C7F2EEEF16F10409F46CC72CEDE2168B
:102B1000F10411F00C94F8213FC73CEAE31631E0D0
:102B2000F30609F473C678F550E9E51651E0F506A9
:102B300011F40C94242090F49FE2E91691E0F90638
:102B400011F40C94BC1DA3E6EA16A1E0FA0611F0FC
:102B50000C94F821E0E7F4E10C941F21B2E9EB16A4
:102B6000B1E0FB0611F40C942B2010F40C942720F8
:102B7000FAE9EF16F1E0FF0611F00C94F8210E943B
:102B8000C82A0C94F82126EFE21621E0F20611F48F
:102B90000C94DA20A8F444EFE41641E0F40611F4B2
:102BA0000C94C12055EFE51651E0F50611F00C9498
:102BB000F8210E944C3680E00E940B330C94F821DF
:102BC00083E5E81683E0F80611F40C94E92097EE0B
:102BD000E91693E0F90611F40C943621A7EFEA16F2
:102BE000A1E0FA0611F00C94F8210C94DD205F9816
:102BF0008A989FB7F894809108018E7F809308018E
:102C00009FBF12980C94F8218091FB0B9091FC0BC4
:102C1000019719F40E94305908C06091050C709119
:102C2000060C8091070C9091080C0091010C1091FA
:102C3000020C2091030C3091040C601B710B820B71
:102C4000930B28EE33E040E050E00E94646C8091EA
:102C5000FD0B9091FE0BA091FF0BB091000CBC01FD
:102C6000CD01620F731F841F951F4CE3C42ED12C1E
:102C7000E12CF12CA70196010E94646C762E672E40
:102C8000CA01B901A70196010E94646C6B017C0125
:102C9000CA01B90128E130E040E050E00E94646CD4
:102CA0004B015C01C9016DE671E00E94BC608E01C0
:102CB0000F5F1F4F6115710599F06F927F92DF9240
:102CC000CF929F928F929F938F937F936F938AE778
:102CD00092E09F938F931F930F930E94566826C094
:102CE000009789F06F927F92DF92CF929F928F929E
:102CF0009F938F938AE692E09F938F931F930F93F6
:102D00000E94566813C081149104A104B104B1F06B
:102D10006F927F92DF92CF929F928F928EE592E098
:102D20009F938F931F930F930E9456680FB6F8944A
:102D3000DEBF0FBECDBFEEE6F5E123C0C114D10466
:102D4000E104F10469F06F927F92DF92CF9286E501
:102D500092E09F938F931F930F930E945668E6CF44
:102D60006F927F9282E592E09F938F931F930F93D0
:102D70000E9456680F900F900F900F900F900F9039
:102D8000DACF84917F019FEFE91AF90A882321F0B5
:102D90000E94DD2BF701F5CFB8018EE892E00E948A
:102DA000093A8AE00E94DD2B0C94F82183E50E9409
:102DB0009929882311F40C94F8210E94142A7C018B
:102DC0008F3F910519F010F00C94F82180E50E94D6
:102DD0009929882339F00E94142A8C0197FF04C096
:102DE0000C94F8210DE010E0D02EEAE5F2E0C801E5
:102DF0009927219131912817390731F0B2E0EA3A49
:102E0000FB07B9F70C94D922E0E7F4E184918F0134
:102E10000F5F1F4F882321F00E94DD2BF801F6CFB2
:102E2000EBE9F2E084918F010F5F1F4F882311F4CB
:102E30000C94F8210E94DD2BF801F4CF8091FB0B5C
:102E40009091FC0B019711F00C94F82182E090E036
:102E50009093FC0B8093FB0B0E9430596093050C00
:102E60007093060C8093070C9093080C0C94F82137
:102E70000E943C590C94F82188E690E00E94F42CC2
:102E800081110C94F8218091E40583FF02C00C9419
:102E9000F82183E50E949929882391F00E94142A41
:102EA0009093310B8093300B80E00E9473510E940D
:102EB000142A1816190614F00E943C590E94142A6C
:102EC0000E94313A0C94F8218EE40E9499298823BB
:102ED00011F40C94F82180917603909177034AE0E5
:102EE00050E060E070E001960E94AA656093940C47
:102EF0007093950C8093960C9093970C0C94F821FA
:102F000083E50E949929882319F00E94AC2901C009
:102F100080E08093E405EEE6F5E184918F010F5F98
:102F20001F4F882321F00E94DD2BF801F6CFE8EB3C
:102F3000F2E084918F010F5F1F4F882321F00E94E0
:102F4000DD2BF801F6CF8091E4058823A1F13AEA60
:102F5000C32E32E0D32EE12CF12C20E08091E40549
:102F600090E00E2C02C0959587950A94E2F780FFB9
:102F700017C0BB24B394B20E222319F08CE20E9436
:102F8000DD2BF60125913491F901849189010F5FC0
:102F90001F4F882321F00E94DD2B9801F5CF2B2DA8
:102FA000FFEFEF1AFF0A32E0C30ED11C45E0E41632
:102FB000F104A1F642C0E4EBF2E084918F010F5FCF
:102FC0001F4F8823D1F10E94DD2BF801F6CF8AE54F
:102FD0000E949929882311F40C9411210E94212A1E
:102FE0006B017C0120E030E040EA51EC0E94736309
:102FF00087FF02C00C94032120E030E040EA51E456
:10300000C701B6010E948668181614F40C940321B7
:10301000C092A305D092A405E092A505F092A60562
:10302000C0921402D0921502E0921602F09217029A
:1030300042E0C701B6010E942A2F8AE00E94DD2BE0
:103040000C94F821109207020C94F82183E50E9459
:103050009929882369F00E94AC2980934B028D3313
:1030600010F40C94F8218CE380934B020C94F8211B
:10307000EEE6F5E184918F010F5F1F4F882321F069
:103080000E94DD2BF801F6CF40914B0250E060E04A
:1030900070E088EC92E00E94C34E8AE00E94DD2B33
:1030A0000C94F8218091E40583FF02C00C94F82170
:1030B00083E50E949929882311F40C94F8210E9439
:1030C000142A90932F0B80932E0B0E9440510C9446
:1030D000F82189E690E00E94F42C811111C0EFECF8
:1030E000F2E084918F010F5F1F4F882321F00E942F
:1030F000DD2BF801F6CF0E94682C8AE00E94DD2BC0
:103100001092A50C1092A40C0C9455278DE690E01B
:103110000E94F42C81110C94F8218091E40583FF26
:1031200002C00C94F82183E50E9499298AA7811195
:103130000C94EE2282E50E94992981110C94EE22D2
:103140000C94F8218091E40583FF02C00C94F821CF
:1031500083E50E9499298AA781110C94332482E582
:103160000E94992981110C9433240C94F82183E551
:103170000E949929882321F00E94072A8C0102C00D
:103180000FEF10E080E50E949929882331F00E941A
:10319000072A892B11F00C94F82198010F3F110593
:1031A00019F010F02FEF30E03093E3052093E205A3
:1031B0000C94F82180E50E949929811106C0109293
:1031C000E3051092E2050C94F8210E94072A892B4E
:1031D00011F00C94F821F3CF62E370E080E090E00E
:1031E0000E94F6580E9464550F5F1F4F033111056E
:1031F00099F762E370E080E090E00E94F6580E9448
:1032000064550C94F82110927D030C94F82181E010
:1032100080937D030C94F92183E50E9499298823EA
:10322000A1F00E94212A20E030E04AE754E40E9405
:10323000EC680E94866260934C0270934D0280930A
:103240004E0290934F020C94F82188E50E94992930
:1032500081110C94752589E50E94992981110C949E
:1032600075258AE50E94992981110C94752585E4BC
:103270000E94992981110C9475250E9407570E947C
:103280000A5A0C94F82183E50E949929882311F4A5
:103290000C94F8210E94212A20E030E04AE754E40F
:1032A0000E94EC680E9486626093AC0C7093AD0C37
:1032B0008093AE0C9093AF0C0C94F821B6E5CB2E16
:1032C000B2E0DB2E15E0E12E16E0F12E10E0D60183
:1032D0008D916D010E949929882309F46DC01330E6
:1032E00009F063C00E94212A4B015C0120E030E01C
:1032F00040EA51E40E94866887FF4EC0A501940110
:103300006091110670911206809113069091140637
:103310000E940D622B013C019B01AC016091B6053E
:103320007091B7058091B8059091B9050E94EC683D
:103330006093B6057093B7058093B8059093B9056F
:10334000A30192016091D2057091D3058091D405BB
:103350009091D5050E94EC686093D2057093D305D7
:103360008093D4059093D5056091F1057091F20595
:103370008091F3059091F4050E948B68A30192015E
:103380000E94EC680E9486626093F1057093F205DA
:103390008093F3059093F4058092110690921206A3
:1033A000A0921306B092140607C00E94212AF701CA
:1033B00060837183828393831F5FF4E0EF0EF11CBF
:1033C000143009F084CF0E94A03B0C94F8210E9495
:1033D00007570E949F2F0C94F821E0EEF2E08491B1
:1033E0008F010F5F1F4F882311F40C94F8210E9466
:1033F000DD2BF801F4CF84918F010F5F1F4F8823DD
:1034000021F00E94DD2BF801F6CFE6EBF3E084918A
:103410008F010F5F1F4F882321F00E94DD2BF801E1
:10342000F6CF659B03C000EF12E002C005EF12E08B
:10343000D8018D918D01882319F00E94DD2BF8CFE2
:103440008AE00E94DD2BEEEAF3E084918F010F5FAA
:103450001F4F882321F00E94DD2BF801F6CF8091C9
:10346000030181FF03C000EF12E002C005EF12E08C
:10347000F80181918F01882319F00E94DD2BF8CF8C
:103480008AE00E94DD2BE6EAF3E084918F010F5F72
:103490001F4F882321F00E94DD2BF801F6CF4B99B6
:1034A00003C000EF12E002C005EF12E0D8018D91D9
:1034B0008D01882309F4C1CD0E94DD2BF7CF81E077
:1034C00080934A028093A20594C710924A021092F8
:1034D000A2058EC788EC90E00E94F42C811188C769
:1034E00084E40E9499298823D1F10E94212A11E0C5
:1034F00020E030E0A9010E948668811101C010E03F
:103500001093A705112359F10091780310E00E9450
:10351000212A000F111F000F111FF801E85EFD4F57
:10352000608371838283938320E030E0A9016091FE
:1035300018027091190280911A0290911B020E9448
:10354000866881110CC080E090E0A0E4B0E4809334
:10355000180290931902A0931A02B0931B020E94C2
:10356000875C46C7E5EFEE2EE5E0FE2E06E512E0AD
:10357000F4E0DF2ED00EF80181918F010E9499298D
:10358000882351F00E94212A0E948662D7016D9300
:103590007D938D939C931397B4E0EB0EF11CD012A6
:1035A000EACF0E94733A24C766ECE62E65E0F62E59
:1035B00006E512E074E0D72ED00EF80181918F015C
:1035C0000E949929882341F00E94212AD7016D93F6
:1035D0007D938D939C931397B4E0EB0EF11CD01266
:1035E000ECCF06C783E50E9499298823D9F00E9471
:1035F000212AAB01BC014093BE055093BF056093E7
:10360000C0057093C1054093BA055093BB05609304
:10361000BC057093BD0582E394E00E94FD4E8AE0F4
:103620000E94DD2B80E50E949929882399F00E9451
:10363000212AAB01BC014093BE055093BF056093A6
:10364000C0057093C10585E194E00E94FD4E8AE0BB
:103650000E94DD2B82E50E949929882399F00E941F
:10366000212AAB01BC014093C2055093C30560936E
:10367000C4057093C50586EF93E00E94FD4E8AE075
:103680000E94DD2B84E50E949929882309F4B0C6A5
:103690000E94212AAB01BC014093BA055093BB059F
:1036A0006093BC057093BD0588ED93E00E94FD4ECC
:1036B0008AE00E94DD2B9CC683E50E94992988231D
:1036C00051F00E94212A6093DE057093DF058093FC
:1036D000E0059093E10584E50E949929882351F043
:1036E0000E94212A6093DA057093DB058093DC0544
:1036F0009093DD0582E40E949929882399F08091B6
:103700007603909177034AE050E060E070E0019624
:103710000E94D5666093D6057093D7058093D8052F
:103720009093D90588E50E949929882351F00E9439
:10373000212A6093AA057093AB058093AC05909302
:10374000AD0589E50E949929882351F00E94212A1C
:103750006093AE057093AF058093B0059093B1056B
:103760008AE50E949929882351F00E94212A6093BA
:10377000B2057093B3058093B4059093B50585E4C5
:103780000E949929882309F433C60E94212A609354
:10379000B6057093B7058093B8059093B90528C610
:1037A0000F5F1F4FF4E0CF0ED11C24E0E20EF11C9E
:1037B0000330110509F453C0F50181915F010E94A6
:1037C0009929882369F30E94212A2B013C01D70102
:1037D0002D913D914D915C910E9412619B01AC0134
:1037E000F60160817181828193810E941361D6010B
:1037F0006D937D938D939C931397F7014082518233
:1038000062827382C8010E945E2BCACFA6E9BBE028
:10381000BF8FAE8F82EA282E8BE0382EE3E8F5E0EA
:10382000FBA3EAA300E010E02AA13BA12358354006
:103830003BA72AA7AAA1BBA18D91BBA3AAA38111D3
:103840000EC42E8D3F8D2C5F3F4F3F8F2E8F0C5F10
:103850001F4F34E0230E311C0C30110529F70E9454
:10386000BE2A0E949F2FC4C5EEE6F5E184918F0128
:103870000F5F1F4F882321F00E94DD2BF801F6CF48
:1038800083E50E949929882321F00E94DB298093F7
:103890000402E2E8F4E084918F010F5F1F4F882358
:1038A00021F00E94DD2BF801F6CF809104028111F6
:1038B00003C0EEE7F4E002C0EAE7F4E084918F0190
:1038C0000F5F1F4F882321F00E94DD2BF801F6CFF8
:1038D000E2E7F4E084918F010F5F1F4F882321F00E
:1038E0000E94DD2BF801F6CF409196055091970587
:1038F000609198057091990580E794E00E94FD4ED3
:1039000040919A0550919B0560919C0570919D0591
:103910008DE694E00E94FD4E40919E0550919F05DA
:103920006091A0057091A1058AE694E00E94FD4E89
:10393000E2E6F4E084918F010F5F1F4F882321F0AE
:103940000E94DD2BF801F6CF409108025091090248
:1039500060910A0270910B0280E694E00E94FD4E95
:1039600040910C0250910D0260910E0270910F0275
:103970008DE594E00E94FD4E40911002509111029D
:1039800060911202709113028AE594E00E94FD4E4C
:103990008AE00E94DD2B2CC583E50E9499298823AB
:1039A00009F426C50E94142A90930602809305020A
:1039B0001FC58DED90E00E94F42C811119C583E59F
:1039C0000E949929882309F413C50091780310E017
:1039D0000E94142A000F111FF801E45EFD4F91832D
:1039E000808306C580E50E949929882309F400C5D3
:1039F0000E94142A8C0183E50E949929882321F0D2
:103A00000E94142A7C0103C0EE24EA94FE2CC70114
:103A10000196039708F0ECC417FDEAC4EAE5F2E06A
:103A2000C8019927219131912817390709F4E0C479
:103A300032E0EA3AF307B1F70C942D2785E40E94AF
:103A40009929811110C080E50E949929882399F055
:103A50000E94212A609338027093390280933A02BF
:103A600090933B0208C00E94142A181619065CF7AE
:103A7000E0E7F4E170C089E40E949929882381F08D
:103A80000E94212A2CEA35EC47E25EE30E94EC68B2
:103A9000609334027093350280933602909337021C
:103AA00084E40E949929882381F00E94212A2CEA2B
:103AB00035EC47E25EE30E940D6260933C02709336
:103AC0003D0280933E0290933F020EE615E1F8011D
:103AD0008491882329F00F5F1F4F0E94DD2BF7CFC1
:103AE000409138025091390260913A0270913B0244
:103AF0008AE994E00E94FD4E2CEA35EC47E25EE351
:103B000060913402709135028091360290913702B3
:103B10000E940D62AB01BC0186E994E00E94E04E78
:103B20002CEA35EC47E25EE360913C0270913D0285
:103B300080913E0290913F020E94EC68AB01BC0173
:103B400082E994E00E94E04E8AE00E94DD2B50C49E
:103B50000E94DD2BF80184918F010F5F1F4F8111AF
:103B6000F7CF0FEF12E0D8018D918D01882309F472
:103B700064CA0E94DD2BF7CF85E40E94992988232F
:103B800021F00E94142A8C0102C000E010E083E4BE
:103B90000E949929882339F00E94142AAB969FAF7E
:103BA0008EAFAB9706C0E5E0F0E0AB96FFAFEEAFAF
:103BB000AB9785E50E949929A0968FAFA09788239F
:103BC00029F00E94DB29A0968FAFA09783E50E9481
:103BD0009929882321F00E94142A7C0105C017FD31
:103BE00009C0B6E9EB2EF12C0115110531F4109244
:103BF000780303C0A6E4EA2EF12C1092A50C1092D3
:103C0000A40C0E9430594B015C01012B19F400E116
:103C100013E00EC003E213E0D8018D918D018823DB
:103C200019F00E94DD2BF8CF8AE00E94DD2BE0C363
:103C3000F80181918F01882319F00E94DD2BF8CFC4
:103C4000B701FF0C880B990B0E948D686EA37EA7AD
:103C50008AAB9EAB8AE00E94DD2B0E94A6518FE7C3
:103C60008093340B81E080930702A5968CAE9DAEC5
:103C7000AEAEBFAEA597AF968CAE9DAEAEAEBFAEAC
:103C8000AF971AAEF0E4FEAF2CE123962FAF239747
:103C900036E42F963FAF2F9763961FAE6397279614
:103CA0001FAE27972B961FAE2B9767961FAE679771
:103CB0006F961CAE1DAE1EAE1FAE6F976B961CAE00
:103CC0001DAE1EAE1FAE6B97C12CD12C7601FFE747
:103CD0004F2E512C612C712C8FE790E0A0E0B0E0CA
:103CE0008AA39BA3ACA3BDA3A9961CAE1DAE1EAE1A
:103CF0001FAEA99791E0A1969FAFA1971BA61AA608
:103D0000212C312C00E010E080910702882309F477
:103D100094C10E9430596E8F7F8F88A399A38091A0
:103D2000320B882309F4ABC00E9440552090360B1B
:103D30003090370B0091380B1091390B9101A8018D
:103D400063966FAD639727967FAD27972B968FADC0
:103D50002B9767969FAD67970E94866887FF0CC078
:103D600063962FAE639727963FAE27972B960FAF9C
:103D70002B9767961FAF67979101A8016AAD7EAD3B
:103D800023968FAD23972F969FAD2F970E94736335
:103D9000181644F42AAE3EAE23960FAF23972F9603
:103DA0001FAF2F97A196AFADA1972EA13EA54AA90F
:103DB0005EA9B101C801AA2309F447C00E94736338
:103DC00018160CF05CC04E8D5F8D68A179A1481962
:103DD00059096A097B09DB01CA0188589341A10985
:103DE000B109B7FD4CC08AA19BA1ACA1BDA18419AA
:103DF0009509A609B709B595A795979587958093D5
:103E0000340BA9964CAF5DAF6EAF7FAFA997BEA143
:103E10006396BFAF6397EEA52796EFAF2797FAA9F2
:103E20002B96FFAF2B972EA967962FAF67978E8D96
:103E30009F8DA8A1B9A1A5968CAF9DAFAEAFBFAF26
:103E4000A597A1961FAEA1971AC00E94866887FF0A
:103E500016C08E8D9F8DA8A1B9A1A5962CAD3DADA4
:103E60004EAD5FADA597821B930BA40BB50BAC01B8
:103E7000BD01485853416109710977FF5FC620E0D1
:103E800030E040EA51E46EA17EA58AA99EA90E9475
:103E900013619B01AC01B101C8010E947363181644
:103EA0006CF4E8E5F5E084918F010F5F1F4F8823E4
:103EB00009F49EC20E94DD2BF801F5CF80E398EF54
:103EC000AFEFBFEFAF962CAD3DAD4EAD5FADAF9751
:103ED000821B930BA40BB50B2E8D3F8D48A159A1CE
:103EE000820F931FA41FB51FB7FD0FC00E94682C3F
:103EF0008AE00E94DD2B8E8D9F8DA8A1B9A1AF967F
:103F00008CAF9DAFAEAFBFAFAF978E8D9F8DA8A189
:103F1000B9A1880F991FAA1FBB1FA5962CAD3DAD57
:103F20004EAD5FADA597821B930BA40BB50B881903
:103F30009909AA09BB0981389F44A241B10568F0DB
:103F4000EAE3F5E084918F010F5F1F4F882309F4A6
:103F50004FC20E94DD2BF801F5CF4AA55BA5AB96B9
:103F60008EAD9FADAB97841795070CF0CDCEEDEDE0
:103F7000F4E084918F010F5F1F4F882321F00E948E
:103F8000DD2BF801F6CFB701A60188EC94E00E9482
:103F9000FD4E8AE00E94DD2B6B964CAD5DAD6EADA3
:103FA0007FAD6B9783EB94E00E94FD4E8AE00E9408
:103FB000DD2B6F964CAD5DAD6EAD7FAD6F978EE92D
:103FC00094E00E94FD4E8AE00E94DD2BA0969FADFA
:103FD000A097992309F40CC2C0923802D0923902FA
:103FE000E0923A02F0923B022CEA35EC47E25EE3C3
:103FF0006B966CAD7DAD8EAD9FAD6B970E94EC68FE
:1040000060933402709335028093360290933702A6
:104010002CEA35EC47E25EE36F966CAD7DAD8EAD7C
:104020009FAD6F970E940D6260933C0270933D02BA
:1040300080933E0290933F02DBC180910702811181
:10404000D7C10E94A651D4C10E940757D1C181E0B7
:104050000E942B29CDC180E00E942B29C9C1F80103
:10406000E85FFD4F2081318142815381F801EA569A
:10407000FA4F60817181828193810E94136120E0F7
:1040800030E040E05FE30E94EC689B01AC01F1018D
:1040900060817181828193810E947363181634F468
:1040A000C8018251984F0E94582B03C060E070E015
:1040B000CB01D1018D909D90AD90BC90F801E55958
:1040C000FA4F20813181428153810E9413619B010B
:1040D000AC01C501B4010E9412616B017C0120E0BA
:1040E00030E040EA51EC0E94736387FD33C020E06A
:1040F00030E040EA51E4C701B6010E948668181614
:104100004CF1EE8DFF8D4080518062807380A7015D
:104110009601C301B2010E9412616B017C01A301EF
:1041200092010E9412619B01AC01C501B4010E9481
:104130001361D1016D937D938D939C931397EE8DB5
:10414000FF8DC082D182E282F3828AA59BA50E9464
:104150005E2B77CB00E714E1F8018491882329F0E6
:104160000F5F1F4F0E94DD2BF7CF0CEC15E0F8011D
:104170008491882309F43CC10F5F1F4F0E94DD2BFF
:10418000F6CFE0E7F4E184918F010F5F1F4F8823A2
:1041900021F00E94DD2BF801F6CFEAEEF5E08491E4
:1041A0008F010F5F1F4F882309F422C10E94DD2B6E
:1041B000F801F5CF0E944C361BC183E50E94992976
:1041C000882321F00E94DB2991E089270E940B338C
:1041D0000FC1EEE6F5E184918F010F5F1F4F882339
:1041E00021F00E94DD2BF801F6CFE5E1F6E08491A5
:1041F0008F010F5F1F4F882311F40C94E7170E9463
:10420000DD2BF801F4CFEEEFF5E084918F010F5F25
:104210001F4F882311F40C941D180E94DD2BF80108
:10422000F4CF4091A3055091A4056091A50570912C
:10423000A6058BEF95E00E94FD4E0C941D1884910D
:104240008F010F5F1F4F882321F00E94DD2BF801A3
:10425000F6CFEFE1F6E084918F010F5F1F4F8823C7
:1042600009F4C6C00E94DD2BF801F5CF81E08093F0
:10427000330283E50E949929882309F4EBC50E9443
:10428000DB298111B5C0E6C5E0927903EEE6F5E1E0
:1042900084918F010F5F1F4F882321F00E94DD2B37
:1042A000F801F6CFB70177278EE296E00E941A4F09
:1042B0008AE00E94DD2B9CC080E09BC00E94BD2B49
:1042C00083E50E949929882309F471C10E94DB29A2
:1042D000182F60E070E080EA90E40E94BD2885E538
:1042E00095E5A5E0B3E48093000290930102A093CA
:1042F0000202B09303021A8E1B8E1C8E1D8E20E0CC
:1043000030E040E251E4C501B4010E9412616E8BBD
:104310007F8B888F998F20E030E048EA51E4C70115
:10432000B6010E94126169837A838B839C839E010C
:10433000265E3F4F4AEA5BE0BE016A5E7F4FCE01D8
:1043400001960E94D92781E00E942B29882309F435
:1043500073C0412C512CE0EC6E2EEFE77E2E2CEA40
:1043600035EC47E257E3C701B6010E941361AB0188
:10437000BC018AE492E00E94E04E2CEA35EC47E270
:1043800057E3C501B4010E941361AB01BC0185E490
:1043900092E00E94E04E2CEA35EC47E257E3C3017D
:1043A000B2010E941361AB01BC0180E492E00E9463
:1043B000E04E8AE00E94DD2B80917203909173039E
:1043C000A0917403B0917503809300029093010251
:1043D000A0930202B0930302809170039091710345
:1043E00090930602809305020E94B22B0E949F2F99
:1043F00081E01092A50C1092A40C81111AC00C94AB
:104400008E0C84918F010F5F1F4F882321F00E9433
:10441000DD2BF801F6CF6091A60C7091A70C80E41B
:1044200096E00E94093A82E20E94DD2B8AE00E9417
:10443000DD2B0E94EB5C39C50E94B22B20E030E0FE
:1044400040EA50E4609173057091740580917505A0
:10445000909176050E9413612B013C016A8F7B8F3E
:104460008C8F9D8F8091A3059091A405A091A505A7
:10447000B091A6058E8F9F8FA8A3B9A320E030E04E
:10448000A901BC01CD010E94866887FF0CC02E8D5A
:104490003F8D48A159A1C301B2010E9412616A8FE8
:1044A0007B8F8C8F9D8F2091AA0B3091AB0B40910D
:1044B000AC0B5091AD0B6A8D7B8D8C8D9D8D0E94C8
:1044C000866887FF14C080E090E0A0E8B0E48983AC
:1044D0009A83AB83BC839E012F5F3F4FAE01465E44
:1044E0005F4F66EA7BE082EA9BE00E94D92780E08A
:1044F00090E0A0E0B0E48E8B9F8BA88FB98F20E076
:1045000030E042E553E46091730570917405809149
:104510007505909176050E94126169837A838B8379
:104520009C839E012A5E3F4FAE014F5F5F4F66EA5C
:104530007BE082EA9BE00E94D9271092D20B0E9476
:10454000CC5C8091A00C9091A10CA091A20CB09198
:10455000A30C8093AA0B9093AB0BA093AC0BB093DE
:10456000AD0B0E94BE2A2091A3053091A405409175
:10457000A5055091A6056091AA0B7091AB0B809197
:10458000AC0B9091AD0B0E9413612B013C011111FA
:1045900007C060E070E080EA90E40E94BD28DFCEB2
:1045A00080E00E942B29882309F4D9CED2CE11E0D5
:1045B00090CE61E08D2D0E94F1576E2D8D2D0E94C1
:1045C000C157B7018D2D0E942D580930110509F0F2
:1045D0000FCFF092E305E092E2050ACF0E94142A81
:1045E0009093310B8093300B80E00E9473510E94B6
:1045F000142A181619061CF00E943C5902C00E9489
:1046000055590E94313A81E0809307021092A50C1F
:104610001092A40C1AA21BA21CA21DA21EA21FA2D1
:1046200018A619A61E8E1EA65CE35AAB8CE18EABB3
:1046300096E49AAFC12CD12C90E8E92E2FEBF22E04
:10464000812C912C54016091300B7091310B072E0D
:10465000000C880B990B0E948D68162F072F782E5F
:10466000692E262F372F482F592FB601C7010E94D8
:1046700086688823D1F02091360B3091370B40911A
:10468000380B5091390B612F702F872D962D0E947A
:104690008668881F8827881F8E8FAAA5AA2349F0BD
:1046A000882339F080910702A3CE1C2D0D2D7E2C7E
:1046B0006F2C0E9430596B017C01DC01CB012EA1D3
:1046C0003FA148A559A5821B930BA40BB50BB7FDC1
:1046D00045C0D701C60188519C4FAF4FBF4F8EA335
:1046E0009FA3A8A7B9A70E94682CE5EDF2E08491EA
:1046F0002F019FEF491A590A882321F00E94DD2BD0
:10470000F201F5CF81149104A104B104D1F0D501D7
:10471000C401805F984DAF4FBF4FBC01CD016C19F4
:104720007D098E099F0928EE33E040E050E00E94A9
:10473000646CCA01B9010E944C2C8AE00E94DD2BF6
:104740000DC0E2EDF2E084912F01AFEF4A1A5A0A50
:10475000882321F00E94DD2BF201F5CF0E944C5AF4
:104760000E94B22B6091360B7091370B8091380B01
:104770009091390B0E947F62072E000C880B990BD9
:104780000E948D681B012C019B01AC01612F702FD1
:10479000872D962D0E9412619F7781149104A104A8
:1047A000B10449F420E030E040E85FE30E9486680D
:1047B00087FF0BC008C020E030E040E450E40E94D6
:1047C0007363181614F446015701BE8DBB2379F1AB
:1047D0002AA13BA14CA15DA121153105410551053F
:1047E00041F0D701C601821B930BA40BB50BB7FD9B
:1047F0001EC09101A2016EA57AA98EA99AAD0E9450
:10480000126120E030E040EC5FE30E94866887FDA3
:1048100049CFD701C601805A9541AF4FBF4F8AA3F8
:104820009BA3ACA3BDA32EA63AAA4EAA5AAE8091D2
:104830000702882309F436CF81149104A104B1043E
:1048400029F4C12ED02EE72CF62CFDCE90E1C91A0A
:1048500097E2D90AE108F108C818D908EA08FB0864
:10486000F7FE20CFEECF0E94142A90932F0B809357
:104870002E0B0E9440510E94142A069714F00E94A9
:10488000555981E0809307021092A50C1092A40C58
:1048900080917903809378031AA21BA21CA21DA207
:1048A0001EA21FA218A619A61E8E1EA6ACE3AAABB6
:1048B000BCE1BEABE6E4EAAFC12CD12C00E8E02EAF
:1048C0008FEBF82E812C912C540160912E0B70915E
:1048D0002F0B072E000C880B990B0E948D68162F4A
:1048E000072F782E692E262F372F482F592FB601E4
:1048F000C7010E9486688823D1F02091290B30914E
:104900002A0B40912B0B50912C0B612F702F872D70
:10491000962D0E948668881F8827881F8E8FFAA58B
:10492000FF2349F0882339F08091070261CD1C2DC7
:104930000D2D7E2C6F2C0E9430596B017C01DC0107
:10494000CB012EA13FA148A559A5821B930BA40B17
:10495000B50BB7FD45C0D701C60188519C4FAF4F7D
:10496000BF4F8EA39FA3A8A7B9A70E94682CECED08
:10497000F2E084912F019FEF491A590A882321F010
:104980000E94DD2BF201F5CF81149104A104B10442
:10499000D1F0D501C401805F984DAF4FBF4FBC012E
:1049A000CD016C197D098E099F0928EE33E040E0A6
:1049B00050E00E94646CCA01B9010E944C2C8AE04C
:1049C0000E94DD2B0DC0E9EDF2E084912F01AFEFE5
:1049D0004A1A5A0A882321F00E94DD2BF201F5CFF2
:1049E0000E944C5A0E94B22B6091290B70912A0BA5
:1049F00080912B0B90912C0B0E947F62072E000C54
:104A0000880B990B0E948D681B012C019B01AC0146
:104A1000612F702F872D962D0E9412619F77811430
:104A20009104A104B10449F420E030E040E85FE3E0
:104A30000E94866887FF0BC008C020E030E040E499
:104A400050E40E947363181614F446015701BE8D9A
:104A5000BB2379F12AA13BA14CA15DA12115310510
:104A60004105510541F0D701C601821B930BA40BF0
:104A7000B50BB7FD1EC09101A2016EA57AA98EA942
:104A80009AAD0E94126120E030E040EC5FE30E94AA
:104A9000866887FD49CFD701C601805A9541AF4F3F
:104AA000BF4F8AA39BA3ACA3BDA32EA63AAA4EAA2E
:104AB0005AAE80910702882309F436CF81149104FD
:104AC000A104B10429F4C12ED02EE72CF62CFDCE82
:104AD00090E1C91A97E2D90AE108F108C818D90883
:104AE000EA08FB08F7FE20CFEECF0E94075788E5C3
:104AF0000E949929882319F05F9A1092920B89E5F8
:104B00000E949929882319F08A9A1092930B8AE5BA
:104B10000E949929882351F09FB7F8948091080149
:104B20008160809308019FBF1092940B85E40E94DE
:104B30009929882309F45CCC129A5ACC4AA55BA522
:104B4000141615060CF05DC1A9968CAC9DACAEACEC
:104B5000BFACA997880E991EAA1EBB1EA9962CADA4
:104B60003DAD4EAD5FADA997281B390B4A0B5B0BD2
:104B7000CA01B901A30192010E94546CA5019401DC
:104B80000E94E4604AA05BA06CA07DA0420E531E70
:104B9000641E751E34E143165104610471040CF166
:104BA0004CEE44165104610471043CF450E845167F
:104BB0005104610471041CF105C05BEE452E512CBB
:104BC000612C712C4AA25BA26CA27DA28EEF90E0B8
:104BD000A0E0B0E084199509A609B7092C013D01B0
:104BE00012C024E130E040E050E02AA33BA34CA3F4
:104BF0005DA344E1442E512C612C712C04C04AA2C7
:104C00005BA26CA27DA2E4ECF5E084919F012F5F92
:104C10003F4F882381F0E2962FAFE297E3963FAFB4
:104C2000E3970E94DD2BE2962FADE297E3963FAD2E
:104C3000E397F901EACF6AA17BA18CA19DA10E9413
:104C40004C2CEFEBF5E084919F012F5F3F4F8823C1
:104C500081F0E2962FAFE297E3963FAFE3970E9491
:104C6000DD2BE2962FADE297E3963FADE397F90196
:104C7000EACFC301B2010E944C2C4AAD5EAD23962F
:104C80006FAD23972F967FAD2F9788EB95E00E940D
:104C9000FD4E63964FAD639727965FAD27972B9692
:104CA0006FAD2B9767967FAD679781EB95E00E947C
:104CB000FD4E4AA55BA5433051050CF4A2C0C301CB
:104CC000B2010E948D6820E030E040E850E40E948C
:104CD000EC686B017C012AAD3EAD23964FAD239766
:104CE0002F965FAD2F9763966FAD639727967FAD35
:104CF00027972B968FAD2B9767969FAD67970E944E
:104D000012612BED3FE049E450E40E94EC6820E0A2
:104D100030E040E05FE30E94EC689B01AC01C7011A
:104D2000B6010E940D626B017C01C501B4010E94B5
:104D30008D682FE632E143E85AE30E94EC684B01AC
:104D40005C01B701A6018BEA95E00E94FD4EB5011A
:104D5000A40185EA95E00E94FD4E2AE939E949E17E
:104D60005FE3C701B6010E94EC686B017C019B0107
:104D7000AC010E941361A50194010E940D626B9623
:104D80006CAF7DAF8EAF9FAF6B97A5019401C7014C
:104D9000B6010E94EC6820E030E040E05EE30E9453
:104DA000EC686F966CAF7DAF8EAF9FAF6F97E5E904
:104DB000F5E084915F015FEFA51AB50A882321F021
:104DC0000E94DD2BF501F5CFB701A6018FE895E034
:104DD0000E94FD4E6B964CAD5DAD6EAD7FAD6B9799
:104DE00089E895E00E94FD4E6F964CAD5DAD6EADCD
:104DF0007FAD6F9783E895E00E94FD4E8AE00E94A8
:104E0000DD2B8AA19BA1ACA1BDA1840D951DA61D82
:104E1000B71DB595A795979587958093340B8AA56F
:104E20009BA501969BA78AA79EA19AAFAEA5AEAF00
:104E3000BAA92396BFAF2397EEA92F96EFAF2F976E
:104E40008E8C9F8CA8A0B9A0F1E0A196FFAFA1978E
:104E50000C943F1F0E940A5DCBCA0E940757D02EB8
:104E600060E0802F0E94F1574FEFE416F40659F4EA
:104E7000802F0E94985731E020E0892B09F030E024
:104E8000032F122F05C0EA94EF2861F000E010E034
:104E90008D2D0E9498578017910709F4A9CA0E9486
:104EA0004C5AF6CF01E010E0F3CFCE58DF4F0FB6EB
:104EB000F894DEBF0FBECDBFDF91CF911F910F9150
:104EC000FF90EF90DF90CF90BF90AF909F908F902A
:104ED0007F906F905F904F903F902F9008958FB785
:104EE000F8949091930C2091920C291759F0E92F86
:104EF000F0E0EE5EF34F208130E09F5F9F7790936C
:104F0000930C02C02FEF3FEF8FBFC9010895CF92DE
:104F1000EF92FF920F931F93E0900002F090010236
:104F20000091020210910302C09079032EEA3BE047
:104F30004AEA5BE066EA7BE082EA9BE00E94CC3BC7
:104F40001F910F91FF90EF90CF900895FF920F93D4
:104F50001F93CF93DF93FC0120812B3319F1D09164
:104F6000D40BD430F8F4F62EBC01C09101050C2FFF
:104F700010E0F0E6CF9FC00111248F579C4F0E9494
:104F80003464F801EE54F44FF082CF5FC43018F46B
:104F9000C093010502C010920105DF5FD093D40BCE
:104FA00081E001C080E0DF91CF911F910F91FF90D0
:104FB00008954F925F926F927F928F929F92AF92DD
:104FC000BF92CF92DF92EF92FF920F931F93CF93F6
:104FD000DF935C014B01EA0189014090000250908F
:104FE00001026090020270900302288139814A8197
:104FF0005B816091AA0B7091AB0B8091AC0B90918F
:10500000AD0B0E94866887FF2AC0F801C080D1805E
:10501000E280F38020E030E0A901C701B6010E94E0
:105020008668811106C0C12CD12C20E8E22E20E434
:10503000F22EC0920002D0920102E0920202F0929F
:10504000030288819981AA81BB818093AA0B9093E6
:10505000AB0BA093AC0BB093AD0B0E948727F8016C
:10506000C080D180E280F38020E030E0A901C70158
:10507000B6010E948668811107C095E5C92EDC2C17
:1050800095E0E92E93E4F92EC0920002D09201023D
:10509000E0920202F0920302F50180819181A281E7
:1050A000B3818093A20B9093A30BA093A40BB09316
:1050B000A50BF40180819181A281B3818093A60B1D
:1050C0009093A70BA093A80BB093A90B0E948727DE
:1050D000288139814A815B816091AA0B7091AB0B69
:1050E0008091AC0B9091AD0B0E947363181654F530
:1050F000F801C080D180E280F38020E030E0A90197
:10510000C701B6010E948668811106C0C12CD12C4E
:1051100080E8E82E80E4F82EC0920002D0920102CE
:10512000E0920202F092030288819981AA81BB81F8
:105130008093AA0B9093AB0BA093AC0BB093AD0BE9
:105140000E9487270E940757409200025092010256
:105150006092020270920302DF91CF911F910F9132
:10516000FF90EF90DF90CF90BF90AF909F908F9087
:105170007F906F905F904F9008958F929F92AF9223
:10518000BF92CF92DF92EF92FF92CF93DF93CDB792
:10519000DEB728970FB6F894DEBF0FBECDBF2091C3
:1051A00073053091740540917505509176050E9404
:1051B00013616B017C0169837A838B839C8380906C
:1051C000A3059090A405A090A505B090A60520E0A9
:1051D00030E0A901C501B4010E94866887FF0AC0BA
:1051E000A5019401C701B6010E94126169837A8307
:1051F0008B839C832091AA0B3091AB0B4091AC0B1D
:105200005091AD0B69817A818B819C810E9473637F
:10521000181684F41D821E821F8218869E012B5F41
:105220003F4FAE014F5F5F4F66EA7BE082EA9BE053
:105230000E94D92728960FB6F894DEBF0FBECDBFC7
:10524000DF91CF91FF90EF90DF90CF90BF90AF9024
:105250009F908F9008951F93CF93DF93CDB7DEB7C4
:105260002C970FB6F894DEBF0FBECDBF9091950B73
:10527000981789F1182F60E070E080E291E40E94B5
:10528000BD288091A20B9091A30BA091A40BB0918B
:10529000A50B89879A87AB87BC878091A60B9091D5
:1052A000A70BA091A80BB091A90B8D839E83AF8310
:1052B000B88719821A821B821C829E012F5F3F4F82
:1052C0004AEA5BE0BE016B5F7F4FCE0109960E9408
:1052D000D9271093950B80E02C960FB6F894DEBF7B
:1052E0000FBECDBFDF91CF911F91089580E1E6E819
:1052F000F5E0A2EABBE001900D928A95E1F70895EE
:10530000CF92EF92FF920F931F93C09079037B018E
:105310008C0122E935E04EE855E06AE875E086E860
:1053200095E00E94CC3B1F910F91FF90EF90CF90A2
:105330000895682F880F770B80917F0390918003E9
:105340000E9420649C01909377038093760381E010
:10535000232B09F480E008958091760390917703E0
:105360004AE050E060E070E001960E94AA6597FD77
:105370001EC080917603909177034AE050E060E090
:1053800070E001960E94AA656F3F71058105910545
:1053900009F07CF480917603909177034AE050E025
:1053A00060E070E001960E94AA65862F089580E073
:1053B00008958FEF0895E0917603F091770381814E
:1053C00021E030E0803239F42F5F3F4FDF01A20F40
:1053D000B31F8C91F7CF8D3211F08B3231F42F5FE8
:1053E0003F4FDF01A20FB31F8C918E3219F4E20FF1
:1053F000F31F818180538A3038F40E94AC2991E0F8
:10540000811103C090E001C091E0892F089580913F
:105410007603909177034AE050E060E070E00196F7
:105420000E94D566CB010895809176039091770311
:105430004AE050E060E070E001960E94AA65CB016E
:1054400008950F931F93CF93DF93C0917603D0916C
:10545000770365E470E0CE010E9420648C01CE01E8
:1054600001960115110541F460E070E0DF91CF91E4
:105470001F910F910C943B64F801108260E070E082
:105480000E943B6425E4F8012083DF91CF911F91B6
:105490000F910895BF92CF92DF92EF92FF920F93F8
:1054A0001F93CF93DF9386E8E82E85E0F82E02EA7B
:1054B0001BE09AE7C92E93E0D92EC6E5D2E0BC2EB8
:1054C00084E0B80E89910E9499298823D9F00E941E
:1054D000212AF6012081211104C020917E0322237C
:1054E00031F0F801208131814281538103C020E0F5
:1054F00030E0A9010E941361F70160837183828308
:1055000093830AC0F80180819181A281B381F70160
:1055100080839183A283B383F4E0EF0EF11C0C5FD0
:105520001F4F8FEFC81AD80ABC12CCCF86E40E9456
:1055300099298823C9F00E94212A20E030E0A9019E
:105540000E947363181684F40E94212A20E030E040
:1055500040E752E40E940D626093000270930102E2
:105560008093020290930302DF91CF911F910F91DC
:10557000FF90EF90DF90CF90BF9008952EEA3BE030
:105580004AEA5BE066EA7BE082EA9BE00C94DD3A63
:1055900088E893E19093F00A8093EF0A80916F007E
:1055A0008D7F80936F009091F90B8091FA0B981783
:1055B00019F00E941248F7CF1092180B1092170B97
:1055C00080916F00826080936F000E9407570E9455
:1055D000CC5C8CE0E8E9FCE0A2EABBE001900D9233
:1055E0008A95E1F70C94BE2AAF92BF92CF92DF92D8
:1055F000EF92FF920F931F93CF93DF9300D01F92F0
:10560000CDB7DEB779015C01AA0CBB1CAA0CBB1C90
:10561000C5018E55944F6C01FC01108211821282DB
:10562000138249835A836B837C830E94BE2A4981FB
:105630005A816B817C81F60140835183628373833D
:10564000C090790320E030E0A901B801C7010E94B1
:105650008668811108C0F501E052FD4F308121813B
:105660009281838104C0302F212F9E2D8F2DE32E18
:10567000F22E092F182F2EEA3BE04AEA5BE066EA99
:105680007BE082EA9BE00E94CC3B0E94075710928D
:10569000D20B0F900F900F900F90DF91CF911F9131
:1056A0000F91FF90EF90DF90CF90BF90AF90089553
:1056B000FC0165917591859194910895CF92DF9247
:1056C000EF92FF920F931F93CF93DF93EC01CC0FD8
:1056D000DD1FCC0FDD1FFE01EA56F44F20E030E065
:1056E000A90160817181828193810E941361FE0111
:1056F000E958FA4F20813181428153810E94136120
:105700006B017C01FE01E559FA4F6083718382834E
:105710009383CE018655984F0E94582B8E010A56CE
:105720001A4FA70196010E941361F80160837183EB
:1057300082839383CE018256984F0E94582BC85F74
:10574000DD4FA70196010E941361688379838A83E4
:105750009B83DF91CF911F910F91FF90EF90DF908E
:10576000CF9008950E9430596093A80C7093A90CB3
:105770008093AA0C9093AB0C0895809100029091B5
:105780000102A0910202B0910302809372039093F0
:105790007303A0937403B0937503809105029091F5
:1057A0000602909371038093700384E690E09093D7
:1057B0000602809305020C94B22B9091C00095FFD5
:1057C000FCCF8093C60008958F929F92AF92BF92B4
:1057D000EF92FF921F93CF93DF93CDB7DEB7A097E1
:1057E0000FB6F894DEBF0FBECDBF61157105810500
:1057F000910581F110E0842E912CA12CB12CEE2486
:10580000E394F12CEC0EFD1EE10EF11C17FDFA9451
:10581000A50194010E94646CF7016083B901CA017B
:105820001F5F611571058105910549F7115020F140
:10583000E1E0F0E0EC0FFD1FE10FF11D17FDFA951F
:1058400080818A3010F097E301C090E3890F0E94B5
:10585000DD2BECCF80E3A0960FB6F894DEBF0FBE31
:10586000CDBFDF91CF911F91FF90EF90BF90AF9090
:105870009F908F900C94DD2BA0960FB6F894DEBF0E
:105880000FBECDBFDF91CF911F91FF90EF90BF90E2
:10589000AF909F908F900895CF92DF92EF92FF92FA
:1058A0006B017C0197FF0BC08DE20E94DD2BF09411
:1058B000E094D094C094C11CD11CE11CF11C4AE0BE
:1058C000C701B601FF90EF90DF90CF900C94E42BCE
:1058D000CF93DF93E9ECF7E08491EF0121968823E1
:1058E00021F00E94DD2BFE01F7CF6091360B709105
:1058F000370B8091380B9091390B0E947F62072EF5
:10590000000C880B990B0E944C2CE6ECF7E084917C
:10591000EF012196882321F00E94DD2BFE01F7CFB5
:105920006091300B7091310B072E000C880B990B96
:105930000E944C2CE2ECF7E08491EF012196882341
:1059400021F00E94DD2BFE01F7CF6091290B7091B1
:105950002A0B80912B0B90912C0B0E947F62072EBB
:10596000000C880B990B0E944C2CEFEBF7E0849114
:10597000EF012196882321F00E94DD2BFE01F7CF55
:1059800060912E0B70912F0B072E000C880B990B3A
:105990000E944C2CEBEBF7E08491EF0121968823D9
:1059A00021F00E94DD2BFE01F7CFE0917803F0E0BB
:1059B000EC5CF44F608170E080E090E00E944C2C41
:1059C000E6EBF7E08491EF012196882321F00E9415
:1059D000DD2BFE01F7CF6091330B70E080E090E0AB
:1059E000DF91CF910C944C2CEF92FF921F93CF93A9
:1059F000DF937C0184E50E949929182F882351F1B7
:105A00000E94AC29882301F1EEE6F5E18491EF01D3
:105A10002196882321F00E94DD2BFE01F7CF8DE433
:105A20000E94DD2BB701FF0C880B990B0E944C2CB8
:105A30000E94AC29682F70E08BE897E00E941A4F13
:105A40008AE00E94DD2B0AC00E94AC298093780373
:105A500010E004C08091790380937803812FDF9157
:105A6000CF911F91FF90EF900895EF92FF920F93C7
:105A70001F93CF93DF931F92CDB7DEB7082F162F5A
:105A8000E0E7F4E184917F012FEFE21AF20A882324
:105A900031F099830E94DD2BF7019981F3CFE02F3C
:105AA000F92F84917F019FEFE91AF90A882321F0E9
:105AB0000E94DD2BF701F5CF6091940C7091950C4D
:105AC0008091960C9091970C0E944C2C8AE00E9439
:105AD000DD2B11110E940A5D109269051092680574
