:100000000C940D0C0C943E0C0C943E0C0C943E0C79
:100010000C943E0C0C943E0C0C943E0C0C943E0C38
:100020000C943E0C0C943E0C0C943E0C0C943E0C28
:100030000C943E0C0C943E0C0C943E0C0C943E0C18
:100040000C943E0C0C9496270C943E0C0C943E0C95
:100050000C943E0C0C943E0C0C94E5180C94CC16AD
:100060000C943E0C0C94D5130C943E0C0C943E0C4A
:100070000C943E0C0C943E0C0C943E0C0C943E0CD8
:100080000C943E0C0C943E0C0C943E0C0C943E0CC8
:100090000C943E0C0C943E0C0C943E0C0C943E0CB8
:1000A0000C943E0C0C943E0C0C943E0C0C943E0CA8
:1000B0000C943E0C0C943E0C0C943E0C0C943E0C98
:1000C0000C943E0C0C943E0C0C943E0C0C943E0C88
:1000D0000C943E0C0C943E0C0C943E0C0C943E0C78
:1000E0000C943E0C49144C143B143F1445148314D7
:1000F000501454145A145E14621468146C1470145E
:10010000831476147A147E14E815ED15F215FC1597
:1001100006167F161016181620162A1634163E16C6
:100120004D1657167F1661166B1675164919571915
:10013000761984199F19A219A519A819AB19AE1916
:10014000B119B419BE19084AD73B3BCE016E84BC25
:10015000BFFDC12F3D6C74319ABD56833DDA3D0021
:10016000C77F11BED9E4BB4C3E916BAAAABE00006A
:1001700000803F05A84CCDB2D44EB93836A9020C48
:1001800050B9918688083CA6AAAA2ABE0000008021
:100190003F004E414E494E495459494E46CDCCCC74
:1001A0003D0AD7233C17B7D13877CC2B329595E64B
:1001B000241FB14F0A000020410000C84200401C2B
:1001C0004620BCBE4CCA1B0E5AAEC59D74434F4D53
:1001D0004D554E49434154494F4E00445259525592
:1001E0004E004552524F525300494E464F00454330
:1001F000484F0020746F6F206C6F6E6720657874B5
:10020000727573696F6E2070726576656E74656461
:100210000A0020636F6C6420657874727573696F6F
:100220006E2070726576656E7465640A0047322FC1
:1002300047332062616420706172616D657465721C
:10024000730A00536C6565702E2E2E004E6F206D64
:100250006F76652E002569730025696D2025697309
:10026000002569682025696D20256973002569646A
:10027000202569682025696D202569730025697925
:1002800020256964202569682025696D202569730A
:10029000005072696E742074696D653A2000507266
:1002A0006F7465637465642050696E0A0048656107
:1002B00074696E672E2E2E003344205072696E745E
:1002C00065722072656164792E00EE01E901E20138
:1002D000DB01CD016F66660044454255473A004B4D
:1002E000494C4C45442E20004D3131332053006F92
:1002F0006B0048656174696E6720646F6E652E00DF
:100300003F0A0020573A0048656174696E672E2ED7
:100310002E003344205072696E74657220726561DC
:1003200064792E0042656420646F6E652E003F0A7A
:100330000020573A004265642048656174696E6721
:100340002E004649524D574152455F4E414D453A68
:100350004D61726C696E20312E312E302D52433832
:1003600020284769746875622920534F55524345C8
:100370005F434F44455F55524C3A68747470733A0A
:100380002F2F6769746875622E636F6D2F4D6172D0
:100390006C696E4669726D776172652F4D61726C22
:1003A000696E2050524F544F434F4C5F5645525345
:1003B000494F4E3A312E30204D414348494E455F1A
:1003C000545950453A3344205072696E7465722016
:1003D00045585452554445525F434F554E543A3157
:1003E00020555549443A63656465326132662D345F
:1003F0003161322D343734382D396231322D633545
:10040000356336326633363766660A007A5F6D6961
:100410006E3A2000795F6D696E3A2000785F6D69F1
:100420006E3A20005265706F7274696E6720656E57
:100430006473746F70207374617475730A0053650C
:100440007474696E672054726176656C20416363D1
:10045000656C65726174696F6E3A200053657474DF
:10046000696E6720526574726163742041636365CD
:100470006C65726174696F6E3A20005365747469BB
:100480006E67205072696E7420416363656C65729B
:100490006174696F6E3A200053657474696E6720E9
:1004A0005072696E7420616E642054726176656C5E
:1004B00020416363656C65726174696F6E3A2000F8
:1004C000205A00205900580020204D61783A200021
:1004D000205A00205900580020204D696E3A200013
:1004E0004F6E20004F666600536F667420656E6421
:1004F00073746F70733A200020643A0020693A00E8
:1005000020703A0043290A0061626C656420286DFE
:10051000696E2074656D702000436F6C642065788F
:10052000747275646573206172652000236465666A
:10053000696E65202044454641554C545F4B64200C
:100540000023646566696E65202044454641554C2C
:10055000545F4B69200023646566696E6520204402
:10056000454641554C545F4B702000504944204152
:1005700075746F74756E652066696E6973686564FD
:10058000212050757420746865206C617374204B51
:10059000702C204B6920616E64204B6420636F6E69
:1005A0007374616E74732066726F6D2062656C6F18
:1005B0007720696E746F20436F6E6669677572612C
:1005C00074696F6E2E680A00504944204175746F3B
:1005D00074756E65206661696C6564212074696D4F
:1005E000656F75740A00504944204175746F7475C5
:1005F0006E65206661696C6564212054656D706567
:1006000072617475726520746F6F20686967680A1B
:1006100000204B643A2000204B693A2000204B70A8
:100620003A20000A20436C61737369632050494487
:10063000200A002054753A2000204B753A200020F3
:100640006D61783A2000206D696E3A200020643A8E
:10065000200020626961733A20004F6666736574FA
:1006600073206170706C696564004572723A205441
:100670006F6F206661722100546F6F206661722077
:1006800066726F6D207265666572656E6365207057
:100690006F696E740A000000000000000000000096
:1006A0000000454550524F4D2064697361626C658E
:1006B000640A004572726F723A004163746976652C
:1006C0002045787472756465723A2000556E6B6EC1
:1006D0006F776E20636F6D6D616E643A2022004506
:1006E0006E6473746F707320256320256320256307
:1006F00020256300205A3A0020593A0020583A0039
:10070000656E6473746F7073206869743A20006555
:1007100063686F3A00656E7175657565696E67200F
:1007200022004E6F204C696E65204E756D626572B9
:10073000207769746820636865636B73756D2C201E
:100740004C617374204C696E653A20004B494C4CE7
:1007500045442E200053544F505045442E20005005
:1007600072696E7465722073746F70706564206452
:10077000756520746F206572726F72732E204669E2
:100780007820746865206572726F7220616E6420D3
:10079000757365204D39393920746F207265737413
:1007A0006172742E202854656D7065726174757263
:1007B000652069732072657365742E2053657420FB
:1007C00069742061667465722072657374617274F5
:1007D000696E67290A004E6F20436865636B737505
:1007E0006D2077697468206C696E65206E756D6226
:1007F00065722C204C617374204C696E653A200040
:10080000636865636B73756D206D69736D61746387
:10081000682C204C617374204C696E653A20004C42
:10082000696E65204E756D626572206973206E6F0A
:1008300074204C617374204C696E65204E756D6236
:1008400065722B312C204C617374204C696E653AB3
:1008500020004D3131300020496E76616C69642092
:10086000657874727564657220000000484300006A
:100870004843000048430000000000000000000062
:1008800000002042403A0020403A00202F00204241
:100890003A00202F0020543A00205A3A0020593ABA
:1008A0000020436F756E7420583A200020453A00AE
:1008B000205A3A0020593A00583A004B494C4C45CE
:1008C000442E2000202D20496E76616C69642065DD
:1008D00078747275646572206E756D626572202120
:1008E0000A00544845524D414C2052554E41574103
:1008F0005900546865726D616C2052756E61776144
:1009000079004572723A204D415854454D5020426D
:100910004544004572723A204D415854454D5000AF
:100920004D415854454D5020747269676765726532
:1009300064004572723A204D494E54454D50204254
:100940004544004572723A204D494E54454D500081
:100950004D494E54454D5020747269676765726504
:10096000640000002100240027002A002D00300030
:10097000330001010000040107010A010000220008
:10098000250028002B002E00310034000201000059
:10099000050108010B0100002000230026002900AA
:1009A0002C002F00320000010000030106010901A4
:1009B00005050505070508080808020202020A0ADB
:1009C00008080404040401010101010101010303F9
:1009D000030303030303040707070C0C0C0C0C0CA4
:1009E0000C0C0202020206060606060606060B0BA1
:1009F0000B0B0B0B0B0B01021020200808102040E2
:100A000010204080020102010804020101020408D2
:100A10001020408080402010080402018004020160
:100A200080402010080402010804020101020408A9
:100A300010204080010204081020408000000A0BB2
:100A400002090C0D0E08070304010000000000005D
:100A50000000000000000000000000000000000096
:100A60000000000000000000121110000000000053
:100A70000000000000000000000000000000000076
:100A80000000526573656E643A20006F6B006275FA
:100A900073793A2070617573656420666F7220699E
:100AA0006E7075740A00627573793A20706175739F
:100AB000656420666F7220757365720A00627573D3
:100AC000793A2070726F63657373696E670A004BC1
:100AD000494C4C45442E2000506C65617365207272
:100AE00065736574005072696E7465722068616C1C
:100AF0007465642E206B696C6C28292063616C6CB2
:100B00006564210A002D2D2D2D2D2D007C4D617247
:100B10006C696E7C002D2D2D2D2D2D006874747048
:100B20003A2F2F6D61726C696E66772E6F72670057
:100B3000312E312E302D52433800312E312E302DB2
:100B400052433800002020506C616E6E6572427511
:100B50006666657242797465733A20002046726554
:100B600065204D656D6F72793A2000436F6D706935
:100B70006C65643A204D6179202032203230313763
:100B80000A00207C20417574686F723A2028454124
:100B900052544820436C6F6E6520433161290A002E
:100BA000323031362D31322D30362031323A30303C
:100BB00000204C61737420557064617465643A2040
:100BC00000312E312E302D5243380A004D61726CA7
:100BD000696E0020536F6674776172652052657389
:100BE00065740A00205761746368646F67205265FA
:100BF0007365740A002042726F776E206F757420DF
:100C000052657365740A002045787465726E616C74
:100C10002052657365740A00506F77657255700ACB
:100C20000073746172740A0024F4D43050C38E20AF
:100C3000C2A24017828B7011127A910D816CD90A71
:100C4000A861E108C7586607615143061E4B5D0560
:100C5000C145A7041A411104093D980371393103B4
:100C60004036DB0265339102D4305402802E1D02DF
:100C7000632CEE01752AC501B028A001102781015F
:100C80008F2564012B244B01E0223401AC211F018C
:100C90008D200D01801FFC00841EED00971DDF00DC
:100CA000B81CD200E61BC600201BBC00641AB200B0
:100CB000B219A8000A19A0006A189900D11791006A
:100CC00040178B00B516840031167E00B3157900ED
:100CD0003A157300C7146F0058146A00EE136600CB
:100CE0008813630025135E00C7125B006C12570067
:100CF00015125400C111510070114F0021114B0009
:100D0000D61049008D1047004610440002104200E2
:100D1000C00F4000800F3E00420F3C00060F3B001A
:100D2000CB0E3800930E37005C0E3500270E3400D2
:100D3000F30D3200C10D3100900D3000600D2E001A
:100D4000320D2D00050D2C00D90C2B00AE0C290006
:100D5000850C29005C0C2700350C27000E0C2600A2
:100D6000E80B2400C40B2400A00B23007D0B230000
:100D70005A0B2100390B2100180B2000F80A1F0024
:100D8000D90A1E00BB0A1E009D0A1D00800A1D0014
:100D9000630A1C00470A1B002C0A1B00110A1A00D8
:100DA000F7091A00DD091900C4091900AB09190077
:100DB000920917007B091800630917004C091600F7
:100DC00036091600200916000A091500F508150055
:100DD000E0081400CC081400B8081400A40814009B
:100DE000900813007D0812006B08130058081200C9
:100DF00046081200340811002308110012081100DF
:100E000001081100F0071000E0071000D0071000E3
:100E1000C0071000B0070F00A107100091070E00D7
:100E200083070F0074070F0065070E0057070E00B9
:100E300049070E003B070D002E070E0020070D008E
:100E400013070D0006070D00F9060C00ED060D0056
:100E5000E0060C00D4060C00C8060C00BC060C0012
:100E6000B0060C00A4060B0099060C008D060B00C2
:100E700082060B0077060B006C060B0061060A0069
:100E800057060B004C060A0042060A0038060A0004
:100E90002E060A0024060A001A060A001006090097
:100EA00007060A00FD050900F4050900EB05090025
:100EB000E2050900D9050900D0050900C7050900A8
:100EC000BE050900B5050800AD050800A505090027
:100ED0009C050800940508008C050800840508009E
:100EE0007C050800740508006C050700650508000E
:100EF0005D050700560508004E0507004705070079
:100F00004005080038050700310507002A050700DD
:100F1000230507001C050600160507000F0507003E
:100F20000805060002050700FB040600F50407009B
:100F3000EE040600E8040600E2040700DB040600F5
:100F4000D5040600CF040600C9040600C304060049
:100F5000BD040600B7040600B1040500AC04060099
:100F6000A6040600A00405009B04060095040500E5
:100F7000900406008A04050085040500800406002C
:100F80007A04050075040500700405006B04050073
:100F900066040500610405005C04050057040500B3
:100FA000520405004D0405004804050043040500F3
:100FB0003E0404003A040500350405003004040032
:100FC0002C04050027040400230405001E0404006B
:100FD0001A04040016040500110404000D040400A2
:100FE000090405000404040000040400FC030400D8
:100FF000F8030400F4030400F0030400EC0304000D
:10100000E8030400E4030400E0030400DC0304003C
:10101000D8030400D4030400D0030400CC0304006C
:10102000C8030300C503030024F404D9201BC40C27
:101030005C0E9804C4095F0265077101F405F900AC
:10104000FB04B30048048700C1036900580355003E
:1010500003034500BE023A008402310053022A0015
:101060002902250004022000E4011C00C801190027
:10107000AF011700980114008401130071011000E2
:101080006101100051010E0043010D0036010B00FB
:101090002B010B0020010B00150109000C010900B8
:1010A00003010800FB000800F3000800EB00070044
:1010B000E4000600DE000600D8000600D2000600AC
:1010C000CC000500C7000500C2000500BD000400FB
:1010D000B9000400B5000400B1000400AD00040034
:1010E000A9000400A5000300A20003009F00040063
:1010F0009B0003009800030095000200930003008A
:10110000900003008D0002008B00030088000200A5
:101110008600020084000300810002007F000200BC
:101120007D0002007B0002007900020077000100D0
:1011300076000200740002007200010071000200DB
:101140006F0002006D0001006C0002006A000100E7
:1011500069000200670001006600010065000100EF
:1011600064000200620001006100010060000100F3
:101170005F0002005D0001005C0001005B000100F7
:101180005A000100590001005800010057000100F9
:1011900056000100550001005400010053000000FA
:1011A00053000100520001005100010050000100F5
:1011B0004F0001004E0000004E0001004D000100F4
:1011C0004C0001004B0000004B0001004A000100F0
:1011D00049000100480000004800010047000100EC
:1011E00046000000460001004500000045000100E7
:1011F00044000100430000004300010042000000E1
:1012000042000100410000004100010040000100D7
:101210003F0000003F0001003E0000003E000100D2
:101220003D0000003D0001003C0000003C000000CB
:101230003C0001003B0000003B0001003A000000C0
:101240003A000100390000003900010038000000B8
:1012500038000000380001003700000037000100AE
:1012600036000000360000003600010035000000A6
:10127000350000003500010034000000340000009B
:10128000340001003300000033000000330001008F
:101290003200000032000000320001003100000086
:1012A000310000003100010030000000300000007B
:1012B000300001002F0000002F0000002F00000070
:1012C0002F0001002E0000002E0000002E00010063
:1012D0002D0000002D0000002D0000002D00010059
:1012E0002C0000002C0000002C0000002C0001004D
:1012F0002B0000002B0000002B0000002B00010041
:101300002A0000002A0000002A0000002A00010034
:101310002900000029000000290000002900000029
:10132000290001002800000028000000280000001B
:10133000280000002800010027000000270000000E
:101340002700000027000000270001002600000001
:1013500026000000260000002600000026000100F4
:1013600025000000250000002500000025000000E9
:1013700025000000250001002400000024000000DA
:1013800024000000240000002400010023000000CD
:1013900023000000230000002300000023000000C1
:1013A00023000000230001002200000022000000B2
:1013B00022000000220000002200000022000100A4
:1013C0002100000021000000210000002100000099
:1013D0002100000021000000210001002000000089
:1013E000200000002000000020000000200000007D
:1013F0002000000020000000200001001F0000006D
:101400001F0000001F0000001F0000001F00000060
:101410001F0000001F0001001E0000001E00000051
:101420001E0000001E0000006265640A002C20738C
:10143000797374656D2073746F70706564212048D2
:1014400065617465725F49443A200048656174695A
:101450006E67206661696C65640048656174696ED9
:1014600067206661696C65640048656174696E67D0
:10147000206661696C65640048656174696E672007
:101480006661696C6564005761726E696E673A20C7
:10149000486F6D696E672042756D7020446976698A
:1014A000736F72203C20310A000000A0400000A0B1
:1014B000400000004000004843000048430000484E
:1014C00043FFFFFF48617264636F64656420446595
:1014D0006661756C742053657474696E6773204C13
:1014E0006F616465640A0020204D32303020443042
:1014F0000A0020204D3230302044002044697361BE
:10150000626C65640A0046696C616D656E74207377
:10151000657474696E67733A0020440020490020A6
:10152000204D33303120500050494420736574748D
:10153000696E67733A0A00205A0020590020204D36
:10154000323036205800486F6D65206F66667365CF
:101550007420286D6D290A00204500205A0020596A
:101560000020580020420020540020204D32303509
:10157000205300416476616E636564207661726910
:1015800061626C65733A20533D4D696E20666565F6
:10159000647261746520286D6D2F73292C20543D71
:1015A0004D696E2074726176656C20666565647243
:1015B00061746520286D6D2F73292C20423D6D6963
:1015C0006E696D756D207365676D656E74207469E5
:1015D0006D6520286D73292C20583D6D6178696DEB
:1015E000756D205859206A65726B20286D6D2F73B8
:1015F000292C20205A3D6D6178696D756D205A2027
:101600006A65726B20286D6D2F73292C2020453D53
:101610006D6178696D756D2045206A65726B202853
:101620006D6D2F73290A0020540020520020204D98
:10163000323034205000416363656C6572617469B7
:101640006F6E733A20503D7072696E74696E672CCC
:1016500020523D7265747261637420616E6420541F
:101660003D74726176656C0A00204500205A0020A6
:10167000590020204D3230312058004D6178696D7D
:10168000756D20416363656C65726174696F6E206E
:10169000286D6D2F7332293A0A00204500205A0028
:1016A00020590020204D3230332058004D61786998
:1016B0006D756D2066656564726174657320286D53
:1016C0006D2F73293A0A00204500205A0020590046
:1016D00020204D3932205800537465707320706596
:1016E0007220756E69743A0A0020746F6F206C6FF7
:1016F0006E6720657874727573696F6E207072659D
:1017000076656E7465640A0020636F6C642065788A
:1017100074727573696F6E2070726576656E74652C
:10172000640A0070012C0190012701B0012201C060
:10173000011D01F00118011002130130020E0160B9
:1017400002090190020401C002FF000003FA0040F8
:1017500003F5008003F000D003EB002004E60070E6
:1017600004E100E004DC004005D700C005D20040E1
:1017700006CD00D006C8008007C3003008BE00F0C8
:1017800008B900C009B400B00AAF00B00BAA00D07D
:101790000CA500000EA000500F9B00C0109600503A
:1017A00012910000148C00C0158700B0178200B0A1
:1017B000197D00D01B7800001E730040206E009041
:1017C000226900F024640040275F0090295A00E05D
:1017D0002B5500102E500020304B0010324600E0F8
:1017E00033410090353C001037370070383200A08C
:1017F000392D00B03A2800A03B2300603C1E0010A9
:101800003D1900903D1400103E0F00703E0A00C0CC
:101810003E0500003F000000E26211241FBECFEF32
:10182000D1E2DEBFCDBF00E00CBF13E0A0E0B2E02C
:10183000ECE7FDED00E00BBF02C007900D92AE3F5C
:10184000B107D9F72DE0AEEFB3E001C01D92A2348D
:10185000B207E1F71CE0CDE0DCE000E006C0219734
:101860000109802FFE010E94806ECC30D10780E0FC
:101870000807A9F70E9474460C94BC6E0C940000F3
:101880008FB7F8949091BA072091B907291759F0AA
:10189000E92FF0E0E75CF84F208130E09F5F9F7711
:1018A0009093BA0702C02FEF3FEF8FBFC901089591
:1018B0000F931F93CF93DF93FC0120812B3301F112
:1018C000109186061430E0F4062FBC0190918F062B
:1018D000C92FD0E0F0E69F9FC001112488519B4F93
:1018E0000E94A66EFE01E154F84F00832196C3705A
:1018F000DD27C0938F061F5F1093860681E001C02D
:1019000080E0DF91CF911F910F9108950F931F9366
:10191000CF93DF93EC010E94C0160E811F812885B2
:101920003985011511052105310559F52C8522232D
:10193000A9F13A8521502C8721E0230F2A874D8574
:10194000241301C01A86FE0124E0329FE00DF11D30
:10195000112406851785208931890A831B832C83EE
:101960003D83DC01CB01800F911FA11DB11D8E8332
:101970009F83A887B9878C819D81892B79F0449AB0
:101980000DC0DC01CB01801B910BA20BB30BB7FD8B
:1019900005C044981E821F8218861986DF91CF9158
:1019A0001F910F91089580E1E2E0F4E0AAECB4E029
:1019B00001900D928A95E1F70895CF92EF92FF92F0
:1019C0000F931F93C090DD047B018C012EE034E067
:1019D0004AE054E066E074E082E094E00E9455360C
:1019E0001F910F91FF90EF90CF900895CF92EF92BB
:1019F000FF920F931F93E0900002F090010200917C
:101A0000020210910302C090DD0426ED34E042EDA5
:101A100054E06EEC74E08AEC94E00E9455361F911D
:101A20000F91FF90EF90CF900895682F880F770B5C
:101A30008091E5049091E6040E94926E9C0190933F
:101A400085048093840481E0232B09F480E00895C9
:101A500080918404909185044AE050E060E070E059
:101A600001960E94A46497FD1EC080918404909109
:101A700085044AE050E060E070E001960E94A464B2
:101A80006F3F71058105910509F07CF48091840414
:101A9000909185044AE050E060E070E001960E9479
:101AA000A464862F089580E008958FEF0895E09153
:101AB0008404F0918504818121E030E0803239F4A2
:101AC0002F5F3F4FDF01A20FB31F8C91F7CF8D32F5
:101AD00011F08B3231F42F5F3F4FDF01A20FB31FA4
:101AE0008C918E3219F4E20FF31F818180538A307A
:101AF00030F4AEDF91E0811103C090E001C091E0CD
:101B0000892F089580918404909185044AE050E0E3
:101B100060E070E001960E94CC65CB010895809151
:101B20008404909185044AE050E060E070E0019602
:101B30000E94A464CB0108950F931F93CF93DF936A
:101B4000C0918404D091850465E470E0CE010E94C8
:101B5000926E8C01CE0101960115110571F0F8010C
:101B6000108260E070E00E943E6325E4F80120836B
:101B7000DF91CF911F910F91089560E070E0DF91A8
:101B8000CF911F910F910C943E63BF92CF92DF9241
:101B9000EF92FF920F931F93CF93DF9382E0E82E93
:101BA00084E0F82E0AEC14E09EEDC92E94E0D92EC4
:101BB000C3EBD2E0BC2E84E0B80E899136DF8823D7
:101BC000D1F0BADFF6012081211104C02091E20496
:101BD000222331F0F801208131814281538103C0F9
:101BE00020E030E0A9010E94796BF70160837183E6
:101BF000828393830AC0F80180819181A281B3819D
:101C0000F70180839183A283B383F4E0EF0EF11C8C
:101C10000C5F1F4F8FEFC81AD80ABC12CECF86E4D4
:101C200004DF8823B9F088DF20E030E0A9010E94BA
:101C30009F6D18167CF480DF20E030E040E752E42E
:101C40000E94556C6093000270930102809302021F
:101C500090930302DF91CF911F910F91FF90EF902E
:101C6000DF90CF90BF90089526ED34E042ED54E030
:101C70006EEC74E08AEC94E00C94B145AF92BF92A4
:101C8000CF92DF92EF92FF920F931F93CF93DF9348
:101C900000D01F92CDB7DEB779015C01AA0CBB1C46
:101CA000AA0CBB1CC50186539B4F6C01FC01108222
:101CB00011821282138249835A836B837C83D4DF1F
:101CC00049815A816B817C81F60140835183628313
:101CD0007383C090DD0420E030E0A901B801C701A2
:101CE0000E947867811108C0F501E35AFC4F3081EA
:101CF00021819281838104C0302F212F9E2D8F2D31
:101D0000E32EF22E092F182F26ED34E042ED54E099
:101D10006EEC74E08AEC94E00E9455360E944627EF
:101D2000109284060F900F900F900F90DF91CF913B
:101D30001F910F91FF90EF90DF90CF90BF90AF90E9
:101D40000895FC0165917591859194910895CF92C4
:101D5000DF92EF92FF920F931F93CF93DF93EC01EB
:101D6000CC0FDD1FCC0FDD1FFE01EE54FB4F20E03A
:101D700030E0A90160817181828193810E94796B39
:101D8000FE01EA55FB4F20813181428153810E943F
:101D9000796B6B017C01CE018A58974FD2DF8E019F
:101DA00002541B4FA70196010E94796BF8016083D2
:101DB000718382839383CE018659974FC2DFC85DBA
:101DC000DD4FA70196010E94796B688379838A832E
:101DD0009B83DF91CF911F910F91FF90EF90DF9048
:101DE000CF900895CDD76093FE037093FF03809347
:101DF00000049093010408959091C00095FFFCCFDA
:101E00008093C60008950F931F93CF93DF931F9283
:101E10001F92CDB7DEB7FC0184918F010F5F1F4F7A
:101E2000811102C08B0107C069837A83E5DFF80165
:101E300069817A81F1CFF80181918F01882311F0B6
:101E4000DBDFF9CF0F900F90DF91CF911F910F91B2
:101E500008958F929F92AF92BF92EF92FF921F933D
:101E6000CF93DF93CDB7DEB7A0970FB6F894DEBF60
:101E70000FBECDBF611571058105910579F110E0A7
:101E8000842E912CA12CB12CEE24E394F12CEC0E99
:101E9000FD1EE10EF11C17FDFA94A50194010E94AC
:101EA0003D6BF7016083B901CA011F5F61157105C0
:101EB0008105910549F7115010F1E1E0F0E0EC0FD8
:101EC000FD1FE10FF11D17FDFA9580818A3010F09A
:101ED00097E301C090E3890F8FDFEDCF80E3A096F9
:101EE0000FB6F894DEBF0FBECDBFDF91CF911F912B
:101EF000FF90EF90BF90AF909F908F907DCFA09676
:101F00000FB6F894DEBF0FBECDBFDF91CF911F910A
:101F1000FF90EF90BF90AF909F908F900895CF92D9
:101F2000DF92EF92FF92CF93DF936A017B01FC0176
:101F30008491EF012196882319F05EDFFE01F8CF2E
:101F40004AE0C701B601DF91CF91FF90EF90DF909B
:101F5000CF907FCFCF92DF92EF92FF926B017C0107
:101F600097FF0AC08DE248DFF094E094D094C094CB
:101F7000C11CD11CE11CF11C4AE0C701B601FF9055
:101F8000EF90DF90CF9065CFEF92FF920F931F936A
:101F9000CF93DF931F92CDB7DEB7082F162FE3EB59
:101FA000F6E084917F012FEFE21AF20A882329F0EC
:101FB000998322DFF7019981F4CFE02FF92F8491E3
:101FC0007F019FEFE91AF90A882319F015DFF7015D
:101FD000F6CF6091BB077091BC078091BD079091CF
:101FE000BE07B8DF8AE008DF11110E947723109244
:101FF000F3061092F2060F90DF91CF911F910F918F
:10200000FF90EF9008954F925F926F927F92BF92F0
:10201000CF92DF92EF92FF920F931F93CF93DF93B4
:10202000CDB7DEB76E970FB6F894DEBF0FBECDBF4B
:1020300060919006709191066115710561F14DE115
:1020400050E08E010F5F1F4FC8010E9420671E8E57
:10205000F8017F01E01AF10AB190BB2099F12AE062
:10206000B212F7CF2FC0B80185E197E0CCDE82E253
:10207000C3DE8AE0C1DEBB2009F43AC0EFEFEE1AFE
:10208000FE0A8091900690919106E80EF91EF0925A
:102090009106E09290068091900690919106892B8E
:1020A00009F04DC180918606843008F048C12FB7F1
:1020B000F8948091B9079091BA072FBF891B8F7749
:1020C000E1F43DC1F801EE0DFF1D108260E0C80192
:1020D000EFDB882301F3EFE0F7E084916F019FEFDE
:1020E000C91AD90A882309F4BECF86DEF601F5CFD6
:1020F0001092910610929006CECFC2DB2091F2068C
:102100003091F3068A3019F08D3009F0E8C0109252
:10211000F4062115310509F4C5CFF901EE56F94F42
:1021200010821092F3061092F20622E936E079014D
:10213000F90180812F5F3F4F8032C9F387018E34D0
:1021400011F0E12CF12C6AE270E0C8010E94926E5D
:102150006C01E114F10409F474C062E578E0C8018F
:102160000E942F67BB24B394892B11F4B12C09C0B2
:102170006EE470E0C80104960E94926E009709F028
:102180007C014AE050E060E070E0C70101960E94E7
:10219000A464609323047093240480932504909393
:1021A00026044090BB075090BC076090BD0770901C
:1021B000BE07FFEF4F1A5F0A6F0A7F0A64157505A5
:1021C0008605970531F0B11004C061E08FE198E019
:1021D0003DC0C114D10401F180E0F12CF801E80FF9
:1021E000F11D90819A3219F08F5FF926F7CF4AE0FE
:1021F00050E060E070E0C60101960E94A464CF2C1C
:10220000D12CE12CF12C6C157D058E059F0541F03C
:1022100061E080E098E01AC061E086ED97E016C0CA
:102220008091230490912404A0912504B091260468
:102230008093BB079093BC07A093BD07B093BE07E4
:1022400007C0892B29F060E082E297E09DDE77C02D
:1022500080913402811121C067E470E0C8010E94BE
:10226000926E0097D1F04AE050E060E070E0019695
:102270000E94A4646430710580F4EFE5F7E0849176
:102280007F012FEFE21AF20A882319F0B5DDF7017A
:10229000F6CF60E085E597E04FD66BED73E0C801BF
:1022A0000E949D6E892B11F41092350260EE73E04E
:1022B000C8010E949D6E892B21F48CE497E00E9456
:1022C000172065EE73E0C8010E949D6E892B11F402
:1022D0000E94A12361E082E996E0EADAE3CE2F359D
:1022E00031050CF0DFCE8C35A9F42FB7F89480912E
:1022F000B9079091BA072FBF891B8F7709F4D2CE07
:10230000BFDA9091F4069111CDCE2091F206309172
:10231000F30609C08B3319F491E09093F406909181
:10232000F4069111BFCEA9014F5F5F4F5093F306A2
:102330004093F206F901EE56F94F8083B3CE6E96C4
:102340000FB6F894DEBF0FBECDBFDF91CF911F91C6
:102350000F91FF90EF90DF90CF90BF907F906F90A4
:102360005F904F9008950F931F93CF93DF938B014E
:10237000FC018491EF012196882319F03DDDFE01D7
:10238000F8CFB801110F880B990BDF91CF911F91F6
:102390000F91E0CDEF92FF921F93CF93DF937C01DB
:1023A00084E543DB182F882311F152DB8823D1F019
:1023B000EFE0F7E08491EF012196882319F01CDD0E
:1023C000FE01F8CF8DE418DDB701FF0C880B990BE7
:1023D000C1DD3EDB682F70E087E598E0C4DF8AE06E
:1023E0000BDD09C035DB8093A50410E004C08091AB
:1023F000DD048093A504812FDF91CF911F91FF9081
:10240000EF9008958F929F92AF92BF92CF92DF92FA
:10241000EF92FF92CF936B017C01B42E20E030E06D
:10242000A9010E94786787FF06C08DE2E5DCF7FA14
:10243000F094F7F8F094C0E060E070E080E09FE393
:10244000CB1541F02DEC3CEC4CEC5DE30E94DD67DC
:10245000CF5FF6CF9B01AC01C701B6010E94796B3B
:102460006B017C010E94C26C4B015C014AE0F1DC13
:10247000CC2379F1C501B4010E947C679B01AC01BA
:10248000C701B6010E94786B6B017C018EE2B4DC5F
:1024900020E030E040E251E4C701B6010E94DD6770
:1024A0004B015C010E94BD6C6B01770FEE08FF08C9
:1024B000C701B6014FDDC701B6010E947E679B01CF
:1024C000AC01C501B4010E94786B6B017C01C15065
:1024D000F9F6CF91FF90EF90DF90CF90BF90AF9043
:1024E0009F908F9008954F925F926F927F928F92FC
:1024F0009F92AF92BF92CF92DF92EF92FF92CF93D3
:10250000DF93E8EBF8E08491EF012196882319F03E
:1025100073DCFE01F8CF6091CA047091CB04809106
:10252000CC049091CD0442E06DDFE4EBF8E08491BF
:10253000EF012196882319F05FDCFE01F8CF60914E
:10254000CE047091CF048091D0049091D10442E0E8
:1025500059DFE0EBF8E08491EF012196882319F030
:102560004BDCFE01F8CF6091D2047091D3048091CE
:10257000D4049091D50442E045DFECEAF8E0849180
:10258000EF012196882319F037DCFE01F8CF609126
:10259000D6047091D7048091D8049091D90442E078
:1025A00031DF8FB7F894409012045090130460907C
:1025B0001404709015048090160490901704A09055
:1025C0001804B0901904C0901A04D0901B04E09035
:1025D0001C04F0901D048FBFE1EAF8E08491EF0144
:1025E0002196882319F008DCFE01F8CFC301B2015F
:1025F000B1DCEDE9F8E08491EF012196882319F030
:10260000FBDBFE01F8CFC501B401A4DCE9E9F8E089
:102610008491EF012196882319F0EEDBFE01F8CFBB
:10262000C701B60197DC8AE0DF91CF91FF90EF9070
:10263000DF90CF90BF90AF909F908F907F906F90E2
:102640005F904F90D9CBCF93DF93E5E9F8E0849189
:10265000EF012196882319F0CFDBFE01F8CF6091BE
:10266000CE0C7091CF0C8091D00C9091D10C41E0A8
:10267000C9DEE2E9F8E08491EF012196882319F0A0
:10268000BBDBFE01F8CF6091CC0C7091CD0C072E16
:10269000000C880B990B0E947E6741E0B3DEEEE8E8
:1026A000F8E08491EF012196882319F0A5DBFE0163
:1026B000F8CF6091270470912804809129049091AB
:1026C0002A0441E09FDEEBE8F8E08491EF012196D7
:1026D000882319F091DBFE01F8CF60912B047091F3
:1026E0002C04072E000C880B990B0E947E6741E09A
:1026F00089DEE7E8F8E08491EF012196882319F05C
:102700007BDBFE01F8CFE091A504F0E0EC55FB4F38
:10271000608170E080E090E01DDCE2E8F8E0849108
:10272000EF012196882319F067DBFE01F8CF609155
:10273000FF0670E080E090E0DF91CF910BCCCF926C
:10274000DF92EF92FF92CF93DF936A017B01FC014E
:102750008491EF012196882319F04EDBFE01F8CF1A
:1027600042E0C701B601DF91CF91FF90EF90DF907B
:10277000CF9048CECF92DF92EF92FF92CF93DF932C
:102780006A017B01FC018491EF012196882319F0F5
:1027900033DBFE01F8CF42E0C701B601DF91CF91F4
:1027A000FF90EF90DF90CF902DCE1F920F920FB63B
:1027B0000F9211240BB60F922F933F938F939F93F9
:1027C000EF93FF932091C6009FB7F894E091B9076B
:1027D00081E08E0F8F773091BA07831731F0F0E0E8
:1027E000E75CF84F20838093B9079FBFFF91EF917B
:1027F0009F918F913F912F910F900BBE0F900FBE25
:102800000F901F901895CF92DF92EF92FF920F9347
:102810001F93CF93DF936C017A018B01C0E0D0E06E
:10282000CE15DF0589F0D8016D918D01D601ED91AE
:10283000FC910190F081E02DC6011995892B11F4CE
:102840007E0102C02196ECCFC701DF91CF911F918D
:102850000F91FF90EF90DF90CF90089590E0FC01F2
:102860003197E231F10508F04EC08827EE58FF4F4E
:102870008F4F0C94806E809180008F7703C0809181
:1028800080008F7D80938000089580918000877FF5
:10289000F9CF84B58F7702C084B58F7D84BD08954C
:1028A0008091B0008F7703C08091B0008F7D8093BE
:1028B000B0000895809190008F7707C080919000BC
:1028C0008F7D03C080919000877F80939000089552
:1028D0008091A0008F7707C08091A0008F7D03C0FA
:1028E0008091A000877F8093A000089580912001AF
:1028F0008F7707C0809120018F7D03C080912001D8
:10290000877F8093200108953FB7F8948091350721
:1029100090913607A0913707B091380726B5A89B4C
:1029200005C02F3F19F00196A11DB11D3FBFBA2F61
:10293000A92F982F8827820F911DA11DB11DBC01C1
:10294000CD0142E0660F771F881F991F4A95D1F786
:102950000895FC0110922A07808191812AE030E0DD
:10296000B9010E94516E805D809329078081918119
:102970008A309105ECF0B9010E94516ECB01B9018A
:102980000E94516E805D80932807808191818436FA
:1029900091058CF064E670E00E94516ECB01B901A4
:1029A0000E94516E805D8093270787E297E008952B
:1029B00089E297E0089588E297E00895FC0120817C
:1029C000318137FD0FC0243631058CF0C90164E632
:1029D00070E00E94516ECB016AE070E00E94516E7F
:1029E000805D06C03195219531098DE201C080E2FC
:1029F000809327072A30310564F0EAE0F0E0C9014E
:102A0000BF010E94516ECB01BF010E94516E805DDB
:102A100001C080E280932807C9016AE070E00E944B
:102A2000516E805D8093290710922A0787E297E014
:102A300008950E948E6ECF93DF93282F30E0F90126
:102A4000E45CF54F8491F901EA50F64FD491F90115
:102A5000E055F64FC491CC2389F08111FFDEEC2FB5
:102A6000F0E0EE0FFF1FEA56F64FA591B491EC91FE
:102A7000ED2381E090E021F480E002C080E090E06E
:102A8000DF91CF9108951F93CF93DF93282F30E0EC
:102A9000F901E45CF54F8491F901EA50F64FD491C5
:102AA000F901E055F64FC491CC23C1F0162F8111E6
:102AB000D5DEEC2FF0E0EE0FFF1FE458F64FA591A6
:102AC000B4918FB7F894111105C09C91ED2FE0954A
:102AD000E92302C0EC91ED2BEC938FBFDF91CF91F6
:102AE0001F910895CF93DF93EC0160E08E81CBDFDF
:102AF00061E08E81C8DF60E08E81C5DF8BE891E008
:102B00000197F1F7DF91CF910895CF93DF9390E094
:102B1000FC01EA50F64F2491FC01E055F64F8491F8
:102B2000882361F190E0880F991FFC01EE59F64F60
:102B3000C591D491FC01E458F64FA591B49161116F
:102B400009C09FB7F8948881209582238883EC91EF
:102B50002E230BC0623061F49FB7F8943881822F26
:102B6000809583238883EC912E2B2C939FBF06C0E6
:102B70008FB7F894E8812E2B28838FBFDF91CF91F8
:102B800008951F93CF93DF93182FEB0161E0BDDF12
:102B9000209711F460E004C0CF3FD10531F461E02B
:102BA000812FDF91CF911F916ECFE12FF0E0E45C98
:102BB000F54FE4914E2F50E0FA013197E231F105E3
:102BC00008F09DC08827EC57FF4F8F4F0C94806E04
:102BD00084B5806884BDC7BD97C084B5806284BD5C
:102BE000C8BD92C080918000806880938000D0939F
:102BF0008900C093880088C08091800080628093A3
:102C00008000D0938B00C0938A007EC080918000AA
:102C1000886080938000D0938D00C0938C0074C036
:102C20008091B00080688093B000C093B3006CC006
:102C30008091B00080628093B000C093B40064C003
:102C400080919000806880939000D0939900C09309
:102C500098005AC080919000806280939000D09339
:102C60009B00C0939A0050C0809190008860809330
:102C70009000D0939D00C0939C0046C08091A0001E
:102C800080688093A0008091A0008F7B8093A0003B
:102C9000D093A900C093A80037C08091A0008062A3
:102CA0008093A000D093AB00C093AA002DC0809168
:102CB000A00088608093A000D093AD00C093AC00CA
:102CC00023C080912001806880932001D093290146
:102CD000C093280119C08091200180628093200157
:102CE000D0932B01C0932A010FC0809120018860EE
:102CF00080932001D0932D01C0932C0105C0C038D2
:102D0000D1050CF04CCF46CFDF91CF911F910895A4
:102D10008F929F92AF92BF92CF92DF92EF92FF92EB
:102D20006B017C01F1DD4B015C01C114D104E104B4
:102D3000F104E9F0E9DDDC01CB0188199909AA0960
:102D4000BB09883E9340A105B10578F321E0C21A82
:102D5000D108E108F10888EE880E83E0981EA11CD6
:102D6000B11CC114D104E104F10421F7DECFFF90BE
:102D7000EF90DF90CF90BF90AF909F908F9008958D
:102D80002FB7F89460913107709132078091330723
:102D9000909134072FBF08951F920F920FB60F9294
:102DA00011242F933F938F939F93AF93BF93809161
:102DB000310790913207A0913307B09134073091D9
:102DC000300723E0230F2D3720F40196A11DB11DFC
:102DD00005C026E8230F0296A11DB11D20933007E0
:102DE0008093310790933207A0933307B093340751
:102DF0008091350790913607A0913707B091380739
:102E00000196A11DB11D8093350790933607A093BD
:102E10003707B0933807BF91AF919F918F913F9142
:102E20002F910F900FBE0F901F901895CF92DF92A9
:102E3000EF92FF920F931F93CF93DF937C016C016E
:102E400087E0C80ED11CC0E0D0E0062F10E0B8012A
:102E50000C2E02C0759567950A94E2F76170F60131
:102E600081916F0110DE2196C430D10581F7C70131
:102E7000DF91CF911F910F91FF90EF90DF90CF9056
:102E800031CECF92DF92EF92FF920F931F93CF93A9
:102E9000DF93EC01F62E642F8C81F5DD8D818F3F61
:102EA00011F060E0F0DD8F850F2D10E084FF23C06E
:102EB0006E0187E0C80ED11CE12CF12CB8010E2C5C
:102EC00002C0759567950A94E2F76170F6018191E9
:102ED0006F01D9DDFFEFEF1AFF0A88E0E816F10471
:102EE00069F7CE01DF91CF911F910F91FF90EF9085
:102EF000DF90CF90F7CDB80184E0759567958A95FE
:102F0000E1F7CE0193DF6F2DCE01DF91CF911F91BD
:102F10000F91FF90EF90DF90CF9088CF41E0B1DF2D
:102F200081E090E0089540E0ACCF61E0FCDF8BE30E
:102F30009FE10197F1F708959C018091C50C6817F6
:102F400078F0962FB9019093C50C40E350E082E8E9
:102F500092E00E9420670E94EB4383E0809381020D
:102F600008959C0180E090E0F901E80FF91FE491D9
:102F7000EE2311F00196F8CF08950F931F93CF938E
:102F80008C01C0E0F801EC0FF11D6081662329F08F
:102F900082ED9CE0C3DFCF5FF5CFCF911F910F9102
:102FA0000895CF92DF92EF92FF920F931F93CF93EA
:102FB000DF931F921F92CDB7DEB7E2DE00912307A9
:102FC0001091240720912507309126076B017C0181
:102FD000C01AD10AE20AF30AF7FCB6C0DC01CB0141
:102FE0008C599F4FAF4FBF4F809323079093240777
:102FF000A0932507B093260780916D02882321F0C6
:10300000815080936D0206C089E080936D0281E05B
:103010008093810280918102882309F484C08230E8
:1030200050F0843028F0843031F41092810203C0D3
:1030300081E08093810260E080E00E94D64320E03E
:1030400030E040E05FE36091CE0C7091CF0C809156
:10305000D00C9091D10C0E94796B0E94BD6C7A8348
:103060006983CE010196AADC0E94D6448FE20E94B9
:10307000E8446091CC0C7091CD0C072E000C880BAD
:10308000990B0E947E6720E030E040E05FE30E9401
:10309000796B0E94BD6C7A836983CE01019659DCFD
:1030A0000E94D64460E088E00E94D64380E00E94FF
:1030B000E84420E030E040E05FE360912704709155
:1030C00028048091290490912A040E94796B0E941F
:1030D000BD6C7A836983CE01019670DC0E94D64470
:1030E0008FE20E94E84460912B0470912C04072E1B
:1030F000000C880B990B0E947E6720E030E040E0D6
:103100005FE30E94796B0E94BD6C7A836983CE0174
:1031100001961FDC0E94D64461E080E00E94D64305
:1031200082E892E02ADF80918102823051F0833080
:1031300029F0813049F41092810206C082ED9CE0B2
:10314000F4DE81E0809381020F900F90DF91CF91A8
:103150001F910F91FF90EF90DF90CF900895CF9344
:10316000DF93EC01FE016491662329F082ED9CE07F
:10317000D5DE2196F7CFDF91CF91089565E672E015
:1031800080E00E940A446DE572E081E00E940A44FA
:1031900065E572E082E00E940A446DE472E086E038
:1031A0000E940A4465E472E087E00E940A446DE3ED
:1031B00072E083E00C940A4462E082ED9CE00E949D
:1031C0003844DCDF82ED9CE0B0CE1F920F920FB648
:1031D0000F9211240BB60F922F933F934F935F934F
:1031E0006F937F938F939F93AF93BF93CF93DF930F
:1031F000EF93FF9380916E008B7F80936E007894A5
:1032000080913C0281111CC08091A404809322070C
:10321000882311F02C9A01C02C988091FF0680938E
:1032200021079FB7882329F0F894809102018062DA
:1032300004C0F894809102018F7D809302019FBFAA
:103240009091220780913C02981708F42C98909155
:10325000210780913C02981740F49FB7F894809121
:1032600002018F7D809302019FBF80913C028F5F9E
:103270008F7780933C02E0913A02F0913B02ED306F
:10328000F10508F07FC08827EA56FF4F8F4F0C9456
:10329000806E88E080937B0085E480937C00809141
:1032A0007A00806480937A0081E090E01AC02091D7
:1032B0007800309179008091110790911207A091C8
:1032C0001307B0911407820F931FA11DB11D8093A6
:1032D000110790931207A0931307B093140782E08D
:1032E00090E090933B0280933A024CC088E0809338
:1032F0007B0086E480937C0080917A0080648093D8
:103300007A0083E090E0EDCF209178003091790051
:1033100080910D0790910E07A0910F07B0911007B3
:10332000820F931FA11DB11D80930D0790930E076F
:10333000A0930F07B093100784E090E0D2CF85E010
:1033400090E0CFCF86E090E0CCCF87E090E0C9CF8F
:1033500088E090E0C6CF89E090E0C3CF8AE090E0BB
:10336000C0CF8BE090E0BDCF10923B0210923A02AA
:1033700080910C078F5F80930C0704C010923B0272
:1033800010923A0280910C07803108F4B9C0109273
:103390000C078091A304811113C0809111079091B3
:1033A000120790930B0780930A0780910D07909165
:1033B0000E07909309078093080781E08093A30488
:1033C00080E1E1E1F7E0DF011D928A95E9F71092D3
:1033D0000D0710920E0710920F0710921007C09160
:1033E0000A07D0910B07D195C195D1098091FD06AF
:1033F0009091FE069195819591098C179D07CCF4CB
:103400006091CC0C7091CD0C072E000C880B990BA1
:103410000E947E6720E030E0A9010E949F6D18168F
:1034200044F443E159E060E279E080E090E00E94FA
:103430000D248091380290913902919581959109DE
:10344000C817D907CCF46091CC0C7091CD0C072E25
:10345000000C880B990B0E947E6720E030E0A901E8
:103460000E949F6D181644F443E459E060E579E04A
:1034700080E090E00E940D24C0910807D0910907D8
:103480008091FB069091FC068C179D07CCF0609113
:103490002B0470912C04072E000C880B990B0E94B2
:1034A0007E6720E030E0A9010E949F6D181644F469
:1034B00042E059E060E279E08FEF9FEF0E940D2437
:1034C0008091360290913702C817D907CCF06091ED
:1034D0002B0470912C04072E000C880B990B0E9472
:1034E0007E6720E030E0A9010E949F6D181644F429
:1034F00042E359E060E579E08FEF9FEF0E940D24F1
:1035000080916E00846080936E00FF91EF91DF9157
:10351000CF91BF91AF919F918F917F916F915F916B
:103520004F913F912F910F900BBE0F900FBE0F90B8
:103530001F9018952F923F924F925F926F927F92B9
:103540008F929F92AF92BF92CF92DF92EF92FF92B3
:103550000F931F93CF93DF9300D000D0CDB7DEB78A
:103560001C017A8369832B833C834D835E8327010F
:103570003801D7FC02C0C60102C081E090E07C01A6
:10358000EE0CFF1CEE0CFF1C87010050194FA3012D
:103590009201F80160817181828193810E94786734
:1035A0008823A9F0F801408251826282738201E08F
:1035B00010E020E030E0A901C301B2010E949F6D3C
:1035C000181614F000E010E0F10111830083F101FE
:1035D0008081918182309105D9F08330910509F481
:1035E0005CC0019709F078C0F701E050F94F2081E5
:1035F0003181428153816B817C818D819E810E94CA
:10360000786787FD69C082E090E0F1019183808353
:1036100087010050194FB401990C880B990B0E9437
:103620007E679B01AC01F801608171818281938189
:103630000E94786B9B01AC016B817C818D819E81A6
:103640000E949F6D87FD15C09BDB6B017C0128EEFE
:1036500033E0D5010E94886EDC01CB018C0D9D1DED
:10366000AE1DBF1DE981FA8180839183A283B3835C
:1036700033C086DBE981FA810081118122813381A7
:10368000DC01CB01801B910BA20BB30BB7FD24C057
:1036900083E090E0F1019183808342EE58E062EF95
:1036A00078E0C60126960FB6F894DEBF0FBECDBFF8
:1036B000DF91CF911F910F91FF90EF90DF90CF900E
:1036C000BF90AF909F908F907F906F905F904F9042
:1036D0003F902F900C940D2426960FB6F894DEBFE1
:1036E0000FBECDBFDF91CF911F910F91FF90EF9053
:1036F000DF90CF90BF90AF909F908F907F906F9012
:103700005F904F903F902F900895CF92DF92EF926D
:10371000FF92C0902704D0902804E0902904F090F4
:103720002A0480912B0490912C04BC01990F880BE2
:10373000990B0E947E6720E030E040EC50E40E944C
:10374000786B9B01AC01C701B6010E94786787FFC7
:103750001EC020E030E040E050E4C701B6010E9406
:10376000796B0E94BD6C7093FA066093F90608DBD2
:10377000DC01CB01805A9541AF4FBF4F8093F506D6
:103780009093F606A093F706B093F80608C010923F
:10379000F5061092F6061092F7061092F806FF90C2
:1037A000EF90DF90CF9008951092CD0C1092CC0C3A
:1037B0000E94CE4210922C0410922B04A6DF0E948D
:1037C000BD431092CD0C1092CC0C0E94CE421092B0
:1037D000A4042C9810922C0410922B041092FF0633
:1037E0009FB7F894E2E0F1E080818F7D80839FBFF6
:1037F00008952F923F924F925F926F927F928F9295
:103800009F92AF92BF92CF92DF92EF92FF920F936F
:103810001F93CF93DF93EC0147E257E181E090E003
:10382000FA0125913491C217D3070CF05DC09C01B9
:1038300021503109220F331F220F331FD901AB5DF5
:10384000B84EFD01659174912D5D384EF901A5903A
:10385000B490FC01EE0FFF1FEE0FFF1FEB5DF84E63
:10386000E590F490FD01C590D490FA010591149172
:10387000F90125903490072E000C880B990B0E94BB
:103880007E672B013C01CA19DB09BE01DD0F880BE5
:10389000990B0E947E674B015C01B7016C197D0991
:1038A000072E000C880B990B0E947E679B01AC01D0
:1038B000C501B4010E94DD676B017C01B80162198A
:1038C0007309072E000C880B990B0E947E679B01E1
:1038D000AC01C701B6010E94556C9B01AC01C3014C
:1038E000B2010E94796B11C001964C5F5F4F8D331E
:1038F000910509F095CFE5E1F8E165917491072E06
:10390000000C880B990B0E947E67DF91CF911F916D
:103910000F91FF90EF90DF90CF90BF90AF909F906E
:103920008F907F906F905F904F903F902F90089571
:1039300080910A0790910B070E941E436093CE0C62
:103940007093CF0C8093D00C9093D10C809108078A
:10395000909109074EDF60932704709328048093A9
:10396000290490932A04A8958FB7F8941092A30481
:103970008FBF0895AF92BF92CF92DF92EF92FF92E6
:103980000F931F93CF93DF93CDB7DEB7E1970FB6B9
:10399000F894DEBF0FBECDBF82E08093C0001092CE
:1039A000C50087E08093C4008091C100806180934E
:1039B000C1008091C10088608093C1008091C100E6
:1039C00080688093C100E1E2FCE084918F010F5F89
:1039D0001F4F882321F00E94FC0EF801F6CFEFE084
:1039E000F7E084918F010F5F1F4F882321F00E9421
:1039F000FC0EF801F6CF14B710FF0DC0E8E1FCE0B3
:103A000084917F012FEFE21AF20A882321F00E94AD
:103A1000FC0EF701F5CF11FF0DC0E7E0FCE084914B
:103A20007F013FEFE31AF30A882321F00E94FC0E86
:103A3000F701F5CF12FF0DC0E5EFFBE084917F01A8
:103A40009FEFE91AF90A882321F00E94FC0EF70182
:103A5000F5CF13FF0DC0E4EEFBE084917F012FEF63
:103A6000E21AF20A882321F00E94FC0EF701F5CF3A
:103A700015FF0CC0E3EDFBE084918F010F5F1F4F3A
:103A8000882321F00E94FC0EF801F6CF14BEECEC66
:103A9000FBE084918F010F5F1F4F882321F00E946C
:103AA000FC0EF801F6CF80E20E94FC0EE1ECFBE098
:103AB00084918F010F5F1F4F882321F00E94FC0E1D
:103AC000F801F6CF8AE00E94FC0EEFE0F7E0849167
:103AD0008F010F5F1F4F882321F00E94FC0EF80119
:103AE000F6CFE1EBFBE084918F010F5F1F4F88233E
:103AF00021F00E94FC0EF801F6CFE0EAFBE0849191
:103B00008F010F5F1F4F882321F00E94FC0EF801E8
:103B1000F6CFE2E8FBE084918F010F5F1F4F88230F
:103B200021F00E94FC0EF801F6CFEBE6FBE0849159
:103B30008F010F5F1F4F882321F00E94FC0EF801B8
:103B4000F6CFEFE0F7E084918F010F5F1F4F8823DE
:103B500021F00E94FC0EF801F6CF80913C0D90916F
:103B60003D0DFE0131967F01009721F4CF01825473
:103B70009D4004C09F01281B390BC9019A8389838A
:103B800069817A818CE59BE00E94B31160E974E061
:103B900085E49BE00E94B3118AE00E94FC0E81E064
:103BA0008093BF078093C0078093C1078093C207AB
:103BB0000E94FF3380E00E9410318CE0E2EBF4E0E1
:103BC000AAECB4E001900D928A95E1F70E94340EC0
:103BD000249A80910101806280930101809101010A
:103BE00080648093010187ED80937A0010927E00BB
:103BF00010927D0080917D00806280937D00809195
:103C00007D00806480937D0080E888BD80916E0097
:103C1000846080936E006AEF70E080E090E078D876
:103C200085E090E09093700C80936F0C8091380247
:103C3000909139020E941E4320E030E040EA50E4B7
:103C40000E94786787FF0AC08091380290913902FC
:103C500040979093390280933802E8CF87ED90E047
:103C600090937C0280937B028091FD069091FE06EA
:103C70000E941E4320E030E047E553E40E949F6D20
:103C8000181654F48091FD069091FE06409690938C
:103C9000FE068093FD06E8CF8091360290913702B0
:103CA000A8DD20E030E040EA50E40E94786787FF1A
:103CB0000AC0809136029091370240979093370264
:103CC00080933602E9CF8091FB069091FC0691DD4E
:103CD00020E030E04CE852E40E949F6D181654F446
:103CE0008091FB069091FC0640969093FC06809391
:103CF000FB06E9CF98E288E10FB6F894A895809387
:103D000060000FBE90936000819A879A80910A01AB
:103D1000826080930A010E9A3B9A579A5F9A829A20
:103D20008A9A809107018160809307019FB7F89478
:103D3000809108018160809308019FBF0A9A129ABE
:103D40003F9A479A6D98759A809104018D7F809370
:103D500004019FB7F894809105018260809305016A
:103D60009FBF53985B9A809A88985F9A10922F040D
:103D7000869A8E988A9A1092300480910A018860FF
:103D800080930A019FB7F89480910B01877F8093FD
:103D90000B019FBF9FB7F8948091080181608093C9
:103DA00008019FBF109231040C9A1498129A399A04
:103DB0004198809181008F7E809381008091810065
:103DC000886080938100809180008D7F8093800047
:103DD000809180008E7F80938000809180008F731F
:103DE00080938000809180008F7C80938000809100
:103DF0008100887F82608093810080E090E49093CE
:103E00008900809388001092850010928400809130
:103E10006F00826080936F0081E080930E0278943F
:103E20000E944F27C9D988E0E7E0F3E0DE019A96C7
:103E300001900D928A95E1F788E0EFE0F3E0DE0172
:103E4000929601900D928A95E1F788E0E7E1F3E020
:103E5000DE015A9601900D928A95E1F788E0EFE134
:103E6000F3E0DE01529601900D928A95E1F7BE01D2
:103E7000665D7F4F80E00E940A44BE016E5D7F4F09
:103E800081E00E940A44BE01665E7F4F82E00E948C
:103E90000A44BE016E5E7F4F83E00E940A4482EDB9
:103EA0009CE043D884E49BE05CD828E030E0281B09
:103EB000390B37FF02C02F5F3F4F890115950795DA
:103EC00060E0802F0E94D64380E00E94E84485E1B4
:103ED0009BE045D981E00E94E84461E0802F0E9488
:103EE000D6438CE09BE03BD984E49BE038D962E088
:103EF000802F0E94D64382E00E94E84485E09BE048
:103F00002ED983E00E94E8440E946E458AE39BE03C
:103F100028D820E130E0281B390B37FF02C02F5F83
:103F20003F4FC9019595879563E00E94D64380E392
:103F30009BE015D900E010E062E370E080E090E0E3
:103F40000E948816D7D40F5F1F4F0D311105A1F7BE
:103F500062E370E080E090E00E9488160E946E4567
:103F600081E1F70111928A95E9F78CE19BE00E94CB
:103F7000B117419744F08CE19BE00E94B1178C018E
:103F80000051110902C000E010E08CE1C82E8BE066
:103F9000D82E9CEDA92E95E0B92EC6018C519B40E0
:103FA0000817190704F140E150E0B601C7010E946B
:103FB000206763E080E00E94D643C7010E94BD17DE
:103FC000B8011016110614F061E070E0C5010E94FE
:103FD000516E072E000C880B990B0E948816FFEF7C
:103FE000CF1ADF0ADACFCAD8E7D8E1960FB6F8942D
:103FF000DEBF0FBECDBFDF91CF911F910F91FF901C
:10400000EF90DF90CF90BF90AF9008955F9AEFE26E
:10401000F4E010828A9A11829FB7F894A8E0B1E088
:104020008C9181608C939FBF1282129A08958C01AB
:10403000E3EBF6E08491EF012196882321F00E94C2
:10404000FC0EFE01F7CFE5EEFAE08491EF01219638
:10405000882321F00E94FC0EFE01F7CFADD861E06D
:10406000C8010E949C1760E080E00E94D64382E86D
:1040700092E00E94BD1762E080E00E94D64388ED86
:104080009AE06DD864EF71E080E090E00E948816BD
:10409000F8948ADBBBDFA895FECF4F925F926F92B8
:1040A0007F928F929F92AF92BF92CF92DF92EF92C8
:1040B000FF920F931F93CF93DF930E94D1170E941B
:1040C000C0166B017C0180910902882309F465C048
:1040D0008091E3049091E404009709F45EC040915C
:1040E000CF075091D0076091D1077091D207970107
:1040F0008601041B150B260B370B37FD61C083307F
:10410000910509F134F401970CF447C0EFE0F7E0B2
:1041100006C0049709F041C0EFE0F7E02AC084919F
:10412000EF012196882321F00E94FC0EFE01F7CFBB
:10413000EDEBFAE08491EF012196882371F10E9462
:10414000FC0EFE01F7CFEFE0F7E08491EF0121963E
:10415000882321F00E94FC0EFE01F7CFE6EAFAE088
:104160008491EF0121968823C1F00E94FC0EFE018C
:10417000F7CF8491EF012196882321F00E94FC0E55
:10418000FE01F7CFEEE8FAE08491EF012196882353
:1041900021F00E94FC0EFE01F7CF2091090230E0D1
:1041A000A8EEB3E00E94696BC60ED71EE81EF91E8A
:1041B000C092CF07D092D007E092D107F092D207F9
:1041C00080918606843010F40E9403100E94C0166D
:1041D000C0903204D0903304E0903404F090350461
:1041E000C114D104E104F104B9F00091FE0310916F
:1041F000FF0320910004309101040C0D1D1D2E1DA4
:104200003F1D6B017C01C01AD10AE20AF30AF7FCD8
:1042100003C08FEC9AE00BDFC0900A02D0900B0233
:10422000E0900C02F0900D02C114D104E104F104FD
:10423000D9F00091FE031091FF032091000430910A
:1042400001040C0D1D1D2E1D3F1DDC01CB01801B2B
:10425000910BA20BB30BB7FD07C090910E0D80918F
:104260000F0D981709F435C160912D0490910E0D32
:1042700080910F0D981791F0E0910F0D09E4E09FE8
:10428000F0011124EE5DF74F608180910F0D909148
:104290000E0D891719F08F5F8F70F9CF70E089E0EC
:1042A0000E94C11580912204882309F4FDC0009169
:1042B000050210910602D0910702C0910802609198
:1042C000CC0C7091CD0C072E000C880B990B0E9422
:1042D0007E6720E030E040E050E40E94796B980176
:1042E0004D2F5C2F0E94786787FDDEC0F0900F0D88
:1042F000912CA12CB12CE12C89E4882E80910E0DFB
:10430000F81609F45CC08F2D90E0889EF001899E1C
:10431000F00D1124E552F84F42815381648175817B
:10432000452B462B472B81F446815781608571854B
:10433000452B462B472B41F4428553856485758573
:10434000452B462B472BB1F1889E9001899E300D5D
:104350001124C9018552984F6C01FC01668577854F
:10436000808991890E947E672B013C01F601628958
:104370007389848995890E947C679B01AC01C30184
:10438000B2010E94556CF60123A134A145A156A1AA
:104390000E94DD673B016C019B01AC01692D7A2D08
:1043A0008B2D9E2D0E94786787FF04C0962CA72C2A
:1043B000BC2CED2C81E08F0D8F70F82E9FCF2091BB
:1043C0007202309173024091740250917502692D0E
:1043D0007A2D8B2D9E2D0E94DD679B01AC01B801CB
:1043E0008D2F9C2F0E94796B6B017C0198014D2FC2
:1043F0005C2F0E94786787FD14C000916E021091B7
:104400006F02D0917002C091710298014D2F5C2F04
:10441000B601C7010E949F6D18161CF08601DE2DA3
:10442000CF2DC090D307D090D407E090D507F0905F
:10443000D60798014D2F5C2FC701B6010E949F6DD2
:104440001816E4F420E037ED43EA5CE3B8018D2F61
:104450009C2F0E94DD674B015C0128E431EE4AE7A6
:104460005FE3C701B6010E94DD679B01AC01C50196
:10447000B4010E94796B8B01D82FC92FC801AD2FD1
:10448000BC2F8093D3079093D407A093D507B09304
:10449000D607B8018D2F9C2F0E94BD6C7093CD0C58
:1044A0006093CC0C0E94CE4225D280E19DE0DF914A
:1044B000CF911F910F91FF90EF90DF90CF90BF9021
:1044C000AF909F908F907F906F905F904F900C94E3
:1044D000860C5F9A10922F048A9A109230049FB72C
:1044E000F894809108018160809308019FBF109229
:1044F0003104129AB9CECF92DF92EF92FF92C09020
:104500000F02D0901002E0901102F0901202809100
:104510005704882351F120E030E0A901C701B6011A
:104520000E947867882309F12BED3FE049E450E4CD
:10453000C701B6010E94DD6720E030E040E05FE3A4
:104540000E94DD67A70196010E94DD6720E030E050
:1045500040E05FE30E94DD679B01AC0160E070E03A
:1045600080E89FE30E94556C04C060E070E080E842
:104570009FE360937D0270937E0280937F0290930D
:104580008002FF90EF90DF90CF900895CF92DF925E
:10459000EF92FF92CF93DF93EC01C090BE04D090D6
:1045A000BF04E090C004F090C104A70196016881A7
:1045B00079818A819B810E94786787FF04C0C882C5
:1045C000D982EA82FB82C090C204D090C304E090FA
:1045D000C404F090C504A70196016C817D818E8191
:1045E0009F810E94786787FF04C0CC82DD82EE82C3
:1045F000FF82C090C604D090C704E090C804F09039
:10460000C904A7019601688579858A859B850E94E2
:10461000786787FF04C0C886D986EA86FB86C09083
:104620002802D0902902E0902A02F0902B02A701E4
:104630009601688179818A819B810E949F6D1816FD
:1046400024F4C882D982EA82FB82C0902C02D090E6
:104650002D02E0902E02F0902F02A70196016C81AE
:104660007D818E819F810E949F6D181624F4CC82DB
:10467000DD82EE82FF82C0903002D0903102E09065
:104680003202F0903302A7019601688579858A8508
:104690009B850E949F6D181624F4C886D986EA86E9
:1046A000FB86DF91CF91FF90EF90DF90CF90089540
:1046B000CF93DF930E94F20EE0918506F0E0E15483
:1046C000F84F8081882381F0EBE8FAE08491EF01D4
:1046D0002196882321F00E94FC0EFE01F7CF8AE08C
:1046E000DF91CF910C94FC0EDF91CF910895CF9381
:1046F000DF938FB7F8949091BA079093B9078FBF63
:10470000E2E8FAE08491EF012196882321F00E94EB
:10471000FC0EFE01F7CF8091BB079091BC07A091E2
:10472000BD07B091BE07BC01CD016F5F7F4F8F4FBA
:104730009F4F0E94AA0F8AE00E94FC0EDF91CF914A
:10474000B7CF88E893E190936C0C80936B0C8091C9
:104750006F008D7F80936F0090910E0D80910F0DF3
:10476000981711F0D6D3F8CF10926E0C10926D0CF2
:1047700080916F00826080936F0088D380E090E02A
:1047800067D36093C3077093C4078093C507909362
:10479000C60781E090E05CD36093C7077093C807B9
:1047A0008093C9079093CA0782E090E051D3609349
:1047B000CB077093CC078093CD079093CE078CE006
:1047C000E3ECF7E0AAECB4E001900D928A95E1F7F2
:1047D0000C94340E880F991F880F991FFC01EE5E10
:1047E000FB4F4081518162817381FC01E858F94F90
:1047F0004083518362837383E0916D0CF0916E0C62
:1048000082899389A489B5898093920C9093930CA3
:10481000A093940CB093950C0895CF92DF92EF92F1
:10482000FF920F931F93CF93DF931F921F92CDB7E9
:10483000DEB77C018A0180913402882309F443C0E9
:10484000E3EBF6E084916F019FEFC91AD90A882340
:1048500041F069837A830E94FC0EF60169817A81B6
:10486000F1CFFB0184916F019FEFC91AD90A882308
:1048700021F00E94FC0EF601F5CFEDE2F4E1849107
:104880006F019FEFC91AD90A882321F00E94FC0EFC
:10489000F601F5CFF7FC0AC0B701FF0C880B990BA6
:1048A0000E94AA0F8AE00E94FC0E0DC0E8E2F4E12B
:1048B00084917F019FEFE91AF90A882321F00E9471
:1048C000FC0EF701F5CF8091960C811107C0109274
:1048D000340281E08093960CC801A9DB0F900F9001
:1048E000DF91CF911F910F91FF90EF90DF90CF90CC
:1048F0000C94D41B2F923F924F925F926F927F92B3
:104900008F929F92AF92BF92CF92DF92EF92FF92DF
:104910000F931F93CF93DF93CDB7DEB72C970FB6CE
:10492000F894DEBF0FBECDBF8091A304882309F4A5
:1049300076C20E94981C0E94C01669837A838B837A
:104940009C836091CC0C7091CD0C072E000C880BD1
:10495000990B0E947E672091CE0C3091CF0C409134
:10496000D00C5091D10C04E0802E912CE8E2AE2EB8
:10497000B12CC12CD12C7B018C016AEB7CE08EEB3D
:104980009CE00E949A1A6090CC0C7090CD0C209004
:10499000CE0C3090CF0C4090D00C5090D10CB30185
:1049A000072C000C880B990B0E947E67A2019101D5
:1049B0000E94786B4B015C016093AC0C7093AD0C62
:1049C0008093AE0C9093AF0C20ED3CEC4CE45DE397
:1049D00060911C0270911D0280911E0290911F0235
:1049E0000E94DD676B017C012091A80C3091A90C1D
:1049F0004091AA0C5091AB0CC201B1010E94786B9E
:104A00009B01AC01C701B6010E94DD676B017C010F
:104A100023E333E343E75FE36091A40C7091A50CBB
:104A20008091A60C9091A70C0E94DD679B01AC01C0
:104A3000C701B6010E94796B69877A878B879C874B
:104A40006093A40C7093A50C8093A60C9093A70C74
:104A50002092A80C3092A90C4092AA0C5092AB0C58
:104A600020E030E040E251E4C501B4010E949F6DB6
:104A7000181624F481E08093A30C8DC020E030E070
:104A800040E251ECC501B4010E94786787FD02C085
:104A9000672821F481E08093A30CA3C08091A30C2C
:104AA000882351F010929F0C1092A00C1092A10C30
:104AB0001092A20C1092A30C209124023091250296
:104AC0004091260250912702C501B4010E94DD6782
:104AD0006B017C0160939B0C70939C0C80939D0CEC
:104AE00090939E0C20919F0C3091A00C4091A10CB2
:104AF0005091A20CC501B4010E94796B6D837E8335
:104B00008F83988760939F0C7093A00C8093A10C67
:104B10009093A20C20912002309121024091220218
:104B2000509123020E94DD679B01AC016093970CBA
:104B30007093980C8093990C90939A0CC701B601CE
:104B40000E94796B29853A854B855C850E94786B3C
:104B50006B017C0120E030E04FE753E40E949F6D41
:104B600020E030E0A9011816ECF4C501B4010E9460
:104B70009F6D181684F4A50194016D817E818F814B
:104B800098850E94786B60939F0C7093A00C809323
:104B9000A10C9093A20CC12CD12C1FE7E12E13E4A1
:104BA000F12E22C0C701B6010E94786787FF1CC0A2
:104BB00020E030E0A901C501B4010E94786787FFB9
:104BC00010C0A50194016D817E818F8198850E941E
:104BD000786B60939F0C7093A00C8093A10C9093C2
:104BE000A20CC12CD12C760160916F0C7091700CCD
:104BF000072E000C880B990B0E947E679B01AC016D
:104C0000C201B1010E949F6D1816CCF460917B0225
:104C100070917C02072E000C880B990B0E947E6716
:104C20009B01AC01C201B1010E94786787FF07C0F8
:104C3000C701B6010E94BD6C7595679501C060E023
:104C40006093A4048091C60C9091C70CA091C80CED
:104C5000B091C90C0097A105B10531F129813A81C4
:104C60004B815C81281B390B4A0B5B0B57FD1CC029
:104C70006091CA0C7091CB0C072E000C880B990B1D
:104C80000E947E679B01AC01C201B1010E9478675E
:104C900087FF08C049E654E168E774E180E090E0EE
:104CA000BCDD02C00E94CE428091F5069091F606CE
:104CB000A091F706B091F8060097A105B10561F142
:104CC00029813A814B815C81281B390B4A0B5B0B94
:104CD00057FD22C06091F9067091FA06072E000C6C
:104CE000880B990B0E947E679B01AC0160912704A1
:104CF000709128048091290490912A040E94786779
:104D000087FF08C04BE454E16AE574E18FEF9FEF41
:104D100084DD02C00E94851B8091B60C9091B70C77
:104D2000A091B80CB091B90C29813A814B815C817A
:104D3000281B390B4A0B5B0B57FD71C089819A8187
:104D4000AB81BC8188579C4EAF4FBF4F8093B60C50
:104D50009093B70CA093B80CB093B90C60912B044E
:104D600070912C04072E000C880B990B0E947E6713
:104D700020912704309128044091290450912A045D
:104D8000E2E08E2E912CF4E1AF2EB12CCC24CA940B
:104D9000DC2C7B018C0160EB7CE084EB9CE00E94CE
:104DA0009A1AC0902704D0902804E0902904F0902B
:104DB0002A0420E030E040EA50E4C701B6010E9436
:104DC0009F6D181614F520E030E04CE852E4C7015E
:104DD000B6010E94786787FF18C060912B0470911C
:104DE0002C04072E000C880B990B0E947E679B01F8
:104DF000AC01C701B6010E94786787FD02C080E060
:104E000001C08FE78093FF060AC01092FF069FB78C
:104E1000F894809102018F7D809302019FBF2C96B0
:104E20000FB6F894DEBF0FBECDBFDF91CF911F91BB
:104E30000F91FF90EF90DF90CF90BF90AF909F9039
:104E40008F907F906F905F904F903F902F9008953C
:104E5000CF93DF932FB7F894EC01CC0FDD1FCC0F6D
:104E6000DD1FFE01EE5EFB4F6081718182819381C7
:104E70002FBF0E947E67C859D94F288139814A8146
:104E80005B810E94DD67DF91CF91089590910E0DB7
:104E900080910F0D981711F000D9F8CF08958091E7
:104EA000910C80FF03C089988FEF02C0899A81E03E
:104EB000809376028091910C81FF03C08F9A8FEFCF
:104EC00002C08F9881E0809377028091910C9FB708
:104ED00082FF09C0F89480910B018D7F80930B01B4
:104EE0009FBF8FEF08C0F89480910B018260809380
:104EF0000B019FBF81E0809378028091910C83FF2A
:104F000003C016988FEF02C0169A81E08093790251
:104F1000089590910E0D80910F0D981731F08091AA
:104F20000F0D8F5F8F7080930F0D08951F920F925A
:104F30000FB60F9211240BB60F926F927F928F9241
:104F40009F92AF92BF92CF92DF92EF92FF920F9318
:104F50001F932F933F934F935F936F937F938F9301
:104F60009F93AF93BF93EF93FF93CF93DF9300D0C3
:104F70001F92CDB7DEB780916E008B7F80936E005D
:104F800080916F008D7F80936F00789480916B0C7F
:104F900090916C0C009769F0019790936C0C809342
:104FA0006B0C10926E0C10926D0CB3DF88EC90E0DD
:104FB0009AC100916D0C10916E0C0115110509F04C
:104FC00097C190910E0D80910F0D981769F0009187
:104FD0000F0D29E4029F80011124F801E552F84FDA
:104FE0008081886080838F0110936E0C00936D0C1C
:104FF0000115110509F475C1D80192965C9192973B
:105000008091910C11964C9158130AC0242F30E0D6
:1050100080917A02082E000C990B2817390729F085
:105020005093910C40937A023ADF10928D0C1092BB
:105030008E0C10928F0C1092900CF80127A930ADB5
:105040002134FCE93F0728F421324EE4340748F0CC
:1050500002C020E43CE9369527953695279584E0F3
:1050600007C0213157E2350730F03695279582E0A9
:1050700080938C0C08C081E080938C0C2032310529
:1050800010F420E230E0390160E2661A7108611420
:1050900088E07806F0F0E72DFF27EE0FFF1FEE0FF8
:1050A000FF1FCF01885D9F4EFC01329645915491C0
:1050B000B62DAA27B59F9001B49F210D3A1F0694E3
:1050C0002A1F3A1F1124FC0185919491821B930B96
:1050D00020C0C301969587958C7F885D934FFC0116
:1050E00025913491FC01329645915491B30167703A
:1050F0007727469FC001479F900D569F900D112422
:10510000B3E096958795BA95E1F7F901E81BF90B9D
:10511000CF018436910588F4FAEE8F2EF3E09F2EAE
:10512000D4018D914D01882319F00E94FC0EF8CF17
:10513000C3010E94C24284E690E090938B0C80935E
:105140008A0C80918C0C8093890CF80123AD34ADCE
:105150003093880C2093870C2134FCE93F0728F416
:1051600021324EE4340748F002C020E43CE9369591
:1051700027953695279584E007C0213157E23507FA
:1051800030F03695279582E080938C0C08C081E042
:1051900080938C0C2032310510F420E230E039018C
:1051A00060E2661A7108611488E07806F0F0E72D75
:1051B000FF27EE0FFF1FEE0FFF1FCF01885D9F4EF1
:1051C000FC01329645915491B62DAA27B59F9001C6
:1051D000B49F210D3A1F06942A1F3A1F1124FC0187
:1051E00085919491821B930B20C0C301969587955E
:1051F0008C7F885D934FFC0125913491FC013296A0
:1052000045915491B30167707727469FC001479F2E
:10521000900D569F900D112443E0969587954A95E1
:10522000E1F7F901E81BF90BCF018436910588F409
:10523000AAEE8A2EA3E09A2ED4018D914D018823E7
:1052400019F00E94FC0EF8CFC3010E94C24284E60E
:1052500090E0AC0160E070E04093830C5093840CCC
:105260006093850C7093860C9093890080938800DE
:10527000F80182899389A489B589B695A7959795F0
:105280008795B095A095909581959F4FAF4FBF4F53
:1052900080937F0C9093800CA093810CB093820C30
:1052A00080937B0C90937C0CA0937D0CB0937E0C30
:1052B0008093770C9093780CA093790CB0937A0C30
:1052C0008093730C9093740CA093750CB093760C30
:1052D0001092920C1092930C1092940C1092950CC8
:1052E00007C080ED97E090938900809388005AC4AE
:1052F00080910E02882309F48DC00091910C00FF6B
:1053000024C09CB18091720C95FBAA24A0F88E7FDA
:10531000A82AA092720C8091710C8170A822A9F029
:10532000E0916D0CF0916E0C82819381A481B58126
:10533000181619061A061B0644F48091840681602B
:105340008093840680E090E045DA01FF2FC0209131
:1053500003018091720C90E021FBCC24C0F8D12C89
:10536000D194C194D108C826D926F2E0CF22DD24F9
:10537000C826D926C092720C8091710C8270C82206
:10538000A9F0E0916D0CF0916E0C86819781A0855B
:10539000B185181619061A061B0644F48091840676
:1053A00082608093840681E090E014DA02FF2EC0D0
:1053B00029B18091720C90E023FBEE24E0F8F12CEF
:1053C000F194E194F108E826F92604E0E022FF24B4
:1053D000E826F926E092720C8091710C8470E82224
:1053E000A9F0E0916D0CF0916E0C82859385A485F7
:1053F000B585181619061A061B0644F48091840612
:1054000084608093840682E090E0E4D98091720CFD
:105410008093710C20E080918C0C90E0422F022E42
:10542000000C550B481759070CF0ACC1E0916D0CFE
:10543000F0916E0C4091730C5091740C6091750C4E
:105440007091760C82819381A481B581840F951F20
:10545000A61FB71F8093730C9093740CA093750CC8
:10546000B093760C181619061A061B060CF4889AC7
:10547000E0916D0CF0916E0C4091770C5091780C8E
:105480006091790C70917A0C86819781A085B185A5
:10549000840F951FA61FB71F8093770C9093780CED
:1054A000A093790CB0937A0C181619061A061B06ED
:1054B0000CF48E9AE0916D0CF0916E0C40917B0C87
:1054C00050917C0C60917D0C70917E0C828593854F
:1054D000A485B585840F951FA61FB71F80937B0CED
:1054E00090937C0CA0937D0CB0937E0C181619063B
:1054F0001A061B0644F49FB7F89480910B0188604C
:1055000080930B019FBFE0916D0CF0916E0C409168
:105510007F0C5091800C6091810C7091820C86857B
:105520009785A089B189840F951FA61FB71F809307
:105530007F0C9093800CA093810CB093820C181672
:1055400019061A061B060CF4149A8091730C90919C
:10555000740CA091750CB091760C181619061A06E9
:105560001B0684F5E0916D0CF0916E0C4289538915
:1055700064897589841B950BA60BB70B8093730CFC
:105580009093740CA093750CB093760C8091760276
:105590004091120450911304609114047091150409
:1055A000082E000C990BAA0BBB0B840F951FA61F8E
:1055B000B71F8093120490931304A0931404B09324
:1055C000150488988091770C9091780CA091790CB3
:1055D000B0917A0C181619061A061B0684F5E0918C
:1055E0006D0CF0916E0C4289538964897589841B16
:1055F000950BA60BB70B8093770C9093780CA09328
:10560000790CB0937A0C80917702409116045091F6
:1056100017046091180470911904082E000C990B5E
:10562000AA0BBB0B840F951FA61FB71F80931604F0
:1056300090931704A0931804B09319048E98809146
:105640007B0C90917C0CA0917D0CB0917E0C181677
:1056500019061A061B06BCF5E0916D0CF0916E0C54
:105660004289538964897589841B950BA60BB70BF6
:1056700080937B0C90937C0CA0937D0CB0937E0C5C
:105680008091780240911A0450911B0460911C048F
:1056900070911D04082E000C990BAA0BBB0B840FF4
:1056A000951FA61FB71F80931A0490931B04A09305
:1056B0001C04B0931D049FB7F89480910B01877F61
:1056C00080930B019FBF80917F0C9091800CA091E3
:1056D000810CB091820C181619061A061B0684F567
:1056E000E0916D0CF0916E0C428953896489758943
:1056F000841B950BA60BB70B80937F0C9093800CAB
:10570000A093810CB093820C8091790240911E0489
:1057100050911F046091200470912104082E000C08
:10572000990BAA0BBB0B840F951FA61FB71F809365
:105730001E0490931F04A0932004B0932104149896
:105740008091920C9091930CA091940CB091950C37
:105750000196A11DB11D8093920C9093930CA09380
:10576000940CB093950CE0916D0CF0916E0C428905
:1057700053896489758984179507A607B70720F4AC
:105780002F5F49CEB12C02C0BB24B3944091920C40
:105790005091930C6091940C7091950CE0906D0C6D
:1057A000F0906E0CF70186899789A08DB18D8417D2
:1057B0009507A607B70708F4DCC04091830C509109
:1057C000840C6091850C7091860C068D178D20A13C
:1057D00031A1AA27419FB12D529FC001629F900D18
:1057E000619F800D911D429FB00D811D9A1F519F99
:1057F000B00D811D9A1F609FB00D811D9A1F509F93
:10580000B10D8A1F9A1FB6958A1F9A1F349F800D6B
:10581000911D359F900D112423AD34AD820F931F40
:105820009093880C8093870C47A950AD61AD72AD01
:10583000A0E0B0E0481759076A077B0720F45093AF
:10584000880C4093870C8091870C9091880C813450
:10585000BCE99B0728F48132EEE49E0748F002C0C1
:1058600080E49CE9969587959695879524E007C0F6
:105870008131F7E29F0730F09695879522E02093DB
:105880008C0C08C021E020938C0C8032910510F420
:1058900080E290E08C0100521109011528E0120706
:1058A000D8F0E12FFF27EE0FFF1FEE0FFF1FCF01F4
:1058B000885D9F4EFC01329645915491AA27059F21
:1058C0009001049F210D3A1F06942A1F3A1F1124AC
:1058D000FC01859194911CC09801369527952C7FE9
:1058E000285D334FF90185919491F90132966591C4
:1058F0007491A80147705527649F9001659F300DF2
:10590000749F300D112443E0369527954A95E1F7B1
:10591000821B930B8436910588F48AEEE82E83E08F
:10592000F82ED7018D917D01882319F00E94FC0E7D
:10593000F8CFC8010E94C24284E690E090938900AB
:10594000809388004091830C5091840C6091850C69
:105950007091860C8A019B01080F191F211D311DB2
:105960000093830C1093840C2093850C3093860C49
:10597000FDC04091920C5091930C6091940C7091E9
:10598000950CF701828D938DA48DB58D84179507A5
:10599000A607B70708F0DEC020918D0C30918E0C61
:1059A00040918F0C5091900C29833A834B835C83F8
:1059B000468D578D60A171A109811A812B813C818F
:1059C000AA27059FB12D169F6001269FD00C259F09
:1059D000C00CD11C069FB00DC11CDA1E159FB00D66
:1059E000C11CDA1E249FB00DC11CDA1E149FB10D1C
:1059F000CA1EDA1EB695CA1EDA1E709FC00CD11CD4
:105A0000719FD00C11248091870C9091880CFF9687
:105A1000C816D90680F48C199D0940815181628194
:105A200073816C01E12CF12CC416D506E606F7064D
:105A300020F4CA0102C08081918181341CE9910760
:105A400028F481322EE4920748F002C080E49CE9F9
:105A5000969587959695879524E007C0813137E222
:105A6000930730F09695879522E020938C0C08C020
:105A700021E020938C0C8032910510F480E290E0BC
:105A80008C0100521109011548E01407D8F0E12FEC
:105A9000FF27EE0FFF1FEE0FFF1FCF01885D9F4E08
:105AA000FC01329645915491AA27059F9001049FCD
:105AB000210D3A1F06942A1F3A1F1124FC018591DB
:105AC00094911DC0C801969587958C7F885D934FF2
:105AD000FC0145915491FC01329665917491C80185
